{
  "transactions": [
    {
      "hash": "0x73c11fe751540ff6a4672f654bf9cf5a053d59c7c217b86f8da19e79517e8644",
      "transactionType": "CREATE",
      "contractName": "MockERC20",
      "contractAddress": "0x461989c62b32cf80efa890fc4ef33b19097c95c1",
      "function": null,
      "arguments": [
        "Mock USDC",
        "USDC",
        "6"
      ],
      "transaction": {
        "from": "0x9ea593f2cbac4671268a609bbbd7276aea7eb689",
        "gas": "0xab87e",
        "value": "0x0",
        "input": "0x60a06040523480156200001157600080fd5b5060405162000ad338038062000ad383398101604081905262000034916200012d565b8282600362000044838262000243565b50600462000053828262000243565b50505060ff16608052506200030f9050565b634e487b7160e01b600052604160045260246000fd5b600082601f8301126200008d57600080fd5b81516001600160401b0380821115620000aa57620000aa62000065565b604051601f8301601f19908116603f01168101908282118183101715620000d557620000d562000065565b8160405283815260209250866020858801011115620000f357600080fd5b600091505b83821015620001175785820183015181830184015290820190620000f8565b6000602085830101528094505050505092915050565b6000806000606084860312156200014357600080fd5b83516001600160401b03808211156200015b57600080fd5b62000169878388016200007b565b945060208601519150808211156200018057600080fd5b506200018f868287016200007b565b925050604084015160ff81168114620001a757600080fd5b809150509250925092565b600181811c90821680620001c757607f821691505b602082108103620001e857634e487b7160e01b600052602260045260246000fd5b50919050565b601f8211156200023e576000816000526020600020601f850160051c81016020861015620002195750805b601f850160051c820191505b818110156200023a5782815560010162000225565b5050505b505050565b81516001600160401b038111156200025f576200025f62000065565b6200027781620002708454620001b2565b84620001ee565b602080601f831160018114620002af5760008415620002965750858301515b600019600386901b1c1916600185901b1785556200023a565b600085815260208120601f198616915b82811015620002e057888601518255948401946001909101908401620002bf565b5085821015620002ff5787850151600019600388901b60f8161c191681555b5050505050600190811b01905550565b6080516107a86200032b600039600061011001526107a86000f3fe608060405234801561001057600080fd5b506004361061009e5760003560e01c806340c10f191161006657806340c10f191461013a57806370a082311461014f57806395d89b4114610178578063a9059cbb14610180578063dd62ed3e1461019357600080fd5b806306fdde03146100a3578063095ea7b3146100c157806318160ddd146100e457806323b872dd146100f6578063313ce56714610109575b600080fd5b6100ab6101cc565b6040516100b891906105f1565b60405180910390f35b6100d46100cf36600461065c565b61025e565b60405190151581526020016100b8565b6002545b6040519081526020016100b8565b6100d4610104366004610686565b610278565b60405160ff7f00000000000000000000000000000000000000000000000000000000000000001681526020016100b8565b61014d61014836600461065c565b61029c565b005b6100e861015d3660046106c2565b6001600160a01b031660009081526020819052604090205490565b6100ab6102aa565b6100d461018e36600461065c565b6102b9565b6100e86101a13660046106e4565b6001600160a01b03918216600090815260016020908152604080832093909416825291909152205490565b6060600380546101db90610717565b80601f016020809104026020016040519081016040528092919081815260200182805461020790610717565b80156102545780601f1061022957610100808354040283529160200191610254565b820191906000526020600020905b81548152906001019060200180831161023757829003601f168201915b5050505050905090565b60003361026c8185856102c7565b60019150505b92915050565b6000336102868582856102d9565b61029185858561035d565b506001949350505050565b6102a682826103bc565b5050565b6060600480546101db90610717565b60003361026c81858561035d565b6102d483838360016103f2565b505050565b6001600160a01b03838116600090815260016020908152604080832093861683529290522054600019811015610357578181101561034857604051637dc7a0d960e11b81526001600160a01b038416600482015260248101829052604481018390526064015b60405180910390fd5b610357848484840360006103f2565b50505050565b6001600160a01b03831661038757604051634b637e8f60e11b81526000600482015260240161033f565b6001600160a01b0382166103b15760405163ec442f0560e01b81526000600482015260240161033f565b6102d48383836104c7565b6001600160a01b0382166103e65760405163ec442f0560e01b81526000600482015260240161033f565b6102a6600083836104c7565b6001600160a01b03841661041c5760405163e602df0560e01b81526000600482015260240161033f565b6001600160a01b03831661044657604051634a1406b160e11b81526000600482015260240161033f565b6001600160a01b038085166000908152600160209081526040808320938716835292905220829055801561035757826001600160a01b0316846001600160a01b03167f8c5be1e5ebec7d5bd14f71427d1e84f3dd0314c0f7b2291e5b200ac8c7c3b925846040516104b991815260200190565b60405180910390a350505050565b6001600160a01b0383166104f25780600260008282546104e79190610751565b909155506105649050565b6001600160a01b038316600090815260208190526040902054818110156105455760405163391434e360e21b81526001600160a01b0385166004820152602481018290526044810183905260640161033f565b6001600160a01b03841660009081526020819052604090209082900390555b6001600160a01b0382166105805760028054829003905561059f565b6001600160a01b03821660009081526020819052604090208054820190555b816001600160a01b0316836001600160a01b03167fddf252ad1be2c89b69c2b068fc378daa952ba7f163c4a11628f55a4df523b3ef836040516105e491815260200190565b60405180910390a3505050565b60006020808352835180602085015260005b8181101561061f57858101830151858201604001528201610603565b506000604082860101526040601f19601f8301168501019250505092915050565b80356001600160a01b038116811461065757600080fd5b919050565b6000806040838503121561066f57600080fd5b61067883610640565b946020939093013593505050565b60008060006060848603121561069b57600080fd5b6106a484610640565b92506106b260208501610640565b9150604084013590509250925092565b6000602082840312156106d457600080fd5b6106dd82610640565b9392505050565b600080604083850312156106f757600080fd5b61070083610640565b915061070e60208401610640565b90509250929050565b600181811c9082168061072b57607f821691505b60208210810361074b57634e487b7160e01b600052602260045260246000fd5b50919050565b8082018082111561027257634e487b7160e01b600052601160045260246000fdfea2646970667358221220af5f2a6e9f80f2170a7c76130be452e294e7458ed2b55478c6c58771594fd8f764736f6c63430008180033000000000000000000000000000000000000000000000000000000000000006000000000000000000000000000000000000000000000000000000000000000a0000000000000000000000000000000000000000000000000000000000000000600000000000000000000000000000000000000000000000000000000000000094d6f636b2055534443000000000000000000000000000000000000000000000000000000000000000000000000000000000000000000000000000000000000045553444300000000000000000000000000000000000000000000000000000000",
        "nonce": "0x6b",
        "chainId": "0x66eee"
      },
      "additionalContracts": [],
      "isFixedGasLimit": false
    },
    {
      "hash": "0xd5d4961efc2b2251854ddac7b28113521fc58ac36bb2252bc510f4035a583bc0",
      "transactionType": "CREATE",
      "contractName": "MockERC20",
      "contractAddress": "0x10be9b7b827dba02277e4b3775f950257f5b7e42",
      "function": null,
      "arguments": [
        "Mock USDT",
        "USDT",
        "6"
      ],
      "transaction": {
        "from": "0x9ea593f2cbac4671268a609bbbd7276aea7eb689",
        "gas": "0xab87e",
        "value": "0x0",
        "input": "0x60a06040523480156200001157600080fd5b5060405162000ad338038062000ad383398101604081905262000034916200012d565b8282600362000044838262000243565b50600462000053828262000243565b50505060ff16608052506200030f9050565b634e487b7160e01b600052604160045260246000fd5b600082601f8301126200008d57600080fd5b81516001600160401b0380821115620000aa57620000aa62000065565b604051601f8301601f19908116603f01168101908282118183101715620000d557620000d562000065565b8160405283815260209250866020858801011115620000f357600080fd5b600091505b83821015620001175785820183015181830184015290820190620000f8565b6000602085830101528094505050505092915050565b6000806000606084860312156200014357600080fd5b83516001600160401b03808211156200015b57600080fd5b62000169878388016200007b565b945060208601519150808211156200018057600080fd5b506200018f868287016200007b565b925050604084015160ff81168114620001a757600080fd5b809150509250925092565b600181811c90821680620001c757607f821691505b602082108103620001e857634e487b7160e01b600052602260045260246000fd5b50919050565b601f8211156200023e576000816000526020600020601f850160051c81016020861015620002195750805b601f850160051c820191505b818110156200023a5782815560010162000225565b5050505b505050565b81516001600160401b038111156200025f576200025f62000065565b6200027781620002708454620001b2565b84620001ee565b602080601f831160018114620002af5760008415620002965750858301515b600019600386901b1c1916600185901b1785556200023a565b600085815260208120601f198616915b82811015620002e057888601518255948401946001909101908401620002bf565b5085821015620002ff5787850151600019600388901b60f8161c191681555b5050505050600190811b01905550565b6080516107a86200032b600039600061011001526107a86000f3fe608060405234801561001057600080fd5b506004361061009e5760003560e01c806340c10f191161006657806340c10f191461013a57806370a082311461014f57806395d89b4114610178578063a9059cbb14610180578063dd62ed3e1461019357600080fd5b806306fdde03146100a3578063095ea7b3146100c157806318160ddd146100e457806323b872dd146100f6578063313ce56714610109575b600080fd5b6100ab6101cc565b6040516100b891906105f1565b60405180910390f35b6100d46100cf36600461065c565b61025e565b60405190151581526020016100b8565b6002545b6040519081526020016100b8565b6100d4610104366004610686565b610278565b60405160ff7f00000000000000000000000000000000000000000000000000000000000000001681526020016100b8565b61014d61014836600461065c565b61029c565b005b6100e861015d3660046106c2565b6001600160a01b031660009081526020819052604090205490565b6100ab6102aa565b6100d461018e36600461065c565b6102b9565b6100e86101a13660046106e4565b6001600160a01b03918216600090815260016020908152604080832093909416825291909152205490565b6060600380546101db90610717565b80601f016020809104026020016040519081016040528092919081815260200182805461020790610717565b80156102545780601f1061022957610100808354040283529160200191610254565b820191906000526020600020905b81548152906001019060200180831161023757829003601f168201915b5050505050905090565b60003361026c8185856102c7565b60019150505b92915050565b6000336102868582856102d9565b61029185858561035d565b506001949350505050565b6102a682826103bc565b5050565b6060600480546101db90610717565b60003361026c81858561035d565b6102d483838360016103f2565b505050565b6001600160a01b03838116600090815260016020908152604080832093861683529290522054600019811015610357578181101561034857604051637dc7a0d960e11b81526001600160a01b038416600482015260248101829052604481018390526064015b60405180910390fd5b610357848484840360006103f2565b50505050565b6001600160a01b03831661038757604051634b637e8f60e11b81526000600482015260240161033f565b6001600160a01b0382166103b15760405163ec442f0560e01b81526000600482015260240161033f565b6102d48383836104c7565b6001600160a01b0382166103e65760405163ec442f0560e01b81526000600482015260240161033f565b6102a6600083836104c7565b6001600160a01b03841661041c5760405163e602df0560e01b81526000600482015260240161033f565b6001600160a01b03831661044657604051634a1406b160e11b81526000600482015260240161033f565b6001600160a01b038085166000908152600160209081526040808320938716835292905220829055801561035757826001600160a01b0316846001600160a01b03167f8c5be1e5ebec7d5bd14f71427d1e84f3dd0314c0f7b2291e5b200ac8c7c3b925846040516104b991815260200190565b60405180910390a350505050565b6001600160a01b0383166104f25780600260008282546104e79190610751565b909155506105649050565b6001600160a01b038316600090815260208190526040902054818110156105455760405163391434e360e21b81526001600160a01b0385166004820152602481018290526044810183905260640161033f565b6001600160a01b03841660009081526020819052604090209082900390555b6001600160a01b0382166105805760028054829003905561059f565b6001600160a01b03821660009081526020819052604090208054820190555b816001600160a01b0316836001600160a01b03167fddf252ad1be2c89b69c2b068fc378daa952ba7f163c4a11628f55a4df523b3ef836040516105e491815260200190565b60405180910390a3505050565b60006020808352835180602085015260005b8181101561061f57858101830151858201604001528201610603565b506000604082860101526040601f19601f8301168501019250505092915050565b80356001600160a01b038116811461065757600080fd5b919050565b6000806040838503121561066f57600080fd5b61067883610640565b946020939093013593505050565b60008060006060848603121561069b57600080fd5b6106a484610640565b92506106b260208501610640565b9150604084013590509250925092565b6000602082840312156106d457600080fd5b6106dd82610640565b9392505050565b600080604083850312156106f757600080fd5b61070083610640565b915061070e60208401610640565b90509250929050565b600181811c9082168061072b57607f821691505b60208210810361074b57634e487b7160e01b600052602260045260246000fd5b50919050565b8082018082111561027257634e487b7160e01b600052601160045260246000fdfea2646970667358221220af5f2a6e9f80f2170a7c76130be452e294e7458ed2b55478c6c58771594fd8f764736f6c63430008180033000000000000000000000000000000000000000000000000000000000000006000000000000000000000000000000000000000000000000000000000000000a0000000000000000000000000000000000000000000000000000000000000000600000000000000000000000000000000000000000000000000000000000000094d6f636b2055534454000000000000000000000000000000000000000000000000000000000000000000000000000000000000000000000000000000000000045553445400000000000000000000000000000000000000000000000000000000",
        "nonce": "0x6c",
        "chainId": "0x66eee"
      },
      "additionalContracts": [],
      "isFixedGasLimit": false
    },
    {
      "hash": "0xdc24b16ca21ec34b14f50b020b8b72e443087b1e8cf61880b8b3045bc7d7cb51",
      "transactionType": "CREATE",
      "contractName": "AccessRegistry",
      "contractAddress": "0xf52dc6bd2ed650372710e0c995e7f7d9f5eb113a",
      "function": null,
      "arguments": [
        "0x9EA593F2cBac4671268a609bBbd7276AeA7EB689"
      ],
      "transaction": {
        "from": "0x9ea593f2cbac4671268a609bbbd7276aea7eb689",
        "gas": "0x14d393",
        "value": "0x0",
        "input": "0x608060405234801561001057600080fd5b506040516112a23803806112a283398101604081905261002f91610114565b6001600160a01b038116610056576040516381fc73b760e01b815260040160405180910390fd5b610061600082610068565b5050610144565b6000828152602081815260408083206001600160a01b038516845290915281205460ff1661010a576000838152602081815260408083206001600160a01b03861684529091529020805460ff191660011790556100c23390565b6001600160a01b0316826001600160a01b0316847f2f8788117e7eff1d82e926ec794901d17c78024a50270940304540a733656f0d60405160405180910390a450600161010e565b5060005b92915050565b60006020828403121561012657600080fd5b81516001600160a01b038116811461013d57600080fd5b9392505050565b61114f806101536000396000f3fe608060405234801561001057600080fd5b50600436106101375760003560e01c8063736e18b2116100b8578063b35cd05f1161007c578063b35cd05f146102c2578063d547741f146102d5578063dc40441e146102e8578063dccab29f1461030d578063f5b541a614610320578063fe575a871461034757600080fd5b8063736e18b214610261578063891edd501461027457806391d14854146102945780639855f937146102a7578063a217fddf146102ba57600080fd5b806326909c7d116100ff57806326909c7d146102005780632f2ff15d1461021357806336568abe14610226578063404ccd07146102395780634cbee3bd1461024e57600080fd5b806301ffc9a71461013c57806302d7fd921461016457806320d3990414610199578063248a9ca3146101c857806325b8824a146101eb575b600080fd5b61014f61014a366004610c83565b61036a565b60405190151581526020015b60405180910390f35b61018b7f811427a0fa4932aef534bba16bc34e9b7b2d7d2a79c475fca1765f6cc1faebea81565b60405190815260200161015b565b61014f6101a7366004610cd0565b6001600160a01b031660009081526002602052604090206005015460ff1690565b61018b6101d6366004610ceb565b60009081526020819052604090206001015490565b6101fe6101f9366004610cd0565b6103a1565b005b6101fe61020e366004610cd0565b61046b565b6101fe610221366004610d04565b6104d1565b6101fe610234366004610d04565b6104fc565b61018b6000805160206110fa83398151915281565b6101fe61025c366004610cd0565b610534565b6101fe61026f366004610d30565b61061f565b610287610282366004610cd0565b6107ad565b60405161015b9190610de8565b61014f6102a2366004610d04565b6108da565b6101fe6102b5366004610cd0565b610903565b61018b600081565b61014f6102d0366004610cd0565b610968565b6101fe6102e3366004610d04565b6109ae565b6102fb6102f6366004610cd0565b6109d3565b60405161015b96959493929190610e44565b6101fe61031b366004610d30565b610a93565b61018b7f97667070c54ef182b0f5858b034beac1b6f3089aa2d3188bb1e8929f4fa9b92981565b61014f610355366004610cd0565b60016020526000908152604090205460ff1681565b60006001600160e01b03198216637965db0b60e01b148061039b57506301ffc9a760e01b6001600160e01b03198316145b92915050565b6000805160206110fa8339815191526103b981610b40565b6001600160a01b03821660009081526002602052604090206005015460ff1615610467576001600160a01b0382166000908152600260205260408120600181018054919261040683610e82565b9091555050600181015460028201546003830154604080519384526020840192909252908201526001600160a01b038416907fb50c9bc46f6ff8ff24782c72cbab16635f48e9b8e1eb493bdd31b82091d0db169060600160405180910390a2505b5050565b6000805160206110fa83398151915261048381610b40565b6001600160a01b03821660009081526002602052604090206005015460ff1615610467576001600160a01b038216600090815260026020819052604082209081018054919261040683610e82565b6000828152602081905260409020600101546104ec81610b40565b6104f68383610b4d565b50505050565b6001600160a01b03811633146105255760405163334bd91960e11b815260040160405180910390fd5b61052f8282610bdf565b505050565b7f811427a0fa4932aef534bba16bc34e9b7b2d7d2a79c475fca1765f6cc1faebea61055e81610b40565b6001600160a01b038216610585576040516381fc73b760e01b815260040160405180910390fd5b6001600160a01b03821660009081526001602052604090205460ff16156105cf57604051631fa10c9960e31b81526001600160a01b03831660048201526024015b60405180910390fd5b6001600160a01b0382166000818152600160208190526040808320805460ff1916909217909155517f768591b545cc91f16ad069ee63ae48d0a5abc936e493e41676f8ecfd51a0d0fc9190a25050565b3360009081526001602052604090205460ff1615610652576040516317c702c560e01b81523360048201526024016105c6565b3360009081526002602052604090206005015460ff161561068857604051633f3d9ea560e21b81523360048201526024016105c6565b60008190036106aa576040516349d2afa360e01b815260040160405180910390fd5b6040518060c0016040528083838080601f01602080910402602001604051908101604052809392919081815260200183838082843760009201829052509385525050506020808301829052604080840183905260608401839052426080850152600160a09094019390935233825260029052208151819061072b9082610f49565b50602082015160018201556040808301516002830155606083015160038301556080830151600483015560a0909201516005909101805460ff19169115159190911790555133907f79cb6ff5e6b24d80e2196db35d9381da61a2d9dfc7a1f3bc2a37c3322ae85e94906107a19085908590611009565b60405180910390a25050565b6107e86040518060c0016040528060608152602001600081526020016000815260200160008152602001600081526020016000151581525090565b6001600160a01b03821660009081526002602052604090819020815160c0810190925280548290829061081a90610ebf565b80601f016020809104026020016040519081016040528092919081815260200182805461084690610ebf565b80156108935780601f1061086857610100808354040283529160200191610893565b820191906000526020600020905b81548152906001019060200180831161087657829003601f168201915b50505091835250506001820154602082015260028201546040820152600382015460608201526004820154608082015260059091015460ff16151560a09091015292915050565b6000918252602082815260408084206001600160a01b0393909316845291905290205460ff1690565b6000805160206110fa83398151915261091b81610b40565b6001600160a01b03821660009081526002602052604090206005015460ff1615610467576001600160a01b0382166000908152600260205260408120600381018054919261040683610e82565b6001600160a01b03811660009081526002602052604081206005015460ff16801561039b5750506001600160a01b031660009081526001602052604090205460ff161590565b6000828152602081905260409020600101546109c981610b40565b6104f68383610bdf565b6002602052600090815260409020805481906109ee90610ebf565b80601f0160208091040260200160405190810160405280929190818152602001828054610a1a90610ebf565b8015610a675780601f10610a3c57610100808354040283529160200191610a67565b820191906000526020600020905b815481529060010190602001808311610a4a57829003601f168201915b505050600184015460028501546003860154600487015460059097015495969295919450925060ff1686565b3360009081526002602052604090206005015460ff16610ac857604051630617ba9160e21b81523360048201526024016105c6565b6000819003610aea576040516349d2afa360e01b815260040160405180910390fd5b336000908152600260205260409020610b04828483611038565b50336001600160a01b03167f6a89fb1598a8601c766879d13fdb5eaa8198e8f4121276dd368705115f72e4aa83836040516107a1929190611009565b610b4a8133610c4a565b50565b6000610b5983836108da565b610bd7576000838152602081815260408083206001600160a01b03861684529091529020805460ff19166001179055610b8f3390565b6001600160a01b0316826001600160a01b0316847f2f8788117e7eff1d82e926ec794901d17c78024a50270940304540a733656f0d60405160405180910390a450600161039b565b50600061039b565b6000610beb83836108da565b15610bd7576000838152602081815260408083206001600160a01b0386168085529252808320805460ff1916905551339286917ff6391f5c32d9c69d2a47ea670b442974b53935d1edc7fd64eb21e047a839171b9190a450600161039b565b610c5482826108da565b6104675760405163e2517d3f60e01b81526001600160a01b0382166004820152602481018390526044016105c6565b600060208284031215610c9557600080fd5b81356001600160e01b031981168114610cad57600080fd5b9392505050565b80356001600160a01b0381168114610ccb57600080fd5b919050565b600060208284031215610ce257600080fd5b610cad82610cb4565b600060208284031215610cfd57600080fd5b5035919050565b60008060408385031215610d1757600080fd5b82359150610d2760208401610cb4565b90509250929050565b60008060208385031215610d4357600080fd5b823567ffffffffffffffff80821115610d5b57600080fd5b818501915085601f830112610d6f57600080fd5b813581811115610d7e57600080fd5b866020828501011115610d9057600080fd5b60209290920196919550909350505050565b6000815180845260005b81811015610dc857602081850181015186830182015201610dac565b506000602082860101526020601f19601f83011685010191505092915050565b602081526000825160c06020840152610e0460e0840182610da2565b9050602084015160408401526040840151606084015260608401516080840152608084015160a084015260a0840151151560c08401528091505092915050565b60c081526000610e5760c0830189610da2565b602083019790975250604081019490945260608401929092526080830152151560a090910152919050565b600060018201610ea257634e487b7160e01b600052601160045260246000fd5b5060010190565b634e487b7160e01b600052604160045260246000fd5b600181811c90821680610ed357607f821691505b602082108103610ef357634e487b7160e01b600052602260045260246000fd5b50919050565b601f82111561052f576000816000526020600020601f850160051c81016020861015610f225750805b601f850160051c820191505b81811015610f4157828155600101610f2e565b505050505050565b815167ffffffffffffffff811115610f6357610f63610ea9565b610f7781610f718454610ebf565b84610ef9565b602080601f831160018114610fac5760008415610f945750858301515b600019600386901b1c1916600185901b178555610f41565b600085815260208120601f198616915b82811015610fdb57888601518255948401946001909101908401610fbc565b5085821015610ff95787850151600019600388901b60f8161c191681555b5050505050600190811b01905550565b60208152816020820152818360408301376000818301604090810191909152601f909201601f19160101919050565b67ffffffffffffffff83111561105057611050610ea9565b6110648361105e8354610ebf565b83610ef9565b6000601f84116001811461109857600085156110805750838201355b600019600387901b1c1916600186901b1783556110f2565b600083815260209020601f19861690835b828110156110c957868501358255602094850194600190920191016110a9565b50868210156110e65760001960f88860031b161c19848701351681555b505060018560011b0183555b505050505056feb8179c2726c8d8961ef054875ab3f4c1c3d34e1cb429c3d5e0bc97958e4cab9da2646970667358221220790a4efac2b60551af9a0bc9b252ef93085d4074500a343391f97eebd6a234d664736f6c634300081800330000000000000000000000009ea593f2cbac4671268a609bbbd7276aea7eb689",
        "nonce": "0x6d",
        "chainId": "0x66eee"
      },
      "additionalContracts": [],
      "isFixedGasLimit": false
    },
    {
      "hash": "0xa10008be17bcfc9797003a4ef16f56158866ff766ebf59353d5737c938a2c2f1",
      "transactionType": "CREATE",
      "contractName": "ProjectNFT",
      "contractAddress": "0xd5cf4958d34e87090be30fc1dc59b31b09868a4c",
      "function": null,
      "arguments": [
        "0x9EA593F2cBac4671268a609bBbd7276AeA7EB689",
        "0xf52dc6bD2Ed650372710e0C995E7F7d9F5eB113A"
      ],
      "transaction": {
        "from": "0x9ea593f2cbac4671268a609bbbd7276aea7eb689",
        "gas": "0x26491d",
        "value": "0x0",
        "input": "0x60a06040523480156200001157600080fd5b50604051620023df380380620023df8339810160408190526200003491620001e0565b6040518060400160405280601281526020017114dd1bdb58551c9858d948141c9bda9958dd60721b81525060405180604001604052806004815260200163053544d560e41b81525081600090816200008d9190620002bf565b5060016200009c8282620002bf565b5050506001600160a01b038216620000c7576040516311f604a960e11b815260040160405180910390fd5b6001600160a01b038116620000ef576040516311f604a960e11b815260040160405180910390fd5b620000fc60008362000110565b506001600160a01b0316608052506200038b565b60008281526006602090815260408083206001600160a01b038516845290915281205460ff16620001b95760008381526006602090815260408083206001600160a01b03861684529091529020805460ff19166001179055620001703390565b6001600160a01b0316826001600160a01b0316847f2f8788117e7eff1d82e926ec794901d17c78024a50270940304540a733656f0d60405160405180910390a4506001620001bd565b5060005b92915050565b80516001600160a01b0381168114620001db57600080fd5b919050565b60008060408385031215620001f457600080fd5b620001ff83620001c3565b91506200020f60208401620001c3565b90509250929050565b634e487b7160e01b600052604160045260246000fd5b600181811c908216806200024357607f821691505b6020821081036200026457634e487b7160e01b600052602260045260246000fd5b50919050565b601f821115620002ba576000816000526020600020601f850160051c81016020861015620002955750805b601f850160051c820191505b81811015620002b657828155600101620002a1565b5050505b505050565b81516001600160401b03811115620002db57620002db62000218565b620002f381620002ec84546200022e565b846200026a565b602080601f8311600181146200032b5760008415620003125750858301515b600019600386901b1c1916600185901b178555620002b6565b600085815260208120601f198616915b828110156200035c578886015182559484019460019091019084016200033b565b50858210156200037b5787850151600019600388901b60f8161c191681555b5050505050600190811b01905550565b608051612023620003bc60003960008181610401015281816108740152818161091b0152610c7401526120236000f3fe608060405234801561001057600080fd5b50600436106101cf5760003560e01c80636352211e11610104578063b88d4fde116100a2578063e6f29b0511610071578063e6f29b05146103fc578063e985e9c514610423578063ed1ca91a14610436578063f0f3f2c81461044957600080fd5b8063b88d4fde146103b0578063c071fc1d146103c3578063c87b56dd146103d6578063d547741f146103e957600080fd5b806391d14854116100de57806391d148541461037a57806395d89b411461038d578063a217fddf14610395578063a22cb4651461039d57600080fd5b80636352211e1461034157806369b04f191461035457806370a082311461036757600080fd5b80632f2ff15d116101715780633a1b3d311161014b5780633a1b3d31146102eb578063404ccd07146102fe57806342842e0e146103255780635696b1891461033857600080fd5b80632f2ff15d146102bc57806336568abe146102cf57806336fbad26146102e257600080fd5b8063081812fc116101ad578063081812fc14610246578063095ea7b31461027157806323b872dd14610286578063248a9ca31461029957600080fd5b806301ffc9a7146101d457806302d7fd92146101fc57806306fdde0314610231575b600080fd5b6101e76101e23660046118ae565b610469565b60405190151581526020015b60405180910390f35b6102237f811427a0fa4932aef534bba16bc34e9b7b2d7d2a79c475fca1765f6cc1faebea81565b6040519081526020016101f3565b61023961047a565b6040516101f39190611911565b610259610254366004611924565b61050c565b6040516001600160a01b0390911681526020016101f3565b61028461027f366004611959565b610535565b005b610284610294366004611983565b610544565b6102236102a7366004611924565b60009081526006602052604090206001015490565b6102846102ca3660046119bf565b6105d4565b6102846102dd3660046119bf565b6105f9565b61022360075481565b6102846102f93660046119eb565b610631565b6102237fb8179c2726c8d8961ef054875ab3f4c1c3d34e1cb429c3d5e0bc97958e4cab9d81565b610284610333366004611983565b6106c6565b610223611d4c81565b61025961034f366004611924565b6106e1565b610284610362366004611924565b6106ec565b610223610375366004611a1f565b6107b7565b6101e76103883660046119bf565b6107ff565b61023961082a565b610223600081565b6102846103ab366004611a48565b610839565b6102846103be366004611a8a565b610844565b6102236103d1366004611baf565b61085c565b6102396103e4366004611924565b610ce6565b6102846103f73660046119bf565b610d94565b6102597f000000000000000000000000000000000000000000000000000000000000000081565b6101e7610431366004611c58565b610db9565b610284610444366004611924565b610de7565b61045c610457366004611924565b610eb4565b6040516101f39190611cba565b6000610474826110a1565b92915050565b60606000805461048990611d97565b80601f01602080910402602001604051908101604052809291908181526020018280546104b590611d97565b80156105025780601f106104d757610100808354040283529160200191610502565b820191906000526020600020905b8154815290600101906020018083116104e557829003601f168201915b5050505050905090565b6000610517826110c6565b506000828152600460205260409020546001600160a01b0316610474565b6105408282336110ff565b5050565b6001600160a01b03821661057357604051633250574960e11b8152600060048201526024015b60405180910390fd5b600061058083833361110c565b9050836001600160a01b0316816001600160a01b0316146105ce576040516364283d7b60e01b81526001600160a01b038086166004830152602482018490528216604482015260640161056a565b50505050565b6000828152600660205260409020600101546105ef81611207565b6105ce8383611214565b6001600160a01b03811633146106225760405163334bd91960e11b815260040160405180910390fd5b61062c82826112a8565b505050565b7fb8179c2726c8d8961ef054875ab3f4c1c3d34e1cb429c3d5e0bc97958e4cab9d61065b81611207565b8161066584611315565b600901805461ff00191661010083600881111561068457610684611c82565b0217905550827f8fb6fda973f304b2834c4147004045448416c05b253872373ac5b19f4a5b7a5d836040516106b99190611dd1565b60405180910390a2505050565b61062c83838360405180602001604052806000815250610844565b600061047482611358565b7f811427a0fa4932aef534bba16bc34e9b7b2d7d2a79c475fca1765f6cc1faebea61071681611207565b600061072183611315565b905060006009820154610100900460ff16600881111561074357610743611c82565b1461077657828160090160019054906101000a900460ff16604051630dbe4e3160e11b815260040161056a929190611ddf565b60098101805461ff00191661080017905560405183907fcdcfe8bd58f12ac7a585895f7045b6322a1ec7e7179377dc3bfa8434ed22e72490600090a2505050565b60006001600160a01b0382166107e3576040516322718ad960e21b81526000600482015260240161056a565b506001600160a01b031660009081526003602052604090205490565b60009182526006602090815260408084206001600160a01b0393909316845291905290205460ff1690565b60606001805461048990611d97565b610540338383611363565b61084f848484610544565b6105ce3385858585611402565b604051630834e64160e21b81523360048201526000907f00000000000000000000000000000000000000000000000000000000000000006001600160a01b0316906320d3990490602401602060405180830381865afa1580156108c3573d6000803e3d6000fd5b505050506040513d601f19601f820116820180604052508101906108e79190611df3565b610906576040516367e804b360e11b815233600482015260240161056a565b60405163fe575a8760e01b81523360048201527f00000000000000000000000000000000000000000000000000000000000000006001600160a01b03169063fe575a8790602401602060405180830381865afa15801561096a573d6000803e3d6000fd5b505050506040513d601f19601f8201168201806040525081019061098e9190611df3565b156109ae576040516316a39ebd60e31b815233600482015260240161056a565b8615806109b9575085155b156109d757604051632513348d60e01b815260040160405180910390fd5b836000036109f857604051632513348d60e01b815260040160405180910390fd5b610e10851015610a1b5760405163012f1ac360e21b815260040160405180910390fd5b600760008154610a2a90611e26565b918290555090506000612710610a42611d4c89611e3f565b610a4c9190611e56565b9050604051806101600160405280336001600160a01b031681526020018c6001600160a01b031681526020018b8b8080601f016020809104026020016040519081016040528093929190818152602001838380828437600092019190915250505090825250602081018a90526040810189905260608101839052608001610ad38842611e78565b815260200186815260200185858080601f016020809104026020016040519081016040528093929190818152602001838380828437600092018290525093855250505060208201819052604090910152600083815260086020908152604091829020835181546001600160a01b03199081166001600160a01b0392831617835592850151600183018054909416911617909155908201516002820190610b799082611ed3565b50606082015160038201556080820151600482015560a0820151600582015560c0820151600682015560e082015160078201556101008201516008820190610bc19082611ed3565b5061012082015160098201805491151560ff198316811782556101408501519261ff001990911661ffff1990911617610100836008811115610c0557610c05611c82565b0217905550905050610c17338361152d565b60408051898152602081018390526001600160a01b038d1691339185917f10845ceb65e3c7739ad74f73b23a88e958137c3e9f90eddd610b0e8f59b24a51910160405180910390a46040516312dc412560e11b81523360048201527f00000000000000000000000000000000000000000000000000000000000000006001600160a01b0316906325b8824a90602401600060405180830381600087803b158015610cc057600080fd5b505af1158015610cd4573d6000803e3d6000fd5b50505050509998505050505050505050565b6060610cf1826110c6565b506000828152600860208190526040909120018054610d0f90611d97565b80601f0160208091040260200160405190810160405280929190818152602001828054610d3b90611d97565b8015610d885780601f10610d5d57610100808354040283529160200191610d88565b820191906000526020600020905b815481529060010190602001808311610d6b57829003601f168201915b50505050509050919050565b600082815260066020526040902060010154610daf81611207565b6105ce83836112a8565b6001600160a01b03918216600090815260056020908152604080832093909416825291909152205460ff1690565b7f811427a0fa4932aef534bba16bc34e9b7b2d7d2a79c475fca1765f6cc1faebea610e1181611207565b6000610e1c83611315565b905060006009820154610100900460ff166008811115610e3e57610e3e611c82565b14610e7157828160090160019054906101000a900460ff16604051630dbe4e3160e11b815260040161056a929190611ddf565b60098101805461ffff1916610101179055604051339084907fa8993bbe79af1071dc039c1144feccfba01680aa0fdd10a4e92f1a12533e895c90600090a3505050565b610ebc61181a565b610ec582611592565b60008281526008602090815260409182902082516101608101845281546001600160a01b039081168252600183015416928101929092526002810180549293919291840191610f1390611d97565b80601f0160208091040260200160405190810160405280929190818152602001828054610f3f90611d97565b8015610f8c5780601f10610f6157610100808354040283529160200191610f8c565b820191906000526020600020905b815481529060010190602001808311610f6f57829003601f168201915b505050505081526020016003820154815260200160048201548152602001600582015481526020016006820154815260200160078201548152602001600882018054610fd790611d97565b80601f016020809104026020016040519081016040528092919081815260200182805461100390611d97565b80156110505780601f1061102557610100808354040283529160200191611050565b820191906000526020600020905b81548152906001019060200180831161103357829003601f168201915b5050509183525050600982015460ff8082161515602084015260409092019161010090910416600881111561108757611087611c82565b600881111561109857611098611c82565b90525092915050565b60006001600160e01b03198216637965db0b60e01b14806104745750610474826115c1565b6000818152600260205260408120546001600160a01b03168061047457604051637e27328960e01b81526004810184905260240161056a565b61062c8383836001611611565b6000828152600260205260408120546001600160a01b039081169083161561113957611139818486611717565b6001600160a01b0381161561117757611156600085600080611611565b6001600160a01b038116600090815260036020526040902080546000190190555b6001600160a01b038516156111a6576001600160a01b0385166000908152600360205260409020805460010190555b60008481526002602052604080822080546001600160a01b0319166001600160a01b0389811691821790925591518793918516917fddf252ad1be2c89b69c2b068fc378daa952ba7f163c4a11628f55a4df523b3ef91a490505b9392505050565b611211813361177b565b50565b600061122083836107ff565b6112a05760008381526006602090815260408083206001600160a01b03861684529091529020805460ff191660011790556112583390565b6001600160a01b0316826001600160a01b0316847f2f8788117e7eff1d82e926ec794901d17c78024a50270940304540a733656f0d60405160405180910390a4506001610474565b506000610474565b60006112b483836107ff565b156112a05760008381526006602090815260408083206001600160a01b0386168085529252808320805460ff1916905551339286917ff6391f5c32d9c69d2a47ea670b442974b53935d1edc7fd64eb21e047a839171b9190a4506001610474565b6000811580611325575060075482115b1561134657604051636dd15c7f60e01b81526004810183905260240161056a565b50600090815260086020526040902090565b6000610474826110c6565b6001600160a01b03821661139557604051630b61174360e31b81526001600160a01b038316600482015260240161056a565b6001600160a01b03838116600081815260056020908152604080832094871680845294825291829020805460ff191686151590811790915591519182527f17307eab39ab6107e8899845ad3d59bd9653f200f220920489ca2b5937696c31910160405180910390a3505050565b6001600160a01b0383163b1561152657604051630a85bd0160e11b81526001600160a01b0384169063150b7a0290611444908890889087908790600401611f93565b6020604051808303816000875af192505050801561147f575060408051601f3d908101601f1916820190925261147c91810190611fd0565b60015b6114e8573d8080156114ad576040519150601f19603f3d011682016040523d82523d6000602084013e6114b2565b606091505b5080516000036114e057604051633250574960e11b81526001600160a01b038516600482015260240161056a565b805181602001fd5b6001600160e01b03198116630a85bd0160e11b1461152457604051633250574960e11b81526001600160a01b038516600482015260240161056a565b505b5050505050565b6001600160a01b03821661155757604051633250574960e11b81526000600482015260240161056a565b60006115658383600061110c565b90506001600160a01b0381161561062c576040516339e3563760e11b81526000600482015260240161056a565b8015806115a0575060075481115b1561121157604051636dd15c7f60e01b81526004810182905260240161056a565b60006001600160e01b031982166380ac58cd60e01b14806115f257506001600160e01b03198216635b5e139f60e01b145b8061047457506301ffc9a760e01b6001600160e01b0319831614610474565b808061162557506001600160a01b03821615155b156116e7576000611635846110c6565b90506001600160a01b038316158015906116615750826001600160a01b0316816001600160a01b031614155b801561167457506116728184610db9565b155b1561169d5760405163a9fbf51f60e01b81526001600160a01b038416600482015260240161056a565b81156116e55783856001600160a01b0316826001600160a01b03167f8c5be1e5ebec7d5bd14f71427d1e84f3dd0314c0f7b2291e5b200ac8c7c3b92560405160405180910390a45b505b5050600090815260046020526040902080546001600160a01b0319166001600160a01b0392909216919091179055565b6117228383836117b4565b61062c576001600160a01b03831661175057604051637e27328960e01b81526004810182905260240161056a565b60405163177e802f60e01b81526001600160a01b03831660048201526024810182905260440161056a565b61178582826107ff565b6105405760405163e2517d3f60e01b81526001600160a01b03821660048201526024810183905260440161056a565b60006001600160a01b038316158015906118125750826001600160a01b0316846001600160a01b031614806117ee57506117ee8484610db9565b8061181257506000828152600460205260409020546001600160a01b038481169116145b949350505050565b60405180610160016040528060006001600160a01b0316815260200160006001600160a01b03168152602001606081526020016000815260200160008152602001600081526020016000815260200160008152602001606081526020016000151581526020016000600881111561189357611893611c82565b905290565b6001600160e01b03198116811461121157600080fd5b6000602082840312156118c057600080fd5b813561120081611898565b6000815180845260005b818110156118f1576020818501810151868301820152016118d5565b506000602082860101526020601f19601f83011685010191505092915050565b60208152600061120060208301846118cb565b60006020828403121561193657600080fd5b5035919050565b80356001600160a01b038116811461195457600080fd5b919050565b6000806040838503121561196c57600080fd5b6119758361193d565b946020939093013593505050565b60008060006060848603121561199857600080fd5b6119a18461193d565b92506119af6020850161193d565b9150604084013590509250925092565b600080604083850312156119d257600080fd5b823591506119e26020840161193d565b90509250929050565b600080604083850312156119fe57600080fd5b82359150602083013560098110611a1457600080fd5b809150509250929050565b600060208284031215611a3157600080fd5b6112008261193d565b801515811461121157600080fd5b60008060408385031215611a5b57600080fd5b611a648361193d565b91506020830135611a1481611a3a565b634e487b7160e01b600052604160045260246000fd5b60008060008060808587031215611aa057600080fd5b611aa98561193d565b9350611ab76020860161193d565b925060408501359150606085013567ffffffffffffffff80821115611adb57600080fd5b818701915087601f830112611aef57600080fd5b813581811115611b0157611b01611a74565b604051601f8201601f19908116603f01168101908382118183101715611b2957611b29611a74565b816040528281528a6020848701011115611b4257600080fd5b82602086016020830137600060208483010152809550505050505092959194509250565b60008083601f840112611b7857600080fd5b50813567ffffffffffffffff811115611b9057600080fd5b602083019150836020828501011115611ba857600080fd5b9250929050565b600080600080600080600080600060e08a8c031215611bcd57600080fd5b611bd68a61193d565b985060208a013567ffffffffffffffff80821115611bf357600080fd5b611bff8d838e01611b66565b909a50985060408c0135975060608c0135965060808c0135955060a08c0135945060c08c0135915080821115611c3457600080fd5b50611c418c828d01611b66565b915080935050809150509295985092959850929598565b60008060408385031215611c6b57600080fd5b611c748361193d565b91506119e26020840161193d565b634e487b7160e01b600052602160045260246000fd5b60098110611cb657634e487b7160e01b600052602160045260246000fd5b9052565b60208152611cd46020820183516001600160a01b03169052565b60006020830151611cf060408401826001600160a01b03169052565b506040830151610160806060850152611d0d6101808501836118cb565b915060608501516080850152608085015160a085015260a085015160c085015260c085015160e085015260e0850151610100818187015280870151915050610120601f198685030181870152611d6384836118cb565b935080870151915050610140611d7c8187018315159052565b8601519050611d8d85830182611c98565b5090949350505050565b600181811c90821680611dab57607f821691505b602082108103611dcb57634e487b7160e01b600052602260045260246000fd5b50919050565b602081016104748284611c98565b828152604081016112006020830184611c98565b600060208284031215611e0557600080fd5b815161120081611a3a565b634e487b7160e01b600052601160045260246000fd5b600060018201611e3857611e38611e10565b5060010190565b808202811582820484141761047457610474611e10565b600082611e7357634e487b7160e01b600052601260045260246000fd5b500490565b8082018082111561047457610474611e10565b601f82111561062c576000816000526020600020601f850160051c81016020861015611eb45750805b601f850160051c820191505b8181101561152457828155600101611ec0565b815167ffffffffffffffff811115611eed57611eed611a74565b611f0181611efb8454611d97565b84611e8b565b602080601f831160018114611f365760008415611f1e5750858301515b600019600386901b1c1916600185901b178555611524565b600085815260208120601f198616915b82811015611f6557888601518255948401946001909101908401611f46565b5085821015611f835787850151600019600388901b60f8161c191681555b5050505050600190811b01905550565b6001600160a01b0385811682528416602082015260408101839052608060608201819052600090611fc6908301846118cb565b9695505050505050565b600060208284031215611fe257600080fd5b81516112008161189856fea26469706673582212201956c71caf26c04c2d4ad782e00b8a966d63502f78d958c8fea75147e5b6e8de64736f6c634300081800330000000000000000000000009ea593f2cbac4671268a609bbbd7276aea7eb689000000000000000000000000f52dc6bd2ed650372710e0c995e7f7d9f5eb113a",
        "nonce": "0x6e",
        "chainId": "0x66eee"
      },
      "additionalContracts": [],
      "isFixedGasLimit": false
    },
    {
      "hash": "0x92d6d275b82c596bd97a89d2e51e395831975cd00d8e201ef48561c1a8686716",
      "transactionType": "CREATE",
      "contractName": "Treasury",
      "contractAddress": "0xdd95c9d42df25c6b0db357099623fd4ab02a3e1d",
      "function": null,
      "arguments": [
        "0x9EA593F2cBac4671268a609bBbd7276AeA7EB689",
        "0x9EA593F2cBac4671268a609bBbd7276AeA7EB689"
      ],
      "transaction": {
        "from": "0x9ea593f2cbac4671268a609bbbd7276aea7eb689",
        "gas": "0xe0dec",
        "value": "0x0",
        "input": "0x608060405234801561001057600080fd5b50604051610c34380380610c3483398101604081905261002f916101a5565b600180556001600160a01b03821661005a5760405163c7bd9f1560e01b815260040160405180910390fd5b6001600160a01b0381166100815760405163c7bd9f1560e01b815260040160405180910390fd5b61008c6000836100dd565b50600380546001600160a01b0319166001600160a01b0383169081179091556040516000907ff84f6b525c89a18c80bbbc0c62a7eb5390956d6b8432ab067b49963a98f8c38f908290a350506101d8565b6000828152602081815260408083206001600160a01b038516845290915281205460ff1661017f576000838152602081815260408083206001600160a01b03861684529091529020805460ff191660011790556101373390565b6001600160a01b0316826001600160a01b0316847f2f8788117e7eff1d82e926ec794901d17c78024a50270940304540a733656f0d60405160405180910390a4506001610183565b5060005b92915050565b80516001600160a01b03811681146101a057600080fd5b919050565b600080604083850312156101b857600080fd5b6101c183610189565b91506101cf60208401610189565b90509250929050565b610a4d806101e76000396000f3fe608060405234801561001057600080fd5b50600436106100ea5760003560e01c80638831e9cf1161008c578063cd88af6e11610066578063cd88af6e14610217578063d547741f1461022a578063eb65fe231461023d578063fa2af9da1461025057600080fd5b80638831e9cf146101e957806391d14854146101fc578063a217fddf1461020f57600080fd5b8063248a9ca3116100c8578063248a9ca3146101775780632f2ff15d1461019a57806336568abe146101af578063404ccd07146101c257600080fd5b806301ffc9a7146100ef57806308e8e34d1461011757806320df435914610150575b600080fd5b6101026100fd3660046108e8565b61027b565b60405190151581526020015b60405180910390f35b610142610125366004610935565b600260209081526000928352604080842090915290825290205481565b60405190815260200161010e565b6101427fbf233dd2aafeb4d50879c4aa5c81e96d92f6e6945c906a58f9f2d1c1631b4b2681565b610142610185366004610961565b60009081526020819052604090206001015490565b6101ad6101a8366004610935565b6102b2565b005b6101ad6101bd366004610935565b6102dd565b6101427fb8179c2726c8d8961ef054875ab3f4c1c3d34e1cb429c3d5e0bc97958e4cab9d81565b6101ad6101f736600461097a565b610315565b61010261020a366004610935565b61039a565b610142600081565b6101ad610225366004610995565b6103c3565b6101ad610238366004610935565b6104ea565b6101ad61024b366004610995565b61050f565b600354610263906001600160a01b031681565b6040516001600160a01b03909116815260200161010e565b60006001600160e01b03198216637965db0b60e01b14806102ac57506301ffc9a760e01b6001600160e01b03198316145b92915050565b6000828152602081905260409020600101546102cd816106b4565b6102d783836106c1565b50505050565b6001600160a01b03811633146103065760405163334bd91960e11b815260040160405180910390fd5b6103108282610753565b505050565b6000610320816106b4565b6001600160a01b0382166103475760405163c7bd9f1560e01b815260040160405180910390fd5b600380546001600160a01b038481166001600160a01b0319831681179093556040519116919082907ff84f6b525c89a18c80bbbc0c62a7eb5390956d6b8432ab067b49963a98f8c38f90600090a3505050565b6000918252602082815260408084206001600160a01b0393909316845291905290205460ff1690565b7fb8179c2726c8d8961ef054875ab3f4c1c3d34e1cb429c3d5e0bc97958e4cab9d6103ed816106b4565b6001600160a01b0384166104145760405163c7bd9f1560e01b815260040160405180910390fd5b6001600160a01b03821661043b5760405163c7bd9f1560e01b815260040160405180910390fd5b8260000361045c57604051631ed8e2fd60e21b815260040160405180910390fd5b60008581526002602090815260408083206001600160a01b03881684529091528120805485929061048e9084906109f1565b92505081905550816001600160a01b0316846001600160a01b0316867f984a71c9d95fd4794aeba33ae72edfec22053fde75488d63abef9dc69ee795af866040516104db91815260200190565b60405180910390a45050505050565b600082815260208190526040902060010154610505816106b4565b6102d78383610753565b7fb8179c2726c8d8961ef054875ab3f4c1c3d34e1cb429c3d5e0bc97958e4cab9d610539816106b4565b6105416107be565b6001600160a01b0384166105685760405163c7bd9f1560e01b815260040160405180910390fd5b6001600160a01b03821661058f5760405163c7bd9f1560e01b815260040160405180910390fd5b826000036105b057604051631ed8e2fd60e21b815260040160405180910390fd5b60008581526002602090815260408083206001600160a01b0388168452909152902054808411156106195760405163e3c322af60e01b8152600481018790526001600160a01b038616602482015260448101859052606481018290526084015b60405180910390fd5b6106238482610a04565b60008781526002602090815260408083206001600160a01b038a168085529252909120919091556106559084866107e8565b826001600160a01b0316856001600160a01b0316877fbe9955ede01f89429605b39b8541dc3efb42abc6215925c50e35c676e9e06f888760405161069b91815260200190565b60405180910390a4506106ad60018055565b5050505050565b6106be813361083a565b50565b60006106cd838361039a565b61074b576000838152602081815260408083206001600160a01b03861684529091529020805460ff191660011790556107033390565b6001600160a01b0316826001600160a01b0316847f2f8788117e7eff1d82e926ec794901d17c78024a50270940304540a733656f0d60405160405180910390a45060016102ac565b5060006102ac565b600061075f838361039a565b1561074b576000838152602081815260408083206001600160a01b0386168085529252808320805460ff1916905551339286917ff6391f5c32d9c69d2a47ea670b442974b53935d1edc7fd64eb21e047a839171b9190a45060016102ac565b6002600154036107e157604051633ee5aeb560e01b815260040160405180910390fd5b6002600155565b604080516001600160a01b038416602482015260448082018490528251808303909101815260649091019091526020810180516001600160e01b031663a9059cbb60e01b179052610310908490610877565b610844828261039a565b6108735760405163e2517d3f60e01b81526001600160a01b038216600482015260248101839052604401610610565b5050565b600080602060008451602086016000885af18061089a576040513d6000823e3d81fd5b50506000513d915081156108b25780600114156108bf565b6001600160a01b0384163b155b156102d757604051635274afe760e01b81526001600160a01b0385166004820152602401610610565b6000602082840312156108fa57600080fd5b81356001600160e01b03198116811461091257600080fd5b9392505050565b80356001600160a01b038116811461093057600080fd5b919050565b6000806040838503121561094857600080fd5b8235915061095860208401610919565b90509250929050565b60006020828403121561097357600080fd5b5035919050565b60006020828403121561098c57600080fd5b61091282610919565b600080600080608085870312156109ab57600080fd5b843593506109bb60208601610919565b9250604085013591506109d060608601610919565b905092959194509250565b634e487b7160e01b600052601160045260246000fd5b808201808211156102ac576102ac6109db565b818103818111156102ac576102ac6109db56fea26469706673582212207e9ecdd6bd55bc84b5808fe434d21d24fca5e36c94361b23ec88c97a5e54f22a64736f6c634300081800330000000000000000000000009ea593f2cbac4671268a609bbbd7276aea7eb6890000000000000000000000009ea593f2cbac4671268a609bbbd7276aea7eb689",
        "nonce": "0x6f",
        "chainId": "0x66eee"
      },
      "additionalContracts": [],
      "isFixedGasLimit": false
    },
    {
      "hash": "0xad36776e2ea9d99198473132f09f76524a8e11a5fc9fbf6fc45477b269fc2910",
      "transactionType": "CREATE",
      "contractName": "LendingPool",
      "contractAddress": "0xd3b0f32ae7b26abebce4c0ced34428a16026f228",
      "function": null,
      "arguments": [
        "0x9EA593F2cBac4671268a609bBbd7276AeA7EB689",
        "0xd5cF4958d34E87090BE30fC1Dc59b31B09868A4c",
        "0xdd95C9d42Df25c6b0dB357099623fD4AB02a3e1D",
        "0xf52dc6bD2Ed650372710e0C995E7F7d9F5eB113A",
        "0x9EA593F2cBac4671268a609bBbd7276AeA7EB689"
      ],
      "transaction": {
        "from": "0x9ea593f2cbac4671268a609bbbd7276aea7eb689",
        "gas": "0x33aa1d",
        "value": "0x0",
        "input": "0x60806040523480156200001157600080fd5b5060405162002dcb38038062002dcb833981016040819052620000349162000238565b600180556001600160a01b038516620000605760405163bce473f560e01b815260040160405180910390fd5b6001600160a01b038416620000885760405163bce473f560e01b815260040160405180910390fd5b6001600160a01b038316620000b05760405163bce473f560e01b815260040160405180910390fd5b6001600160a01b038216620000d85760405163bce473f560e01b815260040160405180910390fd5b6001600160a01b038116620001005760405163bce473f560e01b815260040160405180910390fd5b6200010d6000866200016c565b50600280546001600160a01b0395861661010002610100600160a81b0319909116179055600380549385166001600160a01b031994851617905560048054928516928416929092179091556005805491909316911617905550620002a8565b6000828152602081815260408083206001600160a01b038516845290915281205460ff1662000211576000838152602081815260408083206001600160a01b03861684529091529020805460ff19166001179055620001c83390565b6001600160a01b0316826001600160a01b0316847f2f8788117e7eff1d82e926ec794901d17c78024a50270940304540a733656f0d60405160405180910390a450600162000215565b5060005b92915050565b80516001600160a01b03811681146200023357600080fd5b919050565b600080600080600060a086880312156200025157600080fd5b6200025c866200021b565b94506200026c602087016200021b565b93506200027c604087016200021b565b92506200028c606087016200021b565b91506200029c608087016200021b565b90509295509295909350565b612b1380620002b86000396000f3fe608060405234801561001057600080fd5b50600436106102065760003560e01c80638456cb591161011a578063c997dbca116100ad578063e6f29b051161007c578063e6f29b051461049c578063f0f3f2c8146104af578063f5b541a6146104cf578063f949c88e146104e4578063fa2af9da146104fc57600080fd5b8063c997dbca14610450578063cc212a4814610463578063d547741f14610476578063d87aa6431461048957600080fd5b8063a217fddf116100e9578063a217fddf14610423578063ab473f481461042b578063b87209531461043e578063c1a287e21461044657600080fd5b80638456cb59146103ed5780638831e9cf146103f557806391518efa1461040857806391d148541461041057600080fd5b806343d6f88b1161019d5780636439de0b1161016c5780636439de0b146103715780636ce12c351461038457806370bbfa26146103a457806373216450146103b757806382dc4a05146103ca57600080fd5b806343d6f88b1461031f5780635696b189146103325780635c975abb1461033b57806361d027b31461034657600080fd5b806336fbad26116101d957806336fbad261461028c5780633b345a87146102945780633f4ba83a146102f757806341d9d6a4146102ff57600080fd5b806301ffc9a71461020b578063248a9ca3146102335780632f2ff15d1461026457806336568abe14610279575b600080fd5b61021e610219366004612381565b61050f565b60405190151581526020015b60405180910390f35b6102566102413660046123b2565b60009081526020819052604090206001015490565b60405190815260200161022a565b6102776102723660046123e0565b610546565b005b6102776102873660046123e0565b610571565b6102566105a9565b6102a76102a23660046123b2565b610627565b60405161022a9190600060c0820190508251825260208301516020830152604083015160408301526060830151606083015260808301511515608083015260a0830151151560a083015292915050565b6102776106c8565b61031261030d3660046123b2565b6106de565b60405161022a9190612410565b61027761032d3660046123b2565b610782565b610256611d4c81565b60025460ff1661021e565b600354610359906001600160a01b031681565b6040516001600160a01b03909116815260200161022a565b61027761037f366004612487565b610948565b6103976103923660046123e0565b610d12565b60405161022a91906124a9565b6102776103b23660046123b2565b610e0a565b6102776103c53660046123b2565b611062565b61021e6103d83660046124df565b600a6020526000908152604090205460ff1681565b61027761120e565b6102776104033660046124df565b61122e565b610256603281565b61021e61041e3660046123e0565b6112ab565b610256600081565b6102776104393660046123b2565b6112d4565b610256609681565b61025662093a8081565b61027761045e36600461250a565b611414565b6102776104713660046123b2565b6114a6565b6102776104843660046123e0565b611694565b610277610497366004612487565b6116b9565b600454610359906001600160a01b031681565b6104c26104bd3660046123b2565b611a43565b60405161022a91906125c0565b610256600080516020612abe83398151915281565b6002546103599061010090046001600160a01b031681565b600554610359906001600160a01b031681565b60006001600160e01b03198216637965db0b60e01b148061054057506301ffc9a760e01b6001600160e01b03198316145b92915050565b60008281526020819052604090206001015461056181611bd4565b61056b8383611bde565b50505050565b6001600160a01b038116331461059a5760405163334bd91960e11b815260040160405180910390fd5b6105a48282611c70565b505050565b6000600260019054906101000a90046001600160a01b03166001600160a01b03166336fbad266040518163ffffffff1660e01b8152600401602060405180830381865afa1580156105fe573d6000803e3d6000fd5b505050506040513d601f19601f8201168201806040525081019061062291906126c6565b905090565b6106646040518060c00160405280600081526020016000815260200160008152602001600081526020016000151581526020016000151581525090565b50600090815260096020908152604091829020825160c081018452815481526001820154928101929092526002810154928201929092526003820154606082015260049091015460ff8082161515608084015261010090910416151560a082015290565b60006106d381611bd4565b6106db611cdb565b50565b60606106e982611d2d565b600082815260076020908152604080832080548251818502810185019093528083529193909284015b82821015610777576000848152602090819020604080516080810182526003860290920180546001600160a01b0381168452600160a01b900460ff16151583850152600180820154928401929092526002015460608301529083529092019101610712565b505050509050919050565b61078a611dd0565b600061079582611dfa565b90506107a082611f1a565b600581610140015160088111156107b9576107b9612588565b146107e85761014081015160405163e6a4d6b160e01b81526107df9184916004016126df565b60405180910390fd5b6000828152600960205260409020600481015460ff1661081e5760405163568090d760e01b8152600481018490526024016107df565b80600201546000036108465760405163f890aa8960e01b8152600481018490526024016107df565b6004810154610100900460ff161561087457604051632acfd76760e21b8152600481018490526024016107df565b60028101546004808301805461ff001916610100179055600354602085015160405163eb65fe2360e01b81526001600160a01b039092169263eb65fe23926108c492899290918791339101612717565b600060405180830381600087803b1580156108de57600080fd5b505af11580156108f2573d6000803e3d6000fd5b50506040518381523392508691507f4027e6bdd92c1f92f3aeebaaf6b5b09061c496545a98bc4cf05b8bfcd55e49959060200160405180910390a361093c84846000015184611fbc565b5050506106db60018055565b600080516020612abe83398151915261096081611bd4565b610968611dd0565b8160000361098957604051630e64664160e31b815260040160405180910390fd5b600061099484611dfa565b9050600481610140015160088111156109af576109af612588565b146109d55761014081015160405163e6a4d6b160e01b81526107df91869160040161273e565b60008481526006602052604081205460608301519091906109f89060329061278e565b610a0290836127a5565b9050600060968460600151610a17919061278e565b90506000610a2582846127a5565b90506000806000838a10610a4a57859250849150610a43848b6127b8565b9050610a73565b858a10610a6957859250610a5e838b6127b8565b915060009050610a73565b5088915060009050805b60008b8152600660205260409081902060029081018c9055549051633a1b3d3160e01b81526101009091046001600160a01b031690633a1b3d3190610abf908e906005906004016127cb565b600060405180830381600087803b158015610ad957600080fd5b505af1158015610aed573d6000803e3d6000fd5b50505060008c815260096020526040812085815560018082018690556002820185905560048201805460ff191690911790559150829003610b3a5760048101805461ff0019166101001790555b8b7f2f993d17854d66ef056b6ef819c1737cb46ec800945db4708d45078d04315b2c8c604051610b6c91815260200190565b60405180910390a260408051858152602081018590529081018390528c907f749b2ac8562325522ef7e1cba0d73b4a39482ab91e980ceb669fb9913a6f93fb9060600160405180910390a260035460208a0151610bd8916001600160a01b03918216913391168e6120e5565b600360009054906101000a90046001600160a01b03166001600160a01b031663cd88af6e8d8b602001518e336040518563ffffffff1660e01b8152600401610c239493929190612717565b600060405180830381600087803b158015610c3d57600080fd5b505af1158015610c51573d6000803e3d6000fd5b505050506000831115610cf157600360009054906101000a90046001600160a01b03166001600160a01b031663eb65fe238d8b6020015186600560009054906101000a90046001600160a01b03166040518563ffffffff1660e01b8152600401610cbe9493929190612717565b600060405180830381600087803b158015610cd857600080fd5b505af1158015610cec573d6000803e3d6000fd5b505050505b610d008c8a6000015183611fbc565b5050505050505050506105a460018055565b604080516080810182526000808252602080830182905282840182905260608301829052858252600881528382206001600160a01b03861683529052918220549091819003610d865760405163446ae6cf60e01b8152600481018590526001600160a01b03841660248201526044016107df565b6000848152600760205260409020610d9f6001836127b8565b81548110610daf57610daf6127df565b60009182526020918290206040805160808101825260039390930290910180546001600160a01b0381168452600160a01b900460ff161515938301939093526001830154908201526002909101546060820152949350505050565b610e12611dd0565b6000610e1d82611dfa565b905060058161014001516008811115610e3857610e38612588565b14610e5e5761014081015160405163e6a4d6b160e01b81526107df9184916004016126df565b6000828152600960205260409020600481015460ff16610e945760405163568090d760e01b8152600481018490526024016107df565b600083815260086020908152604080832033845290915281205490819003610ed85760405163446ae6cf60e01b8152600481018590523360248201526044016107df565b6000848152600760205260408120610ef16001846127b8565b81548110610f0157610f016127df565b600091825260209091206003909102018054909150600160a01b900460ff1615610f475760405163bdb2bee960e01b8152600481018690523360248201526044016107df565b60008581526006602052604081205460018301548554610f67919061278e565b610f7191906127f5565b825460ff60a01b1916600160a01b1783556003850180549192506000610f9683612817565b9091555050801561100e57600354602086015160405163eb65fe2360e01b81526001600160a01b039092169163eb65fe2391610fdb918a919086903390600401612717565b600060405180830381600087803b158015610ff557600080fd5b505af1158015611009573d6000803e3d6000fd5b505050505b604051818152339087907f79d958b8da0734cba9f6b26dd6d4fd1b7d477b0df323472f172d906d8ed240219060200160405180910390a361105486866000015186611fbc565b50505050506106db60018055565b600080516020612abe83398151915261107a81611bd4565b600061108583611dfa565b9050600481610140015160088111156110a0576110a0612588565b146110c65761014081015160405163e6a4d6b160e01b81526107df91859160040161273e565b6000838152600660205260408120600101546110e69062093a80906127a5565b905080421161111257604051636bdd234d60e11b815260048101859052602481018290526044016107df565b600254604051633a1b3d3160e01b81526101009091046001600160a01b031690633a1b3d31906111499087906006906004016127cb565b600060405180830381600087803b15801561116357600080fd5b505af1158015611177573d6000803e3d6000fd5b50506040518692507f078e7947db4cc6eb4f735e5c8c3d7f226038b73127671c30419fc6570c51ec799150600090a2600480548351604051639855f93760e01b81526001600160a01b03918216938101939093521690639855f93790602401600060405180830381600087803b1580156111f057600080fd5b505af1158015611204573d6000803e3d6000fd5b5050505050505050565b600080516020612abe83398151915261122681611bd4565b6106db61213f565b600061123981611bd4565b6001600160a01b0382166112605760405163bce473f560e01b815260040160405180910390fd5b600580546001600160a01b0319166001600160a01b0384169081179091556040517f0c7dd120b8e93acfeb4b1c7e9b4a2a9e092f618597b362feb978583eeb4906e490600090a25050565b6000918252602082815260408084206001600160a01b0393909316845291905290205460ff1690565b60006112df82611dfa565b90506112ea82611f1a565b6001816101400151600881111561130357611303612588565b146113295761014081015160405163e6a4d6b160e01b81526107df918491600401612830565b600082815260066020526040812054900361135a5760405163b9d0a4b560e01b8152600481018390526024016107df565b600254604051633a1b3d3160e01b81526101009091046001600160a01b031690633a1b3d31906113919085906003906004016127cb565b600060405180830381600087803b1580156113ab57600080fd5b505af11580156113bf573d6000803e3d6000fd5b5050506000838152600660205260409081902054905133925084917ff6641c35b4367ba0211bcf4d619e421e12c8466f3fd43189ee927dda8c50d1f49161140891815260200190565b60405180910390a35050565b600061141f81611bd4565b6001600160a01b0383166114465760405163bce473f560e01b815260040160405180910390fd5b6001600160a01b0383166000818152600a6020908152604091829020805460ff191686151590811790915591519182527f41e60d181306b4838cb2b18f318e3a9ba536d93ccdb1ec613c048faa097c18dd910160405180910390a2505050565b600080516020612abe8339815191526114be81611bd4565b6114c6611dd0565b60006114d183611dfa565b9050600281610140015160088111156114ec576114ec612588565b1415801561151157506003816101400151600881111561150e5761150e612588565b14155b156115375761014081015160405163e6a4d6b160e01b81526107df918591600401612865565b6000838152600660205260409020805460e083015161155690426127a5565b6001830155600254604051633a1b3d3160e01b81526101009091046001600160a01b031690633a1b3d319061159190889060049081016127cb565b600060405180830381600087803b1580156115ab57600080fd5b505af11580156115bf573d6000803e3d6000fd5b5050505082600001516001600160a01b0316857f0ee83620b7aab7d22ea6be3695560b2b3c205a2271fe9db69335b59995366db5838560010154604051611610929190918252602082015260400190565b60405180910390a36003546020840151845160405163eb65fe2360e01b81526001600160a01b039093169263eb65fe2392611652928a92879190600401612717565b600060405180830381600087803b15801561166c57600080fd5b505af1158015611680573d6000803e3d6000fd5b5050505050505061169060018055565b5050565b6000828152602081905260409020600101546116af81611bd4565b61056b8383611c70565b6116c1611dd0565b6116c961217c565b806000036116ea57604051630e64664160e31b815260040160405180910390fd5b60006116f583611dfa565b90506001816101400151600881111561171057611710612588565b146117365761014081015160405163e6a4d6b160e01b81526107df918591600401612830565b6020808201516001600160a01b03166000908152600a909152604090205460ff1661178457602081015160405162f0f1e360e61b81526001600160a01b0390911660048201526024016107df565b8060c0015142106117b85760c08101516040516317eecd2f60e21b81526107df918591600401918252602082015260400190565b6000838152600860209081526040808320338452909152902054156117f957604051630c92e12f60e21b8152600481018490523360248201526044016107df565b6000838152600660205260408120805460a084015191929161181b91906127b8565b9050808411156118485760405163e748fdd360e01b815260048101859052602481018290526044016107df565b8382600001600082825461185c91906127a5565b909155505060008581526007602090815260408083208151608081018352338082528185018681528285018b81524260608501908152855460018082018855878b52898b2096516003909202909601805494511515600160a01b026001600160a81b03199095166001600160a01b0390921691909117939093178355905193820193909355915160029092019190915589855290546008845282852082865284529382902093909355845481518881529283015287917f271dec505c61c970bdd791a963b7162d814edf6292f40c4beef2af1e48eea1e8910160405180910390a360a08301518254036119e85760028054604051633a1b3d3160e01b81526101009091046001600160a01b031691633a1b3d319161197e9189916004016127cb565b600060405180830381600087803b15801561199857600080fd5b505af11580156119ac573d6000803e3d6000fd5b505083546040519081528792507fd705bcb576083465c6c0df050df01f8de1ff0ce063824a350a69601ccf68f7f8915060200160405180910390a25b6003546020840151611a09916001600160a01b0391821691339116876120e5565b60035460208401516040516366c457b760e11b81526001600160a01b039092169163cd88af6e916116529189919089903390600401612717565b611a4b61226f565b611a5482611d2d565b600254604051631e1e7e5960e31b81526004810184905260009161010090046001600160a01b03169063f0f3f2c890602401600060405180830381865afa158015611aa3573d6000803e3d6000fd5b505050506040513d6000823e601f3d908101601f19168201604052611acb919081019061298e565b905060006006600085815260200190815260200160002060405180606001604052908160008201548152602001600182015481526020016002820154815250509050604051806101c0016040528083600001516001600160a01b0316815260200183602001516001600160a01b031681526020018360400151815260200183606001518152602001836080015181526020018360a001518152602001826000015181526020018360c0015181526020018360e0015181526020018260200151815260200182604001518152602001836101200151151581526020018361014001516008811115611bbd57611bbd612588565b815260200183610100015181525092505050919050565b6106db81336121a2565b6000611bea83836112ab565b611c68576000838152602081815260408083206001600160a01b03861684529091529020805460ff19166001179055611c203390565b6001600160a01b0316826001600160a01b0316847f2f8788117e7eff1d82e926ec794901d17c78024a50270940304540a733656f0d60405160405180910390a4506001610540565b506000610540565b6000611c7c83836112ab565b15611c68576000838152602081815260408083206001600160a01b0386168085529252808320805460ff1916905551339286917ff6391f5c32d9c69d2a47ea670b442974b53935d1edc7fd64eb21e047a839171b9190a4506001610540565b611ce36121db565b6002805460ff191690557f5db9ee0a495bf2e6ff9c91a7834c1ba4fdd244a5e8aa4e537bd38aeae4b073aa335b6040516001600160a01b03909116815260200160405180910390a1565b801580611daf5750600260019054906101000a90046001600160a01b03166001600160a01b03166336fbad266040518163ffffffff1660e01b8152600401602060405180830381865afa158015611d88573d6000803e3d6000fd5b505050506040513d601f19601f82011682018060405250810190611dac91906126c6565b81115b156106db5760405163312b090760e01b8152600481018290526024016107df565b600260015403611df357604051633ee5aeb560e01b815260040160405180910390fd5b6002600155565b611e02612303565b811580611e845750600260019054906101000a90046001600160a01b03166001600160a01b03166336fbad266040518163ffffffff1660e01b8152600401602060405180830381865afa158015611e5d573d6000803e3d6000fd5b505050506040513d601f19601f82011682018060405250810190611e8191906126c6565b82115b15611ea55760405163312b090760e01b8152600481018390526024016107df565b600254604051631e1e7e5960e31b8152600481018490526101009091046001600160a01b03169063f0f3f2c890602401600060405180830381865afa158015611ef2573d6000803e3d6000fd5b505050506040513d6000823e601f3d908101601f19168201604052610540919081019061298e565b6002546040516331a9108f60e11b815260048101839052339161010090046001600160a01b031690636352211e90602401602060405180830381865afa158015611f68573d6000803e3d6000fd5b505050506040513d601f19601f82011682018060405250810190611f8c9190612aa0565b6001600160a01b0316146106db57604051633816672560e21b8152600481018290523360248201526044016107df565b6004810154610100900460ff168015611fe657506000838152600760205260409020546003820154145b156105a457600254604051633a1b3d3160e01b81526101009091046001600160a01b031690633a1b3d31906120229086906007906004016127cb565b600060405180830381600087803b15801561203c57600080fd5b505af1158015612050573d6000803e3d6000fd5b50506040518592507f60d8df137e489b6216738e436244ca4700bd6d0c8371d3c8d9c80b54538111b99150600090a2600480546040516326909c7d60e01b81526001600160a01b03858116938201939093529116906326909c7d90602401600060405180830381600087803b1580156120c857600080fd5b505af11580156120dc573d6000803e3d6000fd5b50505050505050565b604080516001600160a01b0385811660248301528416604482015260648082018490528251808303909101815260849091019091526020810180516001600160e01b03166323b872dd60e01b17905261056b9085906121fe565b61214761217c565b6002805460ff191660011790557f62e78cea01bee320cd4e420270b5ea74000d11b0c9f74754ebdbfc544b05a258611d103390565b60025460ff16156121a05760405163d93c066560e01b815260040160405180910390fd5b565b6121ac82826112ab565b6116905760405163e2517d3f60e01b81526001600160a01b0382166004820152602481018390526044016107df565b60025460ff166121a057604051638dfc202b60e01b815260040160405180910390fd5b600080602060008451602086016000885af180612221576040513d6000823e3d81fd5b50506000513d91508115612239578060011415612246565b6001600160a01b0384163b155b1561056b57604051635274afe760e01b81526001600160a01b03851660048201526024016107df565b604051806101c0016040528060006001600160a01b0316815260200160006001600160a01b03168152602001606081526020016000815260200160008152602001600081526020016000815260200160008152602001600081526020016000815260200160008152602001600015158152602001600060088111156122f6576122f6612588565b8152602001606081525090565b60405180610160016040528060006001600160a01b0316815260200160006001600160a01b03168152602001606081526020016000815260200160008152602001600081526020016000815260200160008152602001606081526020016000151581526020016000600881111561237c5761237c612588565b905290565b60006020828403121561239357600080fd5b81356001600160e01b0319811681146123ab57600080fd5b9392505050565b6000602082840312156123c457600080fd5b5035919050565b6001600160a01b03811681146106db57600080fd5b600080604083850312156123f357600080fd5b823591506020830135612405816123cb565b809150509250929050565b6020808252825182820181905260009190848201906040850190845b8181101561247b5761246883855180516001600160a01b0316825260208082015115159083015260408082015190830152606090810151910152565b928401926080929092019160010161242c565b50909695505050505050565b6000806040838503121561249a57600080fd5b50508035926020909101359150565b81516001600160a01b03168152602080830151151590820152604080830151908201526060808301519082015260808101610540565b6000602082840312156124f157600080fd5b81356123ab816123cb565b80151581146106db57600080fd5b6000806040838503121561251d57600080fd5b8235612528816123cb565b91506020830135612405816124fc565b60005b8381101561255357818101518382015260200161253b565b50506000910152565b60008151808452612574816020860160208601612538565b601f01601f19169290920160200192915050565b634e487b7160e01b600052602160045260246000fd5b600981106125bc57634e487b7160e01b600052602160045260246000fd5b9052565b602081526125da6020820183516001600160a01b03169052565b600060208301516125f660408401826001600160a01b03169052565b5060408301516101c08060608501526126136101e085018361255c565b915060608501516080850152608085015160a085015260a085015160c085015260c085015160e085015260e085015161010081818701528087015191505061012081818701528087015191505061014081818701528087015191505061016081818701528087015191505061018061268e8187018315159052565b86015190506101a06126a28682018361259e565b860151858403601f19018387015290506126bc838261255c565b9695505050505050565b6000602082840312156126d857600080fd5b5051919050565b8281526126ef602082018361259e565b6060604082018190526007908201526614d1551513115160ca1b608082015260a00192915050565b9384526001600160a01b039283166020850152604084019190915216606082015260800190565b82815261274e602082018361259e565b60606040820181905260099082015268111254d0955494d15160ba1b608082015260a00192915050565b634e487b7160e01b600052601160045260246000fd5b808202811582820484141761054057610540612778565b8082018082111561054057610540612778565b8181038181111561054057610540612778565b828152604081016123ab602083018461259e565b634e487b7160e01b600052603260045260246000fd5b60008261281257634e487b7160e01b600052601260045260246000fd5b500490565b60006001820161282957612829612778565b5060010190565b828152612840602082018361259e565b6060604082018190526004908201526327a822a760e11b608082015260a00192915050565b828152612875602082018361259e565b6060604082018190526010908201526f119553911151081bdc8810d313d4d15160821b608082015260a00192915050565b634e487b7160e01b600052604160045260246000fd5b604051610160810167ffffffffffffffff811182821017156128e0576128e06128a6565b60405290565b80516128f1816123cb565b919050565b600082601f83011261290757600080fd5b815167ffffffffffffffff80821115612922576129226128a6565b604051601f8301601f19908116603f0116810190828211818310171561294a5761294a6128a6565b8160405283815286602085880101111561296357600080fd5b6126bc846020830160208901612538565b80516128f1816124fc565b8051600981106128f157600080fd5b6000602082840312156129a057600080fd5b815167ffffffffffffffff808211156129b857600080fd5b9083019061016082860312156129cd57600080fd5b6129d56128bc565b6129de836128e6565b81526129ec602084016128e6565b6020820152604083015182811115612a0357600080fd5b612a0f878286016128f6565b604083015250606083015160608201526080830151608082015260a083015160a082015260c083015160c082015260e083015160e08201526101008084015183811115612a5b57600080fd5b612a67888287016128f6565b8284015250506101209150612a7d828401612974565b828201526101409150612a9182840161297f565b91810191909152949350505050565b600060208284031215612ab257600080fd5b81516123ab816123cb56fe97667070c54ef182b0f5858b034beac1b6f3089aa2d3188bb1e8929f4fa9b929a2646970667358221220598d23b4404b426ad6fe006dea81bc5e5e4d55d2a892754242e6df0cf8d1baef64736f6c634300081800330000000000000000000000009ea593f2cbac4671268a609bbbd7276aea7eb689000000000000000000000000d5cf4958d34e87090be30fc1dc59b31b09868a4c000000000000000000000000dd95c9d42df25c6b0db357099623fd4ab02a3e1d000000000000000000000000f52dc6bd2ed650372710e0c995e7f7d9f5eb113a0000000000000000000000009ea593f2cbac4671268a609bbbd7276aea7eb689",
        "nonce": "0x70",
        "chainId": "0x66eee"
      },
      "additionalContracts": [],
      "isFixedGasLimit": false
    },
    {
      "hash": "0xc92d1082b241b0511321b6dd7f6f09b4f116c4c30de9edb2f9189b5a4697db5e",
      "transactionType": "CALL",
      "contractName": "AccessRegistry",
      "contractAddress": "0xf52dc6bd2ed650372710e0c995e7f7d9f5eb113a",
      "function": "grantRole(bytes32,address)",
      "arguments": [
        "0x811427a0fa4932aef534bba16bc34e9b7b2d7d2a79c475fca1765f6cc1faebea",
        "0x9EA593F2cBac4671268a609bBbd7276AeA7EB689"
      ],
      "transaction": {
        "from": "0x9ea593f2cbac4671268a609bbbd7276aea7eb689",
        "to": "0xf52dc6bd2ed650372710e0c995e7f7d9f5eb113a",
        "gas": "0x7047",
        "value": "0x0",
        "input": "0x2f2ff15d811427a0fa4932aef534bba16bc34e9b7b2d7d2a79c475fca1765f6cc1faebea0000000000000000000000009ea593f2cbac4671268a609bbbd7276aea7eb689",
        "nonce": "0x71",
        "chainId": "0x66eee"
      },
      "additionalContracts": [],
      "isFixedGasLimit": false
    },
    {
      "hash": "0x25555bee960c7829184694d754073e8ac6aa8e7ba8630a2aa7696fd65f668517",
      "transactionType": "CALL",
      "contractName": "AccessRegistry",
      "contractAddress": "0xf52dc6bd2ed650372710e0c995e7f7d9f5eb113a",
      "function": "grantRole(bytes32,address)",
      "arguments": [
        "0xb8179c2726c8d8961ef054875ab3f4c1c3d34e1cb429c3d5e0bc97958e4cab9d",
        "0xD3b0f32aE7B26abeBCE4c0Ced34428a16026f228"
      ],
      "transaction": {
        "from": "0x9ea593f2cbac4671268a609bbbd7276aea7eb689",
        "to": "0xf52dc6bd2ed650372710e0c995e7f7d9f5eb113a",
        "gas": "0x7047",
        "value": "0x0",
        "input": "0x2f2ff15db8179c2726c8d8961ef054875ab3f4c1c3d34e1cb429c3d5e0bc97958e4cab9d000000000000000000000000d3b0f32ae7b26abebce4c0ced34428a16026f228",
        "nonce": "0x72",
        "chainId": "0x66eee"
      },
      "additionalContracts": [],
      "isFixedGasLimit": false
    },
    {
      "hash": "0x838495898489d5a5f9b1ad14de4d45887546f4a5270345179e387a109f367ff1",
      "transactionType": "CALL",
      "contractName": "AccessRegistry",
      "contractAddress": "0xf52dc6bd2ed650372710e0c995e7f7d9f5eb113a",
      "function": "grantRole(bytes32,address)",
      "arguments": [
        "0xb8179c2726c8d8961ef054875ab3f4c1c3d34e1cb429c3d5e0bc97958e4cab9d",
        "0xd5cF4958d34E87090BE30fC1Dc59b31B09868A4c"
      ],
      "transaction": {
        "from": "0x9ea593f2cbac4671268a609bbbd7276aea7eb689",
        "to": "0xf52dc6bd2ed650372710e0c995e7f7d9f5eb113a",
        "gas": "0x7047",
        "value": "0x0",
        "input": "0x2f2ff15db8179c2726c8d8961ef054875ab3f4c1c3d34e1cb429c3d5e0bc97958e4cab9d000000000000000000000000d5cf4958d34e87090be30fc1dc59b31b09868a4c",
        "nonce": "0x73",
        "chainId": "0x66eee"
      },
      "additionalContracts": [],
      "isFixedGasLimit": false
    },
    {
      "hash": "0xc4993b7fdf280c31779283424a37eb418418df2640d1ff9778199eaf09a58877",
      "transactionType": "CALL",
      "contractName": "ProjectNFT",
      "contractAddress": "0xd5cf4958d34e87090be30fc1dc59b31b09868a4c",
      "function": "grantRole(bytes32,address)",
      "arguments": [
        "0x811427a0fa4932aef534bba16bc34e9b7b2d7d2a79c475fca1765f6cc1faebea",
        "0x9EA593F2cBac4671268a609bBbd7276AeA7EB689"
      ],
      "transaction": {
        "from": "0x9ea593f2cbac4671268a609bbbd7276aea7eb689",
        "to": "0xd5cf4958d34e87090be30fc1dc59b31b09868a4c",
        "gas": "0x7047",
        "value": "0x0",
        "input": "0x2f2ff15d811427a0fa4932aef534bba16bc34e9b7b2d7d2a79c475fca1765f6cc1faebea0000000000000000000000009ea593f2cbac4671268a609bbbd7276aea7eb689",
        "nonce": "0x74",
        "chainId": "0x66eee"
      },
      "additionalContracts": [],
      "isFixedGasLimit": false
    },
    {
      "hash": "0x49707adde4d3c4e79077a6d4e95f9ebe196b121af11c2c7345990dec04db89da",
      "transactionType": "CALL",
      "contractName": "ProjectNFT",
      "contractAddress": "0xd5cf4958d34e87090be30fc1dc59b31b09868a4c",
      "function": "grantRole(bytes32,address)",
      "arguments": [
        "0xb8179c2726c8d8961ef054875ab3f4c1c3d34e1cb429c3d5e0bc97958e4cab9d",
        "0xD3b0f32aE7B26abeBCE4c0Ced34428a16026f228"
      ],
      "transaction": {
        "from": "0x9ea593f2cbac4671268a609bbbd7276aea7eb689",
        "to": "0xd5cf4958d34e87090be30fc1dc59b31b09868a4c",
        "gas": "0x7047",
        "value": "0x0",
        "input": "0x2f2ff15db8179c2726c8d8961ef054875ab3f4c1c3d34e1cb429c3d5e0bc97958e4cab9d000000000000000000000000d3b0f32ae7b26abebce4c0ced34428a16026f228",
        "nonce": "0x75",
        "chainId": "0x66eee"
      },
      "additionalContracts": [],
      "isFixedGasLimit": false
    },
    {
      "hash": "0x9480d99e082bc897e98058cacbe3365c2ad6f4e53eec1c390df0f6f6ff630c38",
      "transactionType": "CALL",
      "contractName": "Treasury",
      "contractAddress": "0xdd95c9d42df25c6b0db357099623fd4ab02a3e1d",
      "function": "grantRole(bytes32,address)",
      "arguments": [
        "0xb8179c2726c8d8961ef054875ab3f4c1c3d34e1cb429c3d5e0bc97958e4cab9d",
        "0xD3b0f32aE7B26abeBCE4c0Ced34428a16026f228"
      ],
      "transaction": {
        "from": "0x9ea593f2cbac4671268a609bbbd7276aea7eb689",
        "to": "0xdd95c9d42df25c6b0db357099623fd4ab02a3e1d",
        "gas": "0x7047",
        "value": "0x0",
        "input": "0x2f2ff15db8179c2726c8d8961ef054875ab3f4c1c3d34e1cb429c3d5e0bc97958e4cab9d000000000000000000000000d3b0f32ae7b26abebce4c0ced34428a16026f228",
        "nonce": "0x76",
        "chainId": "0x66eee"
      },
      "additionalContracts": [],
      "isFixedGasLimit": false
    },
    {
      "hash": "0x9be16b68862c488beddb7024fdfdea3d0f41f34abd84b2495d2584430014f9fb",
      "transactionType": "CALL",
      "contractName": "LendingPool",
      "contractAddress": "0xd3b0f32ae7b26abebce4c0ced34428a16026f228",
      "function": "grantRole(bytes32,address)",
      "arguments": [
        "0x97667070c54ef182b0f5858b034beac1b6f3089aa2d3188bb1e8929f4fa9b929",
        "0x9EA593F2cBac4671268a609bBbd7276AeA7EB689"
      ],
      "transaction": {
        "from": "0x9ea593f2cbac4671268a609bbbd7276aea7eb689",
        "to": "0xd3b0f32ae7b26abebce4c0ced34428a16026f228",
        "gas": "0x7047",
        "value": "0x0",
        "input": "0x2f2ff15d97667070c54ef182b0f5858b034beac1b6f3089aa2d3188bb1e8929f4fa9b9290000000000000000000000009ea593f2cbac4671268a609bbbd7276aea7eb689",
        "nonce": "0x77",
        "chainId": "0x66eee"
      },
      "additionalContracts": [],
      "isFixedGasLimit": false
    },
    {
      "hash": "0xe6d790ba0d07ac37ca57d637d9698f20712e4bae64cc2a8e97bce1e0c9f49ec2",
      "transactionType": "CALL",
      "contractName": "LendingPool",
      "contractAddress": "0xd3b0f32ae7b26abebce4c0ced34428a16026f228",
      "function": "setAcceptedToken(address,bool)",
      "arguments": [
        "0x461989C62B32Cf80efa890Fc4Ef33b19097C95C1",
        "true"
      ],
      "transaction": {
        "from": "0x9ea593f2cbac4671268a609bbbd7276aea7eb689",
        "to": "0xd3b0f32ae7b26abebce4c0ced34428a16026f228",
        "gas": "0x6e63",
        "value": "0x0",
        "input": "0xc997dbca000000000000000000000000461989c62b32cf80efa890fc4ef33b19097c95c10000000000000000000000000000000000000000000000000000000000000001",
        "nonce": "0x78",
        "chainId": "0x66eee"
      },
      "additionalContracts": [],
      "isFixedGasLimit": false
    },
    {
      "hash": "0x4dd3e7578525a02968d9001d08247c393240c42dae6ab158db8c42b843d74b91",
      "transactionType": "CALL",
      "contractName": "LendingPool",
      "contractAddress": "0xd3b0f32ae7b26abebce4c0ced34428a16026f228",
      "function": "setAcceptedToken(address,bool)",
      "arguments": [
        "0x10Be9B7b827DBA02277E4B3775f950257f5B7e42",
        "true"
      ],
      "transaction": {
        "from": "0x9ea593f2cbac4671268a609bbbd7276aea7eb689",
        "to": "0xd3b0f32ae7b26abebce4c0ced34428a16026f228",
        "gas": "0x6e63",
        "value": "0x0",
        "input": "0xc997dbca00000000000000000000000010be9b7b827dba02277e4b3775f950257f5b7e420000000000000000000000000000000000000000000000000000000000000001",
        "nonce": "0x79",
        "chainId": "0x66eee"
      },
      "additionalContracts": [],
      "isFixedGasLimit": false
    },
    {
      "hash": "0xfc743574703ea7114fa008366d332ce8421420d69c26d34d4613b8856b236d7a",
      "transactionType": "CREATE",
      "contractName": "SwapFacilitator",
      "contractAddress": "0x23ed2318c7cb997937c57b9e7d2f0e3bf48b2c06",
      "function": null,
      "arguments": [
        "0xc873fEcbd354f5A56E00E710B90EF4201db2448d",
        "0x82aF49447D8a07e3bd95BD0d56f35241523fBab1",
        "0x461989C62B32Cf80efa890Fc4Ef33b19097C95C1",
        "0x10Be9B7b827DBA02277E4B3775f950257f5B7e42"
      ],
      "transaction": {
        "from": "0x9ea593f2cbac4671268a609bbbd7276aea7eb689",
        "gas": "0x1b1809",
        "value": "0x0",
        "input": "0x6101006040523480156200001257600080fd5b506040516200195f3803806200195f83398101604081905262000035916200019c565b33806200005c57604051631e4fbdf760e01b81526000600482015260240160405180910390fd5b62000067816200012f565b50600180556001600160a01b0384166200009457604051630a1dd23760e41b815260040160405180910390fd5b6001600160a01b038316620000bc57604051630a1dd23760e41b815260040160405180910390fd5b6001600160a01b038216620000e457604051630a1dd23760e41b815260040160405180910390fd5b6001600160a01b0381166200010c57604051630a1dd23760e41b815260040160405180910390fd5b6001600160a01b0393841660805291831660a052821660c0521660e052620001f9565b600080546001600160a01b038381166001600160a01b0319831681178455604051919092169283917f8be0079c531659141344cd1fd0a4f28419497f9722a3daafe3b4186f6b6457e09190a35050565b80516001600160a01b03811681146200019757600080fd5b919050565b60008060008060808587031215620001b357600080fd5b620001be856200017f565b9350620001ce602086016200017f565b9250620001de604086016200017f565b9150620001ee606086016200017f565b905092959194509250565b60805160a05160c05160e0516116a0620002bf6000396000818161024601526102c801526000818161017201526103060152600081816101e4015281816106150152818161065201528181610707015281816107f701528181610a7601528181610ae901528181610ea701528181610ee401528181610f8f01526110b101526000818161010c015281816103f901528181610432015281816104dc0152818161077b01528181610851015281816108e601528181610b7701526111dc01526116a06000f3fe6080604052600436106100c65760003560e01c80639bc777001161007f578063c54e44eb11610059578063c54e44eb14610234578063c6bfca8a14610268578063f22deb7b14610288578063f2fde38b1461029b57600080fd5b80639bc77700146101b2578063ad5c4648146101d2578063c515ee231461020657600080fd5b806304b6c9b0146100d25780631ca87946146100e75780633b58e038146100fa578063715018a61461014b57806389a30271146101605780638da5cb5b1461019457600080fd5b366100cd57005b600080fd5b6100e56100e036600461135d565b6102bb565b005b6100e56100f536600461135d565b6102f9565b34801561010657600080fd5b5061012e7f000000000000000000000000000000000000000000000000000000000000000081565b6040516001600160a01b0390911681526020015b60405180910390f35b34801561015757600080fd5b506100e561032b565b34801561016c57600080fd5b5061012e7f000000000000000000000000000000000000000000000000000000000000000081565b3480156101a057600080fd5b506000546001600160a01b031661012e565b3480156101be57600080fd5b506100e56101cd366004611392565b61033f565b3480156101de57600080fd5b5061012e7f000000000000000000000000000000000000000000000000000000000000000081565b34801561021257600080fd5b506102266102213660046113d4565b610599565b604051908152602001610142565b34801561024057600080fd5b5061012e7f000000000000000000000000000000000000000000000000000000000000000081565b34801561027457600080fd5b506100e5610283366004611410565b6106b5565b6100e5610296366004611443565b6109a3565b3480156102a757600080fd5b506100e56102b636600461146d565b6109c2565b6102c3610a02565b6102ed7f000000000000000000000000000000000000000000000000000000000000000082610a2c565b6102f660018055565b50565b610301610a02565b6102ed7f000000000000000000000000000000000000000000000000000000000000000082610a2c565b610333610c8a565b61033d6000610cb7565b565b610347610a02565b6001600160a01b038416158061036457506001600160a01b038316155b1561038257604051630a1dd23760e41b815260040160405180910390fd5b816000036103a357604051631c2e7ccd60e11b815260040160405180910390fd5b826001600160a01b0316846001600160a01b0316036103d55760405163f7347adf60e01b815260040160405180910390fd5b6103ea6001600160a01b038516333085610d07565b61041e6001600160a01b0385167f000000000000000000000000000000000000000000000000000000000000000084610d6e565b600061042b858585610dfe565b50905060007f00000000000000000000000000000000000000000000000000000000000000006001600160a01b03166338ed173985858533426040518663ffffffff1660e01b81526004016104849594939291906114cd565b6000604051808303816000875af11580156104a3573d6000803e3d6000fd5b505050506040513d6000823e601f3d908101601f191682016040526104cb919081019061151f565b90506105026001600160a01b0387167f00000000000000000000000000000000000000000000000000000000000000006000610d6e565b336001600160a01b0316856001600160a01b0316876001600160a01b03167f268a93038deccaf0b954c94b2c84d566a2176cb264383b94f7f3843c63c198f787856001875161055191906115dd565b81518110610561576105616115fe565b6020026020010151604051610580929190918252602082015260400190565b60405180910390a4505061059360018055565b50505050565b60008115806105b95750826001600160a01b0316846001600160a01b0316145b156105c6575060006106ae565b6001600160a01b03841615806105e357506001600160a01b038316155b156105f0575060006106ae565b600080610600868686600061104f565b9150915081156106135791506106ae9050565b7f00000000000000000000000000000000000000000000000000000000000000006001600160a01b0316866001600160a01b03161415801561068757507f00000000000000000000000000000000000000000000000000000000000000006001600160a01b0316856001600160a01b031614155b156106a757600061069b878787600161104f565b94506106ae9350505050565b6000925050505b9392505050565b6106bd610a02565b6001600160a01b0383166106e457604051630a1dd23760e41b815260040160405180910390fd5b8160000361070557604051631c2e7ccd60e11b815260040160405180910390fd5b7f00000000000000000000000000000000000000000000000000000000000000006001600160a01b0316836001600160a01b0316036107575760405163f7347adf60e01b815260040160405180910390fd5b61076c6001600160a01b038416333085610d07565b6107a06001600160a01b0384167f000000000000000000000000000000000000000000000000000000000000000084610d6e565b60408051600280825260608201835260009260208301908036833701905050905083816000815181106107d5576107d56115fe565b60200260200101906001600160a01b031690816001600160a01b0316815250507f000000000000000000000000000000000000000000000000000000000000000081600181518110610829576108296115fe565b6001600160a01b0392831660209182029290920101526040516318cbafe560e01b81526000917f000000000000000000000000000000000000000000000000000000000000000016906318cbafe59061088e90879087908790339042906004016114cd565b6000604051808303816000875af11580156108ad573d6000803e3d6000fd5b505050506040513d6000823e601f3d908101601f191682016040526108d5919081019061151f565b905061090c6001600160a01b0386167f00000000000000000000000000000000000000000000000000000000000000006000610d6e565b336001600160a01b031660006001600160a01b0316866001600160a01b03167f268a93038deccaf0b954c94b2c84d566a2176cb264383b94f7f3843c63c198f787856001875161095c91906115dd565b8151811061096c5761096c6115fe565b602002602001015160405161098b929190918252602082015260400190565b60405180910390a4505061099e60018055565b505050565b6109ab610a02565b6109b58282610a2c565b6109be60018055565b5050565b6109ca610c8a565b6001600160a01b0381166109f957604051631e4fbdf760e01b8152600060048201526024015b60405180910390fd5b6102f681610cb7565b600260015403610a2557604051633ee5aeb560e01b815260040160405180910390fd5b6002600155565b34600003610a4d57604051631b5dd78f60e21b815260040160405180910390fd5b6001600160a01b038216610a7457604051630a1dd23760e41b815260040160405180910390fd5b7f00000000000000000000000000000000000000000000000000000000000000006001600160a01b0316826001600160a01b031603610ac65760405163f7347adf60e01b815260040160405180910390fd5b6040805160028082526060820183526000926020830190803683370190505090507f000000000000000000000000000000000000000000000000000000000000000081600081518110610b1b57610b1b6115fe565b60200260200101906001600160a01b031690816001600160a01b0316815250508281600181518110610b4f57610b4f6115fe565b6001600160a01b039283166020918202929092010152604051637ff36ab560e01b81526000917f00000000000000000000000000000000000000000000000000000000000000001690637ff36ab5903490610bb4908790879033904290600401611614565b60006040518083038185885af1158015610bd2573d6000803e3d6000fd5b50505050506040513d6000823e601f3d908101601f19168201604052610bfb919081019061151f565b9050336001600160a01b0316846001600160a01b031660006001600160a01b03167f268a93038deccaf0b954c94b2c84d566a2176cb264383b94f7f3843c63c198f7348560018751610c4d91906115dd565b81518110610c5d57610c5d6115fe565b6020026020010151604051610c7c929190918252602082015260400190565b60405180910390a450505050565b6000546001600160a01b0316331461033d5760405163118cdaa760e01b81523360048201526024016109f0565b600080546001600160a01b038381166001600160a01b0319831681178455604051919092169283917f8be0079c531659141344cd1fd0a4f28419497f9722a3daafe3b4186f6b6457e09190a35050565b6040516001600160a01b0384811660248301528381166044830152606482018390526105939186918216906323b872dd906084015b604051602081830303815290604052915060e01b6020820180516001600160e01b03838183161783525050505061129b565b604080516001600160a01b038416602482015260448082018490528251808303909101815260649091019091526020810180516001600160e01b031663095ea7b360e01b179052610dbf848261130c565b610593576040516001600160a01b03848116602483015260006044830152610df491869182169063095ea7b390606401610d3c565b610593848261129b565b60606000806000610e12878787600061104f565b915091508115610ea55760408051600280825260608201835290916020830190803683370190505093508684600081518110610e5057610e506115fe565b60200260200101906001600160a01b031690816001600160a01b0316815250508584600181518110610e8457610e846115fe565b6001600160a01b039092166020928302919091019091015291506110479050565b7f00000000000000000000000000000000000000000000000000000000000000006001600160a01b0316876001600160a01b031614158015610f1957507f00000000000000000000000000000000000000000000000000000000000000006001600160a01b0316866001600160a01b031614155b1561101b57600080610f2e898989600161104f565b915091508115611018576040805160038082526080820190925290602082016060803683370190505095508886600081518110610f6d57610f6d6115fe565b60200260200101906001600160a01b031690816001600160a01b0316815250507f000000000000000000000000000000000000000000000000000000000000000086600181518110610fc157610fc16115fe565b60200260200101906001600160a01b031690816001600160a01b0316815250508786600281518110610ff557610ff56115fe565b6001600160a01b0390921660209283029190910190910152935061104792505050565b50505b604051633677ac7960e11b81526001600160a01b038089166004830152871660248201526044016109f0565b935093915050565b6000806060831561113c57604080516003808252608082019092529060208201606080368337019050509050868160008151811061108f5761108f6115fe565b60200260200101906001600160a01b031690816001600160a01b0316815250507f0000000000000000000000000000000000000000000000000000000000000000816001815181106110e3576110e36115fe565b60200260200101906001600160a01b031690816001600160a01b0316815250508581600281518110611117576111176115fe565b60200260200101906001600160a01b031690816001600160a01b0316815250506111c5565b60408051600280825260608201835290916020830190803683370190505090508681600081518110611170576111706115fe565b60200260200101906001600160a01b031690816001600160a01b03168152505085816001815181106111a4576111a46115fe565b60200260200101906001600160a01b031690816001600160a01b0316815250505b60405163d06ca61f60e01b81526001600160a01b037f0000000000000000000000000000000000000000000000000000000000000000169063d06ca61f906112139088908590600401611649565b600060405180830381865afa92505050801561125157506040513d6000823e601f3d908101601f1916820160405261124e919081019061151f565b60015b611262576000925060009150611291565b60019350806001825161127591906115dd565b81518110611285576112856115fe565b60200260200101519250505b5094509492505050565b600080602060008451602086016000885af1806112be576040513d6000823e3d81fd5b50506000513d915081156112d65780600114156112e3565b6001600160a01b0384163b155b1561059357604051635274afe760e01b81526001600160a01b03851660048201526024016109f0565b6000806000806020600086516020880160008a5af192503d91506000519050828015611351575081156113425780600114611351565b6000866001600160a01b03163b115b93505050505b92915050565b60006020828403121561136f57600080fd5b5035919050565b80356001600160a01b038116811461138d57600080fd5b919050565b600080600080608085870312156113a857600080fd5b6113b185611376565b93506113bf60208601611376565b93969395505050506040820135916060013590565b6000806000606084860312156113e957600080fd5b6113f284611376565b925061140060208501611376565b9150604084013590509250925092565b60008060006060848603121561142557600080fd5b61142e84611376565b95602085013595506040909401359392505050565b6000806040838503121561145657600080fd5b61145f83611376565b946020939093013593505050565b60006020828403121561147f57600080fd5b6106ae82611376565b60008151808452602080850194506020840160005b838110156114c25781516001600160a01b03168752958201959082019060010161149d565b509495945050505050565b85815284602082015260a0604082015260006114ec60a0830186611488565b6001600160a01b0394909416606083015250608001529392505050565b634e487b7160e01b600052604160045260246000fd5b6000602080838503121561153257600080fd5b825167ffffffffffffffff8082111561154a57600080fd5b818501915085601f83011261155e57600080fd5b81518181111561157057611570611509565b8060051b604051601f19603f8301168101818110858211171561159557611595611509565b6040529182528482019250838101850191888311156115b357600080fd5b938501935b828510156115d1578451845293850193928501926115b8565b98975050505050505050565b8181038181111561135757634e487b7160e01b600052601160045260246000fd5b634e487b7160e01b600052603260045260246000fd5b84815260806020820152600061162d6080830186611488565b6001600160a01b03949094166040830152506060015292915050565b8281526040602082015260006116626040830184611488565b94935050505056fea2646970667358221220744cf0964853e7ed557c2487c9dadb8ea7dc036a291c7fb9615ddb871c5294be64736f6c63430008180033000000000000000000000000c873fecbd354f5a56e00e710b90ef4201db2448d00000000000000000000000082af49447d8a07e3bd95bd0d56f35241523fbab1000000000000000000000000461989c62b32cf80efa890fc4ef33b19097c95c100000000000000000000000010be9b7b827dba02277e4b3775f950257f5b7e42",
        "nonce": "0x7a",
        "chainId": "0x66eee"
      },
      "additionalContracts": [],
      "isFixedGasLimit": false
    },
    {
      "hash": "0xe7b72bc23a84cba3ff8fd52f74047d2b5d63aeafe46b5e7dad4b3ac870ae9ace",
      "transactionType": "CALL",
      "contractName": "MockERC20",
      "contractAddress": "0x461989c62b32cf80efa890fc4ef33b19097c95c1",
      "function": "mint(address,uint256)",
      "arguments": [
        "0x9EA593F2cBac4671268a609bBbd7276AeA7EB689",
        "10000000000000"
      ],
      "transaction": {
        "from": "0x9ea593f2cbac4671268a609bbbd7276aea7eb689",
        "to": "0x461989c62b32cf80efa890fc4ef33b19097c95c1",
        "gas": "0x6ea1",
        "value": "0x0",
        "input": "0x40c10f190000000000000000000000009ea593f2cbac4671268a609bbbd7276aea7eb689000000000000000000000000000000000000000000000000000009184e72a000",
        "nonce": "0x7b",
        "chainId": "0x66eee"
      },
      "additionalContracts": [],
      "isFixedGasLimit": false
    },
    {
      "hash": "0x5d43f98ed453563834d04e5d7553bed0f16a854a12253edc01d210e5fc7927b8",
      "transactionType": "CALL",
      "contractName": "MockERC20",
      "contractAddress": "0x10be9b7b827dba02277e4b3775f950257f5b7e42",
      "function": "mint(address,uint256)",
      "arguments": [
        "0x9EA593F2cBac4671268a609bBbd7276AeA7EB689",
        "10000000000000"
      ],
      "transaction": {
        "from": "0x9ea593f2cbac4671268a609bbbd7276aea7eb689",
        "to": "0x10be9b7b827dba02277e4b3775f950257f5b7e42",
        "gas": "0x6ea1",
        "value": "0x0",
        "input": "0x40c10f190000000000000000000000009ea593f2cbac4671268a609bbbd7276aea7eb689000000000000000000000000000000000000000000000000000009184e72a000",
        "nonce": "0x7c",
        "chainId": "0x66eee"
      },
      "additionalContracts": [],
      "isFixedGasLimit": false
    },
    {
      "hash": "0xfd18c78404bd199e4e38cddac93ce85c202a5a4780a234aad65fc165a70d9bdc",
      "transactionType": "CALL",
      "contractName": "AccessRegistry",
      "contractAddress": "0xf52dc6bd2ed650372710e0c995e7f7d9f5eb113a",
      "function": "registerCollector(string)",
      "arguments": [
        "ipfs://stomatrace/deployer-profile"
      ],
      "transaction": {
        "from": "0x9ea593f2cbac4671268a609bbbd7276aea7eb689",
        "to": "0xf52dc6bd2ed650372710e0c995e7f7d9f5eb113a",
        "gas": "0x7174",
        "value": "0x0",
        "input": "0x736e18b200000000000000000000000000000000000000000000000000000000000000200000000000000000000000000000000000000000000000000000000000000022697066733a2f2f73746f6d6174726163652f6465706c6f7965722d70726f66696c65000000000000000000000000000000000000000000000000000000000000",
        "nonce": "0x7d",
        "chainId": "0x66eee"
      },
      "additionalContracts": [],
      "isFixedGasLimit": false
    },
    {
      "hash": "0x3c2e451631f021ffef84e4e477218b38695a3d2bf18f270c3a40dea5338d016a",
      "transactionType": "CALL",
      "contractName": "MockERC20",
      "contractAddress": "0x461989c62b32cf80efa890fc4ef33b19097c95c1",
      "function": "approve(address,uint256)",
      "arguments": [
        "0xdd95C9d42Df25c6b0dB357099623fD4AB02a3e1D",
        "115792089237316195423570985008687907853269984665640564039457584007913129639935"
      ],
      "transaction": {
        "from": "0x9ea593f2cbac4671268a609bbbd7276aea7eb689",
        "to": "0x461989c62b32cf80efa890fc4ef33b19097c95c1",
        "gas": "0x7047",
        "value": "0x0",
        "input": "0x095ea7b3000000000000000000000000dd95c9d42df25c6b0db357099623fd4ab02a3e1dffffffffffffffffffffffffffffffffffffffffffffffffffffffffffffffff",
        "nonce": "0x7e",
        "chainId": "0x66eee"
      },
      "additionalContracts": [],
      "isFixedGasLimit": false
    },
    {
      "hash": "0xbbbb621d9ab73fdddc1e58c06a910cc488a3f423164073551d65fdb83664b39c",
      "transactionType": "CALL",
      "contractName": "MockERC20",
      "contractAddress": "0x10be9b7b827dba02277e4b3775f950257f5b7e42",
      "function": "approve(address,uint256)",
      "arguments": [
        "0xdd95C9d42Df25c6b0dB357099623fD4AB02a3e1D",
        "115792089237316195423570985008687907853269984665640564039457584007913129639935"
      ],
      "transaction": {
        "from": "0x9ea593f2cbac4671268a609bbbd7276aea7eb689",
        "to": "0x10be9b7b827dba02277e4b3775f950257f5b7e42",
        "gas": "0x7047",
        "value": "0x0",
        "input": "0x095ea7b3000000000000000000000000dd95c9d42df25c6b0db357099623fd4ab02a3e1dffffffffffffffffffffffffffffffffffffffffffffffffffffffffffffffff",
        "nonce": "0x7f",
        "chainId": "0x66eee"
      },
      "additionalContracts": [],
      "isFixedGasLimit": false
    },
    {
      "hash": "0xcbaef9baa7269c4230f1a27599a1e21275ba73a53cc916f2e830258dc986ced6",
      "transactionType": "CALL",
      "contractName": "ProjectNFT",
      "contractAddress": "0xd5cf4958d34e87090be30fc1dc59b31b09868a4c",
      "function": "mintProject(address,string,uint256,uint256,uint256,uint256,string)",
      "arguments": [
        "0x461989C62B32Cf80efa890Fc4Ef33b19097C95C1",
        "Beras",
        "10000",
        "100000000",
        "259200",
        "2592000",
        "ipfs://stomatrace/sample-project-beras"
      ],
      "transaction": {
        "from": "0x9ea593f2cbac4671268a609bbbd7276aea7eb689",
        "to": "0xd5cf4958d34e87090be30fc1dc59b31b09868a4c",
        "gas": "0x793a",
        "value": "0x0",
        "input": "0xc071fc1d000000000000000000000000461989c62b32cf80efa890fc4ef33b19097c95c100000000000000000000000000000000000000000000000000000000000000e000000000000000000000000000000000000000000000000000000000000027100000000000000000000000000000000000000000000000000000000005f5e100000000000000000000000000000000000000000000000000000000000003f4800000000000000000000000000000000000000000000000000000000000278d000000000000000000000000000000000000000000000000000000000000000120000000000000000000000000000000000000000000000000000000000000000542657261730000000000000000000000000000000000000000000000000000000000000000000000000000000000000000000000000000000000000000000026697066733a2f2f73746f6d6174726163652f73616d706c652d70726f6a6563742d62657261730000000000000000000000000000000000000000000000000000",
        "nonce": "0x80",
        "chainId": "0x66eee"
      },
      "additionalContracts": [],
      "isFixedGasLimit": false
    },
    {
      "hash": "0xb98b72fe0569b46f39fc714c92693973110254c52ba07bc88c13107d329e218d",
      "transactionType": "CALL",
      "contractName": "ProjectNFT",
      "contractAddress": "0xd5cf4958d34e87090be30fc1dc59b31b09868a4c",
      "function": "verifyProject(uint256)",
      "arguments": [
        "1"
      ],
      "transaction": {
        "from": "0x9ea593f2cbac4671268a609bbbd7276aea7eb689",
        "to": "0xd5cf4958d34e87090be30fc1dc59b31b09868a4c",
        "gas": "0x6c85",
        "value": "0x0",
        "input": "0xed1ca91a0000000000000000000000000000000000000000000000000000000000000001",
        "nonce": "0x81",
        "chainId": "0x66eee"
      },
      "additionalContracts": [],
      "isFixedGasLimit": false
    },
    {
      "hash": "0x2ee2019c10ed2177be49153045f969770de587d9c912d9606fe7e08f85d6debd",
      "transactionType": "CALL",
      "contractName": "ProjectNFT",
      "contractAddress": "0xd5cf4958d34e87090be30fc1dc59b31b09868a4c",
      "function": "mintProject(address,string,uint256,uint256,uint256,uint256,string)",
      "arguments": [
        "0x10Be9B7b827DBA02277E4B3775f950257f5B7e42",
        "Kopi Robusta",
        "5000",
        "200000000",
        "259200",
        "2592000",
        "ipfs://stomatrace/sample-project-kopi"
      ],
      "transaction": {
        "from": "0x9ea593f2cbac4671268a609bbbd7276aea7eb689",
        "to": "0xd5cf4958d34e87090be30fc1dc59b31b09868a4c",
        "gas": "0x7999",
        "value": "0x0",
        "input": "0xc071fc1d00000000000000000000000010be9b7b827dba02277e4b3775f950257f5b7e4200000000000000000000000000000000000000000000000000000000000000e00000000000000000000000000000000000000000000000000000000000001388000000000000000000000000000000000000000000000000000000000bebc200000000000000000000000000000000000000000000000000000000000003f4800000000000000000000000000000000000000000000000000000000000278d000000000000000000000000000000000000000000000000000000000000000120000000000000000000000000000000000000000000000000000000000000000c4b6f706920526f627573746100000000000000000000000000000000000000000000000000000000000000000000000000000000000000000000000000000025697066733a2f2f73746f6d6174726163652f73616d706c652d70726f6a6563742d6b6f7069000000000000000000000000000000000000000000000000000000",
        "nonce": "0x82",
        "chainId": "0x66eee"
      },
      "additionalContracts": [],
      "isFixedGasLimit": false
    },
    {
      "hash": "0xc6bf7c95f1ef7625276e0b46b9dd45dd8d4dbd7a73ba1580fa402823a98caf1e",
      "transactionType": "CALL",
      "contractName": "ProjectNFT",
      "contractAddress": "0xd5cf4958d34e87090be30fc1dc59b31b09868a4c",
      "function": "verifyProject(uint256)",
      "arguments": [
        "2"
      ],
      "transaction": {
        "from": "0x9ea593f2cbac4671268a609bbbd7276aea7eb689",
        "to": "0xd5cf4958d34e87090be30fc1dc59b31b09868a4c",
        "gas": "0x6c85",
        "value": "0x0",
        "input": "0xed1ca91a0000000000000000000000000000000000000000000000000000000000000002",
        "nonce": "0x83",
        "chainId": "0x66eee"
      },
      "additionalContracts": [],
      "isFixedGasLimit": false
    }
  ],
  "receipts": [
    {
      "status": "0x1",
      "cumulativeGasUsed": "0xa6315",
      "logs": [],
      "logsBloom": "0x00000000000000000000000000000000000000000000000000000000000000000000000000000000000000000000000000000000000000000000000000000000000000000000000000000000000000000000000000000000000000000000000000000000000000000000000000000000000000000000000000000000000000000000000000000000000000000000000000000000000000000000000000000000000000000000000000000000000000000000000000000000000000000000000000000000000000000000000000000000000000000000000000000000000000000000000000000000000000000000000000000000000000000000000000000000",
      "type": "0x2",
      "transactionHash": "0x73c11fe751540ff6a4672f654bf9cf5a053d59c7c217b86f8da19e79517e8644",
      "transactionIndex": "0x2",
      "blockHash": "0x84ed1b1ca822dc9180fc8fad4677828ca6154ea8058f91a950d875e4f70e7e5e",
      "blockNumber": "0xf0cf11c",
      "gasUsed": "0x82a00",
      "effectiveGasPrice": "0x1312d00",
      "from": "0x9ea593f2cbac4671268a609bbbd7276aea7eb689",
      "to": null,
      "contractAddress": "0x461989c62b32cf80efa890fc4ef33b19097c95c1",
      "gasUsedForL1": "0x0",
      "l1BlockNumber": "0xa02ccf",
      "timeboosted": false
    },
    {
      "status": "0x1",
      "cumulativeGasUsed": "0x82a00",
      "logs": [],
      "logsBloom": "0x00000000000000000000000000000000000000000000000000000000000000000000000000000000000000000000000000000000000000000000000000000000000000000000000000000000000000000000000000000000000000000000000000000000000000000000000000000000000000000000000000000000000000000000000000000000000000000000000000000000000000000000000000000000000000000000000000000000000000000000000000000000000000000000000000000000000000000000000000000000000000000000000000000000000000000000000000000000000000000000000000000000000000000000000000000000",
      "type": "0x2",
      "transactionHash": "0xd5d4961efc2b2251854ddac7b28113521fc58ac36bb2252bc510f4035a583bc0",
      "transactionIndex": "0x1",
      "blockHash": "0x87bbb7a0303124fae81717209f4f5e33ca444120d4b74cd27b85c0302f78b1d2",
      "blockNumber": "0xf0cf121",
      "gasUsed": "0x82a00",
      "effectiveGasPrice": "0x13134d0",
      "from": "0x9ea593f2cbac4671268a609bbbd7276aea7eb689",
      "to": null,
      "contractAddress": "0x10be9b7b827dba02277e4b3775f950257f5b7e42",
      "gasUsedForL1": "0x0",
      "l1BlockNumber": "0xa02ccf",
      "timeboosted": false
    },
    {
      "status": "0x1",
      "cumulativeGasUsed": "0xfe065",
      "logs": [
        {
          "address": "0xf52dc6bd2ed650372710e0c995e7f7d9f5eb113a",
          "topics": [
            "0x2f8788117e7eff1d82e926ec794901d17c78024a50270940304540a733656f0d",
            "0x0000000000000000000000000000000000000000000000000000000000000000",
            "0x0000000000000000000000009ea593f2cbac4671268a609bbbd7276aea7eb689",
            "0x0000000000000000000000009ea593f2cbac4671268a609bbbd7276aea7eb689"
          ],
          "data": "0x",
          "blockHash": "0x465b962076000bb12f3f1d7684e6b042faf9c4f8d8943ee860aee5ab18b599fb",
          "blockNumber": "0xf0cf12c",
          "blockTimestamp": "0x69bfc68d",
          "transactionHash": "0xdc24b16ca21ec34b14f50b020b8b72e443087b1e8cf61880b8b3045bc7d7cb51",
          "transactionIndex": "0x1",
          "logIndex": "0x0",
          "removed": false
        }
      ],
      "logsBloom": "0x000000040000000000000000000000000000000000000000000000000000000000000000000000000000000000000000000000000000000000000000000000000000000000000000000000000000000000080000000000000000000000000000000000000200000000000000000008000000000000000000000000000000000000000000000000000000000000000000000000000000000000000010000000002000000000000000000000000000000000000000000000000010000000000000000000000000000000004000000000000000000000000001000000000000a0000000000000000000000000000000000000008000000000000000000000000000",
      "type": "0x2",
      "transactionHash": "0xdc24b16ca21ec34b14f50b020b8b72e443087b1e8cf61880b8b3045bc7d7cb51",
      "transactionIndex": "0x1",
      "blockHash": "0x465b962076000bb12f3f1d7684e6b042faf9c4f8d8943ee860aee5ab18b599fb",
      "blockNumber": "0xf0cf12c",
      "gasUsed": "0xfe065",
      "effectiveGasPrice": "0x1312d00",
      "from": "0x9ea593f2cbac4671268a609bbbd7276aea7eb689",
      "to": null,
      "contractAddress": "0xf52dc6bd2ed650372710e0c995e7f7d9f5eb113a",
      "gasUsedForL1": "0x0",
      "l1BlockNumber": "0xa02ccf",
      "timeboosted": false
    },
    {
      "status": "0x1",
      "cumulativeGasUsed": "0x671cd9",
      "logs": [
        {
          "address": "0xd5cf4958d34e87090be30fc1dc59b31b09868a4c",
          "topics": [
            "0x2f8788117e7eff1d82e926ec794901d17c78024a50270940304540a733656f0d",
            "0x0000000000000000000000000000000000000000000000000000000000000000",
            "0x0000000000000000000000009ea593f2cbac4671268a609bbbd7276aea7eb689",
            "0x0000000000000000000000009ea593f2cbac4671268a609bbbd7276aea7eb689"
          ],
          "data": "0x",
          "blockHash": "0x7c9699cf065d6a45d14a200d0ff048e5a15ed110f53ca811367d2b89aa5beddd",
          "blockNumber": "0xf0cf132",
          "blockTimestamp": "0x69bfc68f",
          "transactionHash": "0xa10008be17bcfc9797003a4ef16f56158866ff766ebf59353d5737c938a2c2f1",
          "transactionIndex": "0x3",
          "logIndex": "0x68",
          "removed": false
        }
      ],
      "logsBloom": "0x000000040000000000000000000000000000000000000000000000000000000000000000000000000000000000000000000000000000000000000000000000000000000000000000000000000000000000000080000000000000000000000000000000000200000000000000000008000000000000000000000000000000000000000000000000000000000000000000000000000000000000000010000000002000000000000000000000000000000000000000004000000010000000000000000000000000000000000000000000000000000000000001000000000000a0000000000000000200000000000000000000000000000000000000000000000000",
      "type": "0x2",
      "transactionHash": "0xa10008be17bcfc9797003a4ef16f56158866ff766ebf59353d5737c938a2c2f1",
      "transactionIndex": "0x3",
      "blockHash": "0x7c9699cf065d6a45d14a200d0ff048e5a15ed110f53ca811367d2b89aa5beddd",
      "blockNumber": "0xf0cf132",
      "gasUsed": "0x1d336f",
      "effectiveGasPrice": "0x1312d00",
      "from": "0x9ea593f2cbac4671268a609bbbd7276aea7eb689",
      "to": null,
      "contractAddress": "0xd5cf4958d34e87090be30fc1dc59b31b09868a4c",
      "gasUsedForL1": "0x0",
      "l1BlockNumber": "0xa02ccf",
      "timeboosted": false
    },
    {
      "status": "0x1",
      "cumulativeGasUsed": "0xc4fca",
      "logs": [
        {
          "address": "0xdd95c9d42df25c6b0db357099623fd4ab02a3e1d",
          "topics": [
            "0x2f8788117e7eff1d82e926ec794901d17c78024a50270940304540a733656f0d",
            "0x0000000000000000000000000000000000000000000000000000000000000000",
            "0x0000000000000000000000009ea593f2cbac4671268a609bbbd7276aea7eb689",
            "0x0000000000000000000000009ea593f2cbac4671268a609bbbd7276aea7eb689"
          ],
          "data": "0x",
          "blockHash": "0x8542d4c9ed9045d1578b31cb13d731c2fa5e47a852cd4b08a12a286186c64fe7",
          "blockNumber": "0xf0cf13e",
          "blockTimestamp": "0x69bfc692",
          "transactionHash": "0x92d6d275b82c596bd97a89d2e51e395831975cd00d8e201ef48561c1a8686716",
          "transactionIndex": "0x2",
          "logIndex": "0x3",
          "removed": false
        },
        {
          "address": "0xdd95c9d42df25c6b0db357099623fd4ab02a3e1d",
          "topics": [
            "0xf84f6b525c89a18c80bbbc0c62a7eb5390956d6b8432ab067b49963a98f8c38f",
            "0x0000000000000000000000000000000000000000000000000000000000000000",
            "0x0000000000000000000000009ea593f2cbac4671268a609bbbd7276aea7eb689"
          ],
          "data": "0x",
          "blockHash": "0x8542d4c9ed9045d1578b31cb13d731c2fa5e47a852cd4b08a12a286186c64fe7",
          "blockNumber": "0xf0cf13e",
          "blockTimestamp": "0x69bfc692",
          "transactionHash": "0x92d6d275b82c596bd97a89d2e51e395831975cd00d8e201ef48561c1a8686716",
          "transactionIndex": "0x2",
          "logIndex": "0x4",
          "removed": false
        }
      ],
      "logsBloom": "0x000000040000000000000000000000000000000000000000000000000000000000000000000000000000000000000000000000000000000000000000000000000000000000000000000000000000000000020000000000000000000000000000000000000200000000000000000008000000000000000040000000000000000000000000000000000000000000000400000000000000000000000010000001002001000000000000000000000000000000000000000000000010000000000000000000000400000000000000000000000000000000000001000000000000a0000000000000000000000000000000000000000000000000000000000000000000",
      "type": "0x2",
      "transactionHash": "0x92d6d275b82c596bd97a89d2e51e395831975cd00d8e201ef48561c1a8686716",
      "transactionIndex": "0x2",
      "blockHash": "0x8542d4c9ed9045d1578b31cb13d731c2fa5e47a852cd4b08a12a286186c64fe7",
      "blockNumber": "0xf0cf13e",
      "gasUsed": "0xab551",
      "effectiveGasPrice": "0x1315410",
      "from": "0x9ea593f2cbac4671268a609bbbd7276aea7eb689",
      "to": null,
      "contractAddress": "0xdd95c9d42df25c6b0db357099623fd4ab02a3e1d",
      "gasUsedForL1": "0x0",
      "l1BlockNumber": "0xa02ccf",
      "timeboosted": false
    },
    {
      "status": "0x1",
      "cumulativeGasUsed": "0x27694d",
      "logs": [
        {
          "address": "0xd3b0f32ae7b26abebce4c0ced34428a16026f228",
          "topics": [
            "0x2f8788117e7eff1d82e926ec794901d17c78024a50270940304540a733656f0d",
            "0x0000000000000000000000000000000000000000000000000000000000000000",
            "0x0000000000000000000000009ea593f2cbac4671268a609bbbd7276aea7eb689",
            "0x0000000000000000000000009ea593f2cbac4671268a609bbbd7276aea7eb689"
          ],
          "data": "0x",
          "blockHash": "0x221aacdc6642f4349cb2796e5e531293a79b6069d0a3a5f8ae0ff30c3fd01da4",
          "blockNumber": "0xf0cf14b",
          "blockTimestamp": "0x69bfc696",
          "transactionHash": "0xad36776e2ea9d99198473132f09f76524a8e11a5fc9fbf6fc45477b269fc2910",
          "transactionIndex": "0x1",
          "logIndex": "0x0",
          "removed": false
        }
      ],
      "logsBloom": "0x000000040000000000000000000000000000000000000000000000000000000000000000000000000000000000000000000000000000000000000000000000000000000000000000000000000000000000000000000000000000000000000000000000000202000000000000010008000000000000000000000000000000000000000000000000000000000000000000000000000000000000000010000000002000000000000000000000000000000000000000000000000010000000000000000000000000000000000000000000000000000000000001000000000000a0000000000000000000000000000000000000000000000020000000000000000000",
      "type": "0x2",
      "transactionHash": "0xad36776e2ea9d99198473132f09f76524a8e11a5fc9fbf6fc45477b269fc2910",
      "transactionIndex": "0x1",
      "blockHash": "0x221aacdc6642f4349cb2796e5e531293a79b6069d0a3a5f8ae0ff30c3fd01da4",
      "blockNumber": "0xf0cf14b",
      "gasUsed": "0x27694d",
      "effectiveGasPrice": "0x1317b20",
      "from": "0x9ea593f2cbac4671268a609bbbd7276aea7eb689",
      "to": null,
      "contractAddress": "0xd3b0f32ae7b26abebce4c0ced34428a16026f228",
      "gasUsedForL1": "0x0",
      "l1BlockNumber": "0xa02cd0",
      "timeboosted": false
    },
    {
      "status": "0x1",
      "cumulativeGasUsed": "0xc924",
      "logs": [
        {
          "address": "0xf52dc6bd2ed650372710e0c995e7f7d9f5eb113a",
          "topics": [
            "0x2f8788117e7eff1d82e926ec794901d17c78024a50270940304540a733656f0d",
            "0x811427a0fa4932aef534bba16bc34e9b7b2d7d2a79c475fca1765f6cc1faebea",
            "0x0000000000000000000000009ea593f2cbac4671268a609bbbd7276aea7eb689",
            "0x0000000000000000000000009ea593f2cbac4671268a609bbbd7276aea7eb689"
          ],
          "data": "0x",
          "blockHash": "0x8df13c0d172d1f696d90f01ae06eb96a290d122ac06cc1cf5dc45c8dbf09f71a",
          "blockNumber": "0xf0cf156",
          "blockTimestamp": "0x69bfc699",
          "transactionHash": "0xc92d1082b241b0511321b6dd7f6f09b4f116c4c30de9edb2f9189b5a4697db5e",
          "transactionIndex": "0x1",
          "logIndex": "0x0",
          "removed": false
        }
      ],
      "logsBloom": "0x00000004000000000000000000000000000000000000000000000000000000000000000000000000000000000000000000000000000000000000000200000000000000000000000000000000000000000008000000000000000000000000000000000000000000000000000004000000000000000000000000000000000000000000000000000000000000000000000000000000000000000000001000000000200000000000000000000000000000000000000000000000001000000000000000000000000000000000400000000000000000000000000100000000000080010000000000000000000000000000000000008000000000000000000000000000",
      "type": "0x2",
      "transactionHash": "0xc92d1082b241b0511321b6dd7f6f09b4f116c4c30de9edb2f9189b5a4697db5e",
      "transactionIndex": "0x1",
      "blockHash": "0x8df13c0d172d1f696d90f01ae06eb96a290d122ac06cc1cf5dc45c8dbf09f71a",
      "blockNumber": "0xf0cf156",
      "gasUsed": "0xc924",
      "effectiveGasPrice": "0x1312d00",
      "from": "0x9ea593f2cbac4671268a609bbbd7276aea7eb689",
      "to": "0xf52dc6bd2ed650372710e0c995e7f7d9f5eb113a",
      "contractAddress": null,
      "gasUsedForL1": "0x0",
      "l1BlockNumber": "0xa02cd0",
      "timeboosted": false
    },
    {
      "status": "0x1",
      "cumulativeGasUsed": "0x263a9",
      "logs": [
        {
          "address": "0xf52dc6bd2ed650372710e0c995e7f7d9f5eb113a",
          "topics": [
            "0x2f8788117e7eff1d82e926ec794901d17c78024a50270940304540a733656f0d",
            "0xb8179c2726c8d8961ef054875ab3f4c1c3d34e1cb429c3d5e0bc97958e4cab9d",
            "0x000000000000000000000000d3b0f32ae7b26abebce4c0ced34428a16026f228",
            "0x0000000000000000000000009ea593f2cbac4671268a609bbbd7276aea7eb689"
          ],
          "data": "0x",
          "blockHash": "0xf097a89583cc35374090ab152fc309eca82bd923d251bb401fd94678923a69ef",
          "blockNumber": "0xf0cf164",
          "blockTimestamp": "0x69bfc69c",
          "transactionHash": "0x25555bee960c7829184694d754073e8ac6aa8e7ba8630a2aa7696fd65f668517",
          "transactionIndex": "0x2",
          "logIndex": "0x3",
          "removed": false
        }
      ],
      "logsBloom": "0x00000004000000000000000000000000000000000000000000000000000000000000000000000000000000000000000000100000000000000000000000000000000000000000000000000000000000000008000000000000004000000000000000000000000000000000000000000000000000000000000000000000000000000000000000000000400000000000000000000000000000008000001000000000200000000000000000000000000000000000000000000000001000000000000000000000000000000000400000000000000000000000000100000000000080000000000000000000000000000000000010008000000000000000000000000000",
      "type": "0x2",
      "transactionHash": "0x25555bee960c7829184694d754073e8ac6aa8e7ba8630a2aa7696fd65f668517",
      "transactionIndex": "0x2",
      "blockHash": "0xf097a89583cc35374090ab152fc309eca82bd923d251bb401fd94678923a69ef",
      "blockNumber": "0xf0cf164",
      "gasUsed": "0xc924",
      "effectiveGasPrice": "0x13134d0",
      "from": "0x9ea593f2cbac4671268a609bbbd7276aea7eb689",
      "to": "0xf52dc6bd2ed650372710e0c995e7f7d9f5eb113a",
      "contractAddress": null,
      "gasUsedForL1": "0x0",
      "l1BlockNumber": "0xa02cd0",
      "timeboosted": false
    },
    {
      "status": "0x1",
      "cumulativeGasUsed": "0xc924",
      "logs": [
        {
          "address": "0xf52dc6bd2ed650372710e0c995e7f7d9f5eb113a",
          "topics": [
            "0x2f8788117e7eff1d82e926ec794901d17c78024a50270940304540a733656f0d",
            "0xb8179c2726c8d8961ef054875ab3f4c1c3d34e1cb429c3d5e0bc97958e4cab9d",
            "0x000000000000000000000000d5cf4958d34e87090be30fc1dc59b31b09868a4c",
            "0x0000000000000000000000009ea593f2cbac4671268a609bbbd7276aea7eb689"
          ],
          "data": "0x",
          "blockHash": "0xffcea7c0e48ae7a4bc402f1f264c735a168f5cca44b911dcd067aab17549c41e",
          "blockNumber": "0xf0cf16e",
          "blockTimestamp": "0x69bfc6a0",
          "transactionHash": "0x838495898489d5a5f9b1ad14de4d45887546f4a5270345179e387a109f367ff1",
          "transactionIndex": "0x1",
          "logIndex": "0x0",
          "removed": false
        }
      ],
      "logsBloom": "0x00000004000000000000000000000000000000000000000000000000000000000000000000000000020000000000000000100000000000000000000000000000100000000000000000000000000000000008000000000000004000000000000000000000000000000000000000000000000000000000000000000000000000000000000000000000000000000000000000000000000000000000001000000000200000000000000000000000000000000000000000000000001040000000000000000000000000000000400000000000000000000000000100000000000080000000000000000000000000000000000010008000000000000000000000000000",
      "type": "0x2",
      "transactionHash": "0x838495898489d5a5f9b1ad14de4d45887546f4a5270345179e387a109f367ff1",
      "transactionIndex": "0x1",
      "blockHash": "0xffcea7c0e48ae7a4bc402f1f264c735a168f5cca44b911dcd067aab17549c41e",
      "blockNumber": "0xf0cf16e",
      "gasUsed": "0xc924",
      "effectiveGasPrice": "0x1312d00",
      "from": "0x9ea593f2cbac4671268a609bbbd7276aea7eb689",
      "to": "0xf52dc6bd2ed650372710e0c995e7f7d9f5eb113a",
      "contractAddress": null,
      "gasUsedForL1": "0x0",
      "l1BlockNumber": "0xa02cd0",
      "timeboosted": false
    },
    {
      "status": "0x1",
      "cumulativeGasUsed": "0xc92b",
      "logs": [
        {
          "address": "0xd5cf4958d34e87090be30fc1dc59b31b09868a4c",
          "topics": [
            "0x2f8788117e7eff1d82e926ec794901d17c78024a50270940304540a733656f0d",
            "0x811427a0fa4932aef534bba16bc34e9b7b2d7d2a79c475fca1765f6cc1faebea",
            "0x0000000000000000000000009ea593f2cbac4671268a609bbbd7276aea7eb689",
            "0x0000000000000000000000009ea593f2cbac4671268a609bbbd7276aea7eb689"
          ],
          "data": "0x",
          "blockHash": "0x01492cb45fbb52019446712f7dddb61dd193c454e0fe70c6991dbcf5044175b2",
          "blockNumber": "0xf0cf178",
          "blockTimestamp": "0x69bfc6a3",
          "transactionHash": "0xc4993b7fdf280c31779283424a37eb418418df2640d1ff9778199eaf09a58877",
          "transactionIndex": "0x1",
          "logIndex": "0x0",
          "removed": false
        }
      ],
      "logsBloom": "0x00000004000000000000000000000000000000000000000000000000000000000000000000000000000000000000000000000000000000000000000200000000000000000000000000000000000000000000008000000000000000000000000000000000000000000000000004000000000000000000000000000000000000000000000000000000000000000000000000000000000000000000001000000000200000000000000000000000000000000000000000400000001000000000000000000000000000000000000000000000000000000000000100000000000080010000000000000200000000000000000000000000000000000000000000000000",
      "type": "0x2",
      "transactionHash": "0xc4993b7fdf280c31779283424a37eb418418df2640d1ff9778199eaf09a58877",
      "transactionIndex": "0x1",
      "blockHash": "0x01492cb45fbb52019446712f7dddb61dd193c454e0fe70c6991dbcf5044175b2",
      "blockNumber": "0xf0cf178",
      "gasUsed": "0xc92b",
      "effectiveGasPrice": "0x1312d00",
      "from": "0x9ea593f2cbac4671268a609bbbd7276aea7eb689",
      "to": "0xd5cf4958d34e87090be30fc1dc59b31b09868a4c",
      "contractAddress": null,
      "gasUsedForL1": "0x0",
      "l1BlockNumber": "0xa02cd0",
      "timeboosted": false
    },
    {
      "status": "0x1",
      "cumulativeGasUsed": "0x263b0",
      "logs": [
        {
          "address": "0xd5cf4958d34e87090be30fc1dc59b31b09868a4c",
          "topics": [
            "0x2f8788117e7eff1d82e926ec794901d17c78024a50270940304540a733656f0d",
            "0xb8179c2726c8d8961ef054875ab3f4c1c3d34e1cb429c3d5e0bc97958e4cab9d",
            "0x000000000000000000000000d3b0f32ae7b26abebce4c0ced34428a16026f228",
            "0x0000000000000000000000009ea593f2cbac4671268a609bbbd7276aea7eb689"
          ],
          "data": "0x",
          "blockHash": "0xb1e02d30e0cee319ce23e1ba285c696915f5850d36069ef1eb9abb31e01ccca5",
          "blockNumber": "0xf0cf183",
          "blockTimestamp": "0x69bfc6a7",
          "transactionHash": "0x49707adde4d3c4e79077a6d4e95f9ebe196b121af11c2c7345990dec04db89da",
          "transactionIndex": "0x2",
          "logIndex": "0x3",
          "removed": false
        }
      ],
      "logsBloom": "0x00000004000000000000000000000000000000000000000000000000000000000000000000000000000000000000000000100000000000000000000000000000000000000000000000000000000000000000008000000000004000000000000000000000000000000000000000000000000000000000000000000000000000000000000000000000400000000000000000000000000000008000001000000000200000000000000000000000000000000000000000400000001000000000000000000000000000000000000000000000000000000000000100000000000080000000000000000200000000000000000010000000000000000000000000000000",
      "type": "0x2",
      "transactionHash": "0x49707adde4d3c4e79077a6d4e95f9ebe196b121af11c2c7345990dec04db89da",
      "transactionIndex": "0x2",
      "blockHash": "0xb1e02d30e0cee319ce23e1ba285c696915f5850d36069ef1eb9abb31e01ccca5",
      "blockNumber": "0xf0cf183",
      "gasUsed": "0xc92b",
      "effectiveGasPrice": "0x1315be0",
      "from": "0x9ea593f2cbac4671268a609bbbd7276aea7eb689",
      "to": "0xd5cf4958d34e87090be30fc1dc59b31b09868a4c",
      "contractAddress": null,
      "gasUsedForL1": "0x0",
      "l1BlockNumber": "0xa02cd1",
      "timeboosted": false
    },
    {
      "status": "0x1",
      "cumulativeGasUsed": "0xc924",
      "logs": [
        {
          "address": "0xdd95c9d42df25c6b0db357099623fd4ab02a3e1d",
          "topics": [
            "0x2f8788117e7eff1d82e926ec794901d17c78024a50270940304540a733656f0d",
            "0xb8179c2726c8d8961ef054875ab3f4c1c3d34e1cb429c3d5e0bc97958e4cab9d",
            "0x000000000000000000000000d3b0f32ae7b26abebce4c0ced34428a16026f228",
            "0x0000000000000000000000009ea593f2cbac4671268a609bbbd7276aea7eb689"
          ],
          "data": "0x",
          "blockHash": "0x6547ee251fd6554dca18b82e359fe2bf987220c47b53a1d55613868ec6d1d9a8",
          "blockNumber": "0xf0cf191",
          "blockTimestamp": "0x69bfc6aa",
          "transactionHash": "0x9480d99e082bc897e98058cacbe3365c2ad6f4e53eec1c390df0f6f6ff630c38",
          "transactionIndex": "0x1",
          "logIndex": "0x0",
          "removed": false
        }
      ],
      "logsBloom": "0x00000004000000000000000000000000000000000000000000000000000000000000000000000000000000000000000000100000000000000000000000000000000000000000000000000000000000000000000000000000004000000000000000000000000000000000000000000000000000000000004000000000000000000000000000000000400000000000040000000000000000008000001000000000200000000000000000000000000000000000000000000000001000000000000000000000040000000000000000000000000000000000000100000000000080000000000000000000000000000000000010000000000000000000000000000000",
      "type": "0x2",
      "transactionHash": "0x9480d99e082bc897e98058cacbe3365c2ad6f4e53eec1c390df0f6f6ff630c38",
      "transactionIndex": "0x1",
      "blockHash": "0x6547ee251fd6554dca18b82e359fe2bf987220c47b53a1d55613868ec6d1d9a8",
      "blockNumber": "0xf0cf191",
      "gasUsed": "0xc924",
      "effectiveGasPrice": "0x134de50",
      "from": "0x9ea593f2cbac4671268a609bbbd7276aea7eb689",
      "to": "0xdd95c9d42df25c6b0db357099623fd4ab02a3e1d",
      "contractAddress": null,
      "gasUsedForL1": "0x0",
      "l1BlockNumber": "0xa02cd1",
      "timeboosted": false
    },
    {
      "status": "0x1",
      "cumulativeGasUsed": "0xc951",
      "logs": [
        {
          "address": "0xd3b0f32ae7b26abebce4c0ced34428a16026f228",
          "topics": [
            "0x2f8788117e7eff1d82e926ec794901d17c78024a50270940304540a733656f0d",
            "0x97667070c54ef182b0f5858b034beac1b6f3089aa2d3188bb1e8929f4fa9b929",
            "0x0000000000000000000000009ea593f2cbac4671268a609bbbd7276aea7eb689",
            "0x0000000000000000000000009ea593f2cbac4671268a609bbbd7276aea7eb689"
          ],
          "data": "0x",
          "blockHash": "0x2a71b21d83fa8462596e61fd74fb8d7a868efa4d3b6e267a399b81022c8b5f9a",
          "blockNumber": "0xf0cf197",
          "blockTimestamp": "0x69bfc6ac",
          "transactionHash": "0x9be16b68862c488beddb7024fdfdea3d0f41f34abd84b2495d2584430014f9fb",
          "transactionIndex": "0x1",
          "logIndex": "0x0",
          "removed": false
        }
      ],
      "logsBloom": "0x00000004000000000000000000000000000000000000000000000000000000000200000000000000000000000000000000000000000000000000000000000000000000000000000000000000000000000002000000000000000000000000000000000000000200000000000001000000000000000000000000000000000000000000000000000000000000000000000000000000000000000000001000000000200000000000000000000000000000000000000000008000001000000000000000000000000000000000000000000000000000000000000100000000000080000000000000000000000000000000000000000000000020000000000000000000",
      "type": "0x2",
      "transactionHash": "0x9be16b68862c488beddb7024fdfdea3d0f41f34abd84b2495d2584430014f9fb",
      "transactionIndex": "0x1",
      "blockHash": "0x2a71b21d83fa8462596e61fd74fb8d7a868efa4d3b6e267a399b81022c8b5f9a",
      "blockNumber": "0xf0cf197",
      "gasUsed": "0xc951",
      "effectiveGasPrice": "0x13134d0",
      "from": "0x9ea593f2cbac4671268a609bbbd7276aea7eb689",
      "to": "0xd3b0f32ae7b26abebce4c0ced34428a16026f228",
      "contractAddress": null,
      "gasUsedForL1": "0x0",
      "l1BlockNumber": "0xa02cd1",
      "timeboosted": false
    },
    {
      "status": "0x1",
      "cumulativeGasUsed": "0xbbda",
      "logs": [
        {
          "address": "0xd3b0f32ae7b26abebce4c0ced34428a16026f228",
          "topics": [
            "0x41e60d181306b4838cb2b18f318e3a9ba536d93ccdb1ec613c048faa097c18dd",
            "0x000000000000000000000000461989c62b32cf80efa890fc4ef33b19097c95c1"
          ],
          "data": "0x0000000000000000000000000000000000000000000000000000000000000001",
          "blockHash": "0x53ad5bff674b45b4368c6655c1383828454542ff47af6ff79a18c76a965e97e4",
          "blockNumber": "0xf0cf19e",
          "blockTimestamp": "0x69bfc6ae",
          "transactionHash": "0xe6d790ba0d07ac37ca57d637d9698f20712e4bae64cc2a8e97bce1e0c9f49ec2",
          "transactionIndex": "0x1",
          "logIndex": "0x0",
          "removed": false
        }
      ],
      "logsBloom": "0x00000000000000000000000000100000000000000000000000000000040000000000000000000000000000000800000000000000000000000000000000000000000000000010000020000000000000000000000000000000000000000000000000000000000200000000000001000000000000200000000000000000000000000000000000000000000000000000000000000000000000000000000000000000000000000000000000000000000000000000000000000000000000000000000000000000000000000000000000000000000000000000000000000000000000000000000000000000000000000000000000000000000020000000000000000000",
      "type": "0x2",
      "transactionHash": "0xe6d790ba0d07ac37ca57d637d9698f20712e4bae64cc2a8e97bce1e0c9f49ec2",
      "transactionIndex": "0x1",
      "blockHash": "0x53ad5bff674b45b4368c6655c1383828454542ff47af6ff79a18c76a965e97e4",
      "blockNumber": "0xf0cf19e",
      "gasUsed": "0xbbda",
      "effectiveGasPrice": "0x1312d00",
      "from": "0x9ea593f2cbac4671268a609bbbd7276aea7eb689",
      "to": "0xd3b0f32ae7b26abebce4c0ced34428a16026f228",
      "contractAddress": null,
      "gasUsedForL1": "0x0",
      "l1BlockNumber": "0xa02cd1",
      "timeboosted": false
    },
    {
      "status": "0x1",
      "cumulativeGasUsed": "0xbbda",
      "logs": [
        {
          "address": "0xd3b0f32ae7b26abebce4c0ced34428a16026f228",
          "topics": [
            "0x41e60d181306b4838cb2b18f318e3a9ba536d93ccdb1ec613c048faa097c18dd",
            "0x00000000000000000000000010be9b7b827dba02277e4b3775f950257f5b7e42"
          ],
          "data": "0x0000000000000000000000000000000000000000000000000000000000000001",
          "blockHash": "0x9bea66acd96f52995f9de465fa63b09b6b45ff355653c33f55206950f5a0d8ef",
          "blockNumber": "0xf0cf1a5",
          "blockTimestamp": "0x69bfc6b0",
          "transactionHash": "0x4dd3e7578525a02968d9001d08247c393240c42dae6ab158db8c42b843d74b91",
          "transactionIndex": "0x1",
          "logIndex": "0x0",
          "removed": false
        }
      ],
      "logsBloom": "0x00000000000000000000000000100000200000000000000000000000040000000000000000000000000000000000000000000000000000000000000000000000000000000000000020000000000000080000000000000000000000000000000000000000000200000000000001000000000000000000000000000000000000000000000000000000000000000000000000000000000000000000000000000000000000000000000004000000000000000000000000000000000000000000000000000000000000000000000000000000000000000000000000000000000000000000000000000000000000000000000000000000000020000000000000000000",
      "type": "0x2",
      "transactionHash": "0x4dd3e7578525a02968d9001d08247c393240c42dae6ab158db8c42b843d74b91",
      "transactionIndex": "0x1",
      "blockHash": "0x9bea66acd96f52995f9de465fa63b09b6b45ff355653c33f55206950f5a0d8ef",
      "blockNumber": "0xf0cf1a5",
      "gasUsed": "0xbbda",
      "effectiveGasPrice": "0x134d680",
      "from": "0x9ea593f2cbac4671268a609bbbd7276aea7eb689",
      "to": "0xd3b0f32ae7b26abebce4c0ced34428a16026f228",
      "contractAddress": null,
      "gasUsedForL1": "0x0",
      "l1BlockNumber": "0xa02cd1",
      "timeboosted": false
    },
    {
      "status": "0x1",
      "cumulativeGasUsed": "0x14a8e1",
      "logs": [
        {
          "address": "0x23ed2318c7cb997937c57b9e7d2f0e3bf48b2c06",
          "topics": [
            "0x8be0079c531659141344cd1fd0a4f28419497f9722a3daafe3b4186f6b6457e0",
            "0x0000000000000000000000000000000000000000000000000000000000000000",
            "0x0000000000000000000000009ea593f2cbac4671268a609bbbd7276aea7eb689"
          ],
          "data": "0x",
          "blockHash": "0xa0da9ba71224c7743e854f7ce5a9293ce33f1bcb50efe0382b157a39f5dfdb61",
          "blockNumber": "0xf0cf1b3",
          "blockTimestamp": "0x69bfc6b3",
          "transactionHash": "0xfc743574703ea7114fa008366d332ce8421420d69c26d34d4613b8856b236d7a",
          "transactionIndex": "0x1",
          "logIndex": "0x0",
          "removed": false
        }
      ],
      "logsBloom": "0x000000000000000000000000000000000000000000000000008000000000000000000000000000000000000000100000000000000000000000000000000000000000000000000000000000000000000000010000000000000000000000000000000000000200000000000000000008000000000000000000000000000000004000000000000000000200000000000000000000000000000000000010000000002000000000000000000000000000000000000000000080000000000000000000000000000000000000000000000000000000000000000000000000000000a0000000000000000000000000000000000000000000000000000000000000000000",
      "type": "0x2",
      "transactionHash": "0xfc743574703ea7114fa008366d332ce8421420d69c26d34d4613b8856b236d7a",
      "transactionIndex": "0x1",
      "blockHash": "0xa0da9ba71224c7743e854f7ce5a9293ce33f1bcb50efe0382b157a39f5dfdb61",
      "blockNumber": "0xf0cf1b3",
      "gasUsed": "0x14a8e1",
      "effectiveGasPrice": "0x1315be0",
      "from": "0x9ea593f2cbac4671268a609bbbd7276aea7eb689",
      "to": null,
      "contractAddress": "0x23ed2318c7cb997937c57b9e7d2f0e3bf48b2c06",
      "gasUsedForL1": "0x0",
      "l1BlockNumber": "0xa02cd1",
      "timeboosted": false
    },
    {
      "status": "0x1",
      "cumulativeGasUsed": "0x10b39",
      "logs": [
        {
          "address": "0x461989c62b32cf80efa890fc4ef33b19097c95c1",
          "topics": [
            "0xddf252ad1be2c89b69c2b068fc378daa952ba7f163c4a11628f55a4df523b3ef",
            "0x0000000000000000000000000000000000000000000000000000000000000000",
            "0x0000000000000000000000009ea593f2cbac4671268a609bbbd7276aea7eb689"
          ],
          "data": "0x000000000000000000000000000000000000000000000000000009184e72a000",
          "blockHash": "0xe7a95be6efca34dde1e9d2b41205ff1645c7cd07cf3b6488e2f9cc1a81dbf8f7",
          "blockNumber": "0xf0cf1bf",
          "blockTimestamp": "0x69bfc6b7",
          "transactionHash": "0xe7b72bc23a84cba3ff8fd52f74047d2b5d63aeafe46b5e7dad4b3ac870ae9ace",
          "transactionIndex": "0x1",
          "logIndex": "0x0",
          "removed": false
        }
      ],
      "logsBloom": "0x000000000000000000000000000000000000000000000000000000000000000000000000000000000000000000000000000000000000000000000000000000000000000000000000000000080000000000000000000000000000000000000000000001000200000000000000000008000000000000000000000000100000000000000000000000000000000000000000000000000000000000000010000000002000000000004000000000000000000000000000000000000000000000000000000000020000000000000000000000000000000000002000000000000000a0000000000000000000000000000000000000000000000000000000000000000000",
      "type": "0x2",
      "transactionHash": "0xe7b72bc23a84cba3ff8fd52f74047d2b5d63aeafe46b5e7dad4b3ac870ae9ace",
      "transactionIndex": "0x1",
      "blockHash": "0xe7a95be6efca34dde1e9d2b41205ff1645c7cd07cf3b6488e2f9cc1a81dbf8f7",
      "blockNumber": "0xf0cf1bf",
      "gasUsed": "0x10b39",
      "effectiveGasPrice": "0x1314470",
      "from": "0x9ea593f2cbac4671268a609bbbd7276aea7eb689",
      "to": "0x461989c62b32cf80efa890fc4ef33b19097c95c1",
      "contractAddress": null,
      "gasUsedForL1": "0x0",
      "l1BlockNumber": "0xa02cd2",
      "timeboosted": false
    },
    {
      "status": "0x1",
      "cumulativeGasUsed": "0x10b39",
      "logs": [
        {
          "address": "0x10be9b7b827dba02277e4b3775f950257f5b7e42",
          "topics": [
            "0xddf252ad1be2c89b69c2b068fc378daa952ba7f163c4a11628f55a4df523b3ef",
            "0x0000000000000000000000000000000000000000000000000000000000000000",
            "0x0000000000000000000000009ea593f2cbac4671268a609bbbd7276aea7eb689"
          ],
          "data": "0x000000000000000000000000000000000000000000000000000009184e72a000",
          "blockHash": "0x785718911925ea4ea4f41a671d735d38cf6d4addaf31e4d7e166b19572ffb541",
          "blockNumber": "0xf0cf1ca",
          "blockTimestamp": "0x69bfc6ba",
          "transactionHash": "0x5d43f98ed453563834d04e5d7553bed0f16a854a12253edc01d210e5fc7927b8",
          "transactionIndex": "0x1",
          "logIndex": "0x0",
          "removed": false
        }
      ],
      "logsBloom": "0x000000000000000000000000000000000000000000000000000000000000000000000000000000000000000000000000000000000000000000000000000000000000000000000000000000080000000000000000000000000000000000000000000000000200000000000000000008000000000000000000000000100000000000000000000000000000000000000080000000000000000000000010000000002000000000000000000000000000000000000000000000000000000000000000000000020000000000000000000000000000800000000000000000000000a0000000000000000000080000000000000000000000000000000000000000000000",
      "type": "0x2",
      "transactionHash": "0x5d43f98ed453563834d04e5d7553bed0f16a854a12253edc01d210e5fc7927b8",
      "transactionIndex": "0x1",
      "blockHash": "0x785718911925ea4ea4f41a671d735d38cf6d4addaf31e4d7e166b19572ffb541",
      "blockNumber": "0xf0cf1ca",
      "gasUsed": "0x10b39",
      "effectiveGasPrice": "0x1312d00",
      "from": "0x9ea593f2cbac4671268a609bbbd7276aea7eb689",
      "to": "0x10be9b7b827dba02277e4b3775f950257f5b7e42",
      "contractAddress": null,
      "gasUsedForL1": "0x0",
      "l1BlockNumber": "0xa02cd2",
      "timeboosted": false
    },
    {
      "status": "0x1",
      "cumulativeGasUsed": "0x3c147",
      "logs": [
        {
          "address": "0xf52dc6bd2ed650372710e0c995e7f7d9f5eb113a",
          "topics": [
            "0x79cb6ff5e6b24d80e2196db35d9381da61a2d9dfc7a1f3bc2a37c3322ae85e94",
            "0x0000000000000000000000009ea593f2cbac4671268a609bbbd7276aea7eb689"
          ],
          "data": "0x00000000000000000000000000000000000000000000000000000000000000200000000000000000000000000000000000000000000000000000000000000022697066733a2f2f73746f6d6174726163652f6465706c6f7965722d70726f66696c65000000000000000000000000000000000000000000000000000000000000",
          "blockHash": "0x69c667a098b4acc1087f3a1cb85d9734db33f169165ff9d12384f85f32b5764a",
          "blockNumber": "0xf0cf1cf",
          "blockTimestamp": "0x69bfc6bc",
          "transactionHash": "0xfd18c78404bd199e4e38cddac93ce85c202a5a4780a234aad65fc165a70d9bdc",
          "transactionIndex": "0x2",
          "logIndex": "0x1",
          "removed": false
        }
      ],
      "logsBloom": "0x00000000000000000000000000000000000000000000000000000000000000000000000008000000000000000000000000000000000000000000000000000000000100000000000000000000000000000008000000000000000010000000000000000000000000000000000000000000000000000000000000000000000000000000000000000000000000000000000000000000000000000000001000000000200000000000000000000000000000000000000000000000000000000000000000000000000000000000400000000000000000000000000000000000000080000000000000000000000000000000000000008000000000000000000000000000",
      "type": "0x2",
      "transactionHash": "0xfd18c78404bd199e4e38cddac93ce85c202a5a4780a234aad65fc165a70d9bdc",
      "transactionIndex": "0x2",
      "blockHash": "0x69c667a098b4acc1087f3a1cb85d9734db33f169165ff9d12384f85f32b5764a",
      "blockNumber": "0xf0cf1cf",
      "gasUsed": "0x237fe",
      "effectiveGasPrice": "0x1312d00",
      "from": "0x9ea593f2cbac4671268a609bbbd7276aea7eb689",
      "to": "0xf52dc6bd2ed650372710e0c995e7f7d9f5eb113a",
      "contractAddress": null,
      "gasUsedForL1": "0x0",
      "l1BlockNumber": "0xa02cd2",
      "timeboosted": false
    },
    {
      "status": "0x1",
      "cumulativeGasUsed": "0xb65b",
      "logs": [
        {
          "address": "0x461989c62b32cf80efa890fc4ef33b19097c95c1",
          "topics": [
            "0x8c5be1e5ebec7d5bd14f71427d1e84f3dd0314c0f7b2291e5b200ac8c7c3b925",
            "0x0000000000000000000000009ea593f2cbac4671268a609bbbd7276aea7eb689",
            "0x000000000000000000000000dd95c9d42df25c6b0db357099623fd4ab02a3e1d"
          ],
          "data": "0xffffffffffffffffffffffffffffffffffffffffffffffffffffffffffffffff",
          "blockHash": "0xa5c4096a8b6c4a93d9393c44ec0eff1862566b1de4cabd3b5d700c0a7a4d0db2",
          "blockNumber": "0xf0cf1db",
          "blockTimestamp": "0x69bfc6bf",
          "transactionHash": "0x3c2e451631f021ffef84e4e477218b38695a3d2bf18f270c3a40dea5338d016a",
          "transactionIndex": "0x1",
          "logIndex": "0x0",
          "removed": false
        }
      ],
      "logsBloom": "0x00000000000000000000000040000000000000000000200000000000000000000000000000000000000000000000000000000000000000000000000000200000000000000000000000000000000000000000000000000000000000000000000000000100000000000000000000000000000000000000000000000000000000000000000000000000000000000000000000000000000000000000001000000000220000000000400000000000000000000000000000000000000000000000000000000000000000000000000000000000000000000000200000000000000080000010000000000000000000000000000000000020000000000000000000000000",
      "type": "0x2",
      "transactionHash": "0x3c2e451631f021ffef84e4e477218b38695a3d2bf18f270c3a40dea5338d016a",
      "transactionIndex": "0x1",
      "blockHash": "0xa5c4096a8b6c4a93d9393c44ec0eff1862566b1de4cabd3b5d700c0a7a4d0db2",
      "blockNumber": "0xf0cf1db",
      "gasUsed": "0xb65b",
      "effectiveGasPrice": "0x13134d0",
      "from": "0x9ea593f2cbac4671268a609bbbd7276aea7eb689",
      "to": "0x461989c62b32cf80efa890fc4ef33b19097c95c1",
      "contractAddress": null,
      "gasUsedForL1": "0x0",
      "l1BlockNumber": "0xa02cd2",
      "timeboosted": false
    },
    {
      "status": "0x1",
      "cumulativeGasUsed": "0xb65b",
      "logs": [
        {
          "address": "0x10be9b7b827dba02277e4b3775f950257f5b7e42",
          "topics": [
            "0x8c5be1e5ebec7d5bd14f71427d1e84f3dd0314c0f7b2291e5b200ac8c7c3b925",
            "0x0000000000000000000000009ea593f2cbac4671268a609bbbd7276aea7eb689",
            "0x000000000000000000000000dd95c9d42df25c6b0db357099623fd4ab02a3e1d"
          ],
          "data": "0xffffffffffffffffffffffffffffffffffffffffffffffffffffffffffffffff",
          "blockHash": "0xca8eca057d091e27dccfb2b669115d2c2d5988c20d42c0ad1bdef52f76c815b3",
          "blockNumber": "0xf0cf1e4",
          "blockTimestamp": "0x69bfc6c3",
          "transactionHash": "0xbbbb621d9ab73fdddc1e58c06a910cc488a3f423164073551d65fdb83664b39c",
          "transactionIndex": "0x1",
          "logIndex": "0x0",
          "removed": false
        }
      ],
      "logsBloom": "0x00000000000000000000000040000000000000000000200000000000000000000000000000000000000000000000000000000000000000000000000000200000000000000000000000000000000000000000000000000000000000000000000000000000000000000000000000000000000000000000000000000000000000000000000000000000000000000000008000000000000000000000001000000000220000000000000000000000000000000000000000000000000000000000000000000000000000000000000000000000000080000000000000000000000080000010000000000000080000000000000000000020000000000000000000000000",
      "type": "0x2",
      "transactionHash": "0xbbbb621d9ab73fdddc1e58c06a910cc488a3f423164073551d65fdb83664b39c",
      "transactionIndex": "0x1",
      "blockHash": "0xca8eca057d091e27dccfb2b669115d2c2d5988c20d42c0ad1bdef52f76c815b3",
      "blockNumber": "0xf0cf1e4",
      "gasUsed": "0xb65b",
      "effectiveGasPrice": "0x13134d0",
      "from": "0x9ea593f2cbac4671268a609bbbd7276aea7eb689",
      "to": "0x10be9b7b827dba02277e4b3775f950257f5b7e42",
      "contractAddress": null,
      "gasUsedForL1": "0x0",
      "l1BlockNumber": "0xa02cd3",
      "timeboosted": false
    },
    {
      "status": "0x1",
      "cumulativeGasUsed": "0x5dde4",
      "logs": [
        {
          "address": "0xd5cf4958d34e87090be30fc1dc59b31b09868a4c",
          "topics": [
            "0xddf252ad1be2c89b69c2b068fc378daa952ba7f163c4a11628f55a4df523b3ef",
            "0x0000000000000000000000000000000000000000000000000000000000000000",
            "0x0000000000000000000000009ea593f2cbac4671268a609bbbd7276aea7eb689",
            "0x0000000000000000000000000000000000000000000000000000000000000001"
          ],
          "data": "0x",
          "blockHash": "0x7e230c775dbb37120f88cf78a75574f1915b2946604250302df846729a8a3642",
          "blockNumber": "0xf0cf1ea",
          "blockTimestamp": "0x69bfc6c4",
          "transactionHash": "0xcbaef9baa7269c4230f1a27599a1e21275ba73a53cc916f2e830258dc986ced6",
          "transactionIndex": "0x1",
          "logIndex": "0x0",
          "removed": false
        },
        {
          "address": "0xd5cf4958d34e87090be30fc1dc59b31b09868a4c",
          "topics": [
            "0x10845ceb65e3c7739ad74f73b23a88e958137c3e9f90eddd610b0e8f59b24a51",
            "0x0000000000000000000000000000000000000000000000000000000000000001",
            "0x0000000000000000000000009ea593f2cbac4671268a609bbbd7276aea7eb689",
            "0x000000000000000000000000461989c62b32cf80efa890fc4ef33b19097c95c1"
          ],
          "data": "0x000000000000000000000000000000000000000000000000000000000000271000000000000000000000000000000000000000000000000000000000047868c0",
          "blockHash": "0x7e230c775dbb37120f88cf78a75574f1915b2946604250302df846729a8a3642",
          "blockNumber": "0xf0cf1ea",
          "blockTimestamp": "0x69bfc6c4",
          "transactionHash": "0xcbaef9baa7269c4230f1a27599a1e21275ba73a53cc916f2e830258dc986ced6",
          "transactionIndex": "0x1",
          "logIndex": "0x1",
          "removed": false
        },
        {
          "address": "0xf52dc6bd2ed650372710e0c995e7f7d9f5eb113a",
          "topics": [
            "0xb50c9bc46f6ff8ff24782c72cbab16635f48e9b8e1eb493bdd31b82091d0db16",
            "0x0000000000000000000000009ea593f2cbac4671268a609bbbd7276aea7eb689"
          ],
          "data": "0x000000000000000000000000000000000000000000000000000000000000000100000000000000000000000000000000000000000000000000000000000000000000000000000000000000000000000000000000000000000000000000000000",
          "blockHash": "0x7e230c775dbb37120f88cf78a75574f1915b2946604250302df846729a8a3642",
          "blockNumber": "0xf0cf1ea",
          "blockTimestamp": "0x69bfc6c4",
          "transactionHash": "0xcbaef9baa7269c4230f1a27599a1e21275ba73a53cc916f2e830258dc986ced6",
          "transactionIndex": "0x1",
          "logIndex": "0x2",
          "removed": false
        }
      ],
      "logsBloom": "0x000000000000000001000000000000000000000000000000000000000000000000000000000000000000000008000000000000000000000000000000000400000000000000100010000000080000000000088080000400000000000000000000000000000200000000000000000008000000002000000000000000100000000000000000000000000000008000000000000000000000000000000010000000002000000000000000000000000000000000000000004000000000000000000000000000020000000000004000000000000000000000000000000000000000e0000000000008000200000000000000000008008000000000000000000000000000",
      "type": "0x2",
      "transactionHash": "0xcbaef9baa7269c4230f1a27599a1e21275ba73a53cc916f2e830258dc986ced6",
      "transactionIndex": "0x1",
      "blockHash": "0x7e230c775dbb37120f88cf78a75574f1915b2946604250302df846729a8a3642",
      "blockNumber": "0xf0cf1ea",
      "gasUsed": "0x5dde4",
      "effectiveGasPrice": "0x1314470",
      "from": "0x9ea593f2cbac4671268a609bbbd7276aea7eb689",
      "to": "0xd5cf4958d34e87090be30fc1dc59b31b09868a4c",
      "contractAddress": null,
      "gasUsedForL1": "0x0",
      "l1BlockNumber": "0xa02cd3",
      "timeboosted": false
    },
    {
      "status": "0x1",
      "cumulativeGasUsed": "0xc34c",
      "logs": [
        {
          "address": "0xd5cf4958d34e87090be30fc1dc59b31b09868a4c",
          "topics": [
            "0xa8993bbe79af1071dc039c1144feccfba01680aa0fdd10a4e92f1a12533e895c",
            "0x0000000000000000000000000000000000000000000000000000000000000001",
            "0x0000000000000000000000009ea593f2cbac4671268a609bbbd7276aea7eb689"
          ],
          "data": "0x",
          "blockHash": "0x9004fc8b195cac6e64abb1311b08c529b83922c176fee0a5b51fceff1b92ddb4",
          "blockNumber": "0xf0cf1f0",
          "blockTimestamp": "0x69bfc6c6",
          "transactionHash": "0xb98b72fe0569b46f39fc714c92693973110254c52ba07bc88c13107d329e218d",
          "transactionIndex": "0x1",
          "logIndex": "0x0",
          "removed": false
        }
      ],
      "logsBloom": "0x000000000000000000000000000000000000040000000000000000010000000000000000000000000000000000000000000000000000000000000000000400000000000000000000000000000000000000000080000400000000000000100000000000000000000000000000000000000000000000000000000000000000000000000000000000000000000000000000000000000000000000000010000000002000000000000000000000000000000000000000004000000000000000000000000000000000000000000000000000000000000000000000000000000000c0000000000000000200000000000000000000000000000000000000000000000000",
      "type": "0x2",
      "transactionHash": "0xb98b72fe0569b46f39fc714c92693973110254c52ba07bc88c13107d329e218d",
      "transactionIndex": "0x1",
      "blockHash": "0x9004fc8b195cac6e64abb1311b08c529b83922c176fee0a5b51fceff1b92ddb4",
      "blockNumber": "0xf0cf1f0",
      "gasUsed": "0xc34c",
      "effectiveGasPrice": "0x13134d0",
      "from": "0x9ea593f2cbac4671268a609bbbd7276aea7eb689",
      "to": "0xd5cf4958d34e87090be30fc1dc59b31b09868a4c",
      "contractAddress": null,
      "gasUsedForL1": "0x0",
      "l1BlockNumber": "0xa02cd3",
      "timeboosted": false
    },
    {
      "status": "0x1",
      "cumulativeGasUsed": "0x6b04d",
      "logs": [
        {
          "address": "0xd5cf4958d34e87090be30fc1dc59b31b09868a4c",
          "topics": [
            "0xddf252ad1be2c89b69c2b068fc378daa952ba7f163c4a11628f55a4df523b3ef",
            "0x0000000000000000000000000000000000000000000000000000000000000000",
            "0x0000000000000000000000009ea593f2cbac4671268a609bbbd7276aea7eb689",
            "0x0000000000000000000000000000000000000000000000000000000000000002"
          ],
          "data": "0x",
          "blockHash": "0x30fef8507eed8150120c27d6fa2042ea3a47ac0c76b2c95c5dbe32269739e39a",
          "blockNumber": "0xf0cf1f6",
          "blockTimestamp": "0x69bfc6c8",
          "transactionHash": "0x2ee2019c10ed2177be49153045f969770de587d9c912d9606fe7e08f85d6debd",
          "transactionIndex": "0x2",
          "logIndex": "0x3",
          "removed": false
        },
        {
          "address": "0xd5cf4958d34e87090be30fc1dc59b31b09868a4c",
          "topics": [
            "0x10845ceb65e3c7739ad74f73b23a88e958137c3e9f90eddd610b0e8f59b24a51",
            "0x0000000000000000000000000000000000000000000000000000000000000002",
            "0x0000000000000000000000009ea593f2cbac4671268a609bbbd7276aea7eb689",
            "0x00000000000000000000000010be9b7b827dba02277e4b3775f950257f5b7e42"
          ],
          "data": "0x00000000000000000000000000000000000000000000000000000000000013880000000000000000000000000000000000000000000000000000000008f0d180",
          "blockHash": "0x30fef8507eed8150120c27d6fa2042ea3a47ac0c76b2c95c5dbe32269739e39a",
          "blockNumber": "0xf0cf1f6",
          "blockTimestamp": "0x69bfc6c8",
          "transactionHash": "0x2ee2019c10ed2177be49153045f969770de587d9c912d9606fe7e08f85d6debd",
          "transactionIndex": "0x2",
          "logIndex": "0x4",
          "removed": false
        },
        {
          "address": "0xf52dc6bd2ed650372710e0c995e7f7d9f5eb113a",
          "topics": [
            "0xb50c9bc46f6ff8ff24782c72cbab16635f48e9b8e1eb493bdd31b82091d0db16",
            "0x0000000000000000000000009ea593f2cbac4671268a609bbbd7276aea7eb689"
          ],
          "data": "0x000000000000000000000000000000000000000000000000000000000000000200000000000000000000000000000000000000000000000000000000000000000000000000000000000000000000000000000000000000000000000000000000",
          "blockHash": "0x30fef8507eed8150120c27d6fa2042ea3a47ac0c76b2c95c5dbe32269739e39a",
          "blockNumber": "0xf0cf1f6",
          "blockTimestamp": "0x69bfc6c8",
          "transactionHash": "0x2ee2019c10ed2177be49153045f969770de587d9c912d9606fe7e08f85d6debd",
          "transactionIndex": "0x2",
          "logIndex": "0x5",
          "removed": false
        }
      ],
      "logsBloom": "0x040000000000000001000000000000002000000000000000000000000000000000000000000000000000000000000000000000000000000000000000000000000000000000000010000000080000000800088080000000000000000000000000000000000200000000000000000008000000000000000000000000100000000000000000000000000000008000000000000000000000000000000010000000002000000000000000040001000000000000000000004000000000000000000000000000020000000000004000000000000000000000000000000000000000a0000000000008000200000000000000000008008000008000000000000000000000",
      "type": "0x2",
      "transactionHash": "0x2ee2019c10ed2177be49153045f969770de587d9c912d9606fe7e08f85d6debd",
      "transactionIndex": "0x2",
      "blockHash": "0x30fef8507eed8150120c27d6fa2042ea3a47ac0c76b2c95c5dbe32269739e39a",
      "blockNumber": "0xf0cf1f6",
      "gasUsed": "0x515c8",
      "effectiveGasPrice": "0x131b9a0",
      "from": "0x9ea593f2cbac4671268a609bbbd7276aea7eb689",
      "to": "0xd5cf4958d34e87090be30fc1dc59b31b09868a4c",
      "contractAddress": null,
      "gasUsedForL1": "0x0",
      "l1BlockNumber": "0xa02cd3",
      "timeboosted": false
    },
    {
      "status": "0x1",
      "cumulativeGasUsed": "0xc34c",
      "logs": [
        {
          "address": "0xd5cf4958d34e87090be30fc1dc59b31b09868a4c",
          "topics": [
            "0xa8993bbe79af1071dc039c1144feccfba01680aa0fdd10a4e92f1a12533e895c",
            "0x0000000000000000000000000000000000000000000000000000000000000002",
            "0x0000000000000000000000009ea593f2cbac4671268a609bbbd7276aea7eb689"
          ],
          "data": "0x",
          "blockHash": "0x7c49fa7814359bfee9f0117b8ec4f6109bf4fd524f13f8ed4b5e46eb2a0c1750",
          "blockNumber": "0xf0cf1fc",
          "blockTimestamp": "0x69bfc6ca",
          "transactionHash": "0xc6bf7c95f1ef7625276e0b46b9dd45dd8d4dbd7a73ba1580fa402823a98caf1e",
          "transactionIndex": "0x1",
          "logIndex": "0x0",
          "removed": false
        }
      ],
      "logsBloom": "0x04000000000000000000000000000000000004000000000000000001000000000000000000000000000000000000000000000000000000000000000000000000000000000000000000000000000000000000008000000000000000000010000000000000000000000000000000000000000000000000000000000000000000000000000000000000000000000000000000000000000000000000001000000000200000000000000000000100000000000000000000400000000000000000000000000000000000000000000000000000000000000000000000000000000080000000000000000200000000000000000000000000008000000000000000000000",
      "type": "0x2",
      "transactionHash": "0xc6bf7c95f1ef7625276e0b46b9dd45dd8d4dbd7a73ba1580fa402823a98caf1e",
      "transactionIndex": "0x1",
      "blockHash": "0x7c49fa7814359bfee9f0117b8ec4f6109bf4fd524f13f8ed4b5e46eb2a0c1750",
      "blockNumber": "0xf0cf1fc",
      "gasUsed": "0xc34c",
      "effectiveGasPrice": "0x1312d00",
      "from": "0x9ea593f2cbac4671268a609bbbd7276aea7eb689",
      "to": "0xd5cf4958d34e87090be30fc1dc59b31b09868a4c",
      "contractAddress": null,
      "gasUsedForL1": "0x0",
      "l1BlockNumber": "0xa02cd3",
      "timeboosted": false
    }
  ],
  "libraries": [],
  "pending": [],
  "returns": {},
  "timestamp": 1774176075227,
  "chain": 421614,
  "commit": null
}