{
  "transactions": [
    {
      "hash": "0x02feb658739dcf907c70030ac2230c5ecf407e8d3cde5dd8dde667b4bcd0bcdf",
      "transactionType": "CREATE",
      "contractName": "MockERC20",
      "contractAddress": "0x878798c42a931d4b335173c7f233a9279db4d8cd",
      "function": null,
      "arguments": [
        "Mock USDC",
        "USDC",
        "6"
      ],
      "transaction": {
        "from": "0x9ea593f2cbac4671268a609bbbd7276aea7eb689",
        "gas": "0xab87e",
        "value": "0x0",
        "input": "0x60a06040523480156200001157600080fd5b5060405162000ad338038062000ad383398101604081905262000034916200012d565b8282600362000044838262000243565b50600462000053828262000243565b50505060ff16608052506200030f9050565b634e487b7160e01b600052604160045260246000fd5b600082601f8301126200008d57600080fd5b81516001600160401b0380821115620000aa57620000aa62000065565b604051601f8301601f19908116603f01168101908282118183101715620000d557620000d562000065565b8160405283815260209250866020858801011115620000f357600080fd5b600091505b83821015620001175785820183015181830184015290820190620000f8565b6000602085830101528094505050505092915050565b6000806000606084860312156200014357600080fd5b83516001600160401b03808211156200015b57600080fd5b62000169878388016200007b565b945060208601519150808211156200018057600080fd5b506200018f868287016200007b565b925050604084015160ff81168114620001a757600080fd5b809150509250925092565b600181811c90821680620001c757607f821691505b602082108103620001e857634e487b7160e01b600052602260045260246000fd5b50919050565b601f8211156200023e576000816000526020600020601f850160051c81016020861015620002195750805b601f850160051c820191505b818110156200023a5782815560010162000225565b5050505b505050565b81516001600160401b038111156200025f576200025f62000065565b6200027781620002708454620001b2565b84620001ee565b602080601f831160018114620002af5760008415620002965750858301515b600019600386901b1c1916600185901b1785556200023a565b600085815260208120601f198616915b82811015620002e057888601518255948401946001909101908401620002bf565b5085821015620002ff5787850151600019600388901b60f8161c191681555b5050505050600190811b01905550565b6080516107a86200032b600039600061011001526107a86000f3fe608060405234801561001057600080fd5b506004361061009e5760003560e01c806340c10f191161006657806340c10f191461013a57806370a082311461014f57806395d89b4114610178578063a9059cbb14610180578063dd62ed3e1461019357600080fd5b806306fdde03146100a3578063095ea7b3146100c157806318160ddd146100e457806323b872dd146100f6578063313ce56714610109575b600080fd5b6100ab6101cc565b6040516100b891906105f1565b60405180910390f35b6100d46100cf36600461065c565b61025e565b60405190151581526020016100b8565b6002545b6040519081526020016100b8565b6100d4610104366004610686565b610278565b60405160ff7f00000000000000000000000000000000000000000000000000000000000000001681526020016100b8565b61014d61014836600461065c565b61029c565b005b6100e861015d3660046106c2565b6001600160a01b031660009081526020819052604090205490565b6100ab6102aa565b6100d461018e36600461065c565b6102b9565b6100e86101a13660046106e4565b6001600160a01b03918216600090815260016020908152604080832093909416825291909152205490565b6060600380546101db90610717565b80601f016020809104026020016040519081016040528092919081815260200182805461020790610717565b80156102545780601f1061022957610100808354040283529160200191610254565b820191906000526020600020905b81548152906001019060200180831161023757829003601f168201915b5050505050905090565b60003361026c8185856102c7565b60019150505b92915050565b6000336102868582856102d9565b61029185858561035d565b506001949350505050565b6102a682826103bc565b5050565b6060600480546101db90610717565b60003361026c81858561035d565b6102d483838360016103f2565b505050565b6001600160a01b03838116600090815260016020908152604080832093861683529290522054600019811015610357578181101561034857604051637dc7a0d960e11b81526001600160a01b038416600482015260248101829052604481018390526064015b60405180910390fd5b610357848484840360006103f2565b50505050565b6001600160a01b03831661038757604051634b637e8f60e11b81526000600482015260240161033f565b6001600160a01b0382166103b15760405163ec442f0560e01b81526000600482015260240161033f565b6102d48383836104c7565b6001600160a01b0382166103e65760405163ec442f0560e01b81526000600482015260240161033f565b6102a6600083836104c7565b6001600160a01b03841661041c5760405163e602df0560e01b81526000600482015260240161033f565b6001600160a01b03831661044657604051634a1406b160e11b81526000600482015260240161033f565b6001600160a01b038085166000908152600160209081526040808320938716835292905220829055801561035757826001600160a01b0316846001600160a01b03167f8c5be1e5ebec7d5bd14f71427d1e84f3dd0314c0f7b2291e5b200ac8c7c3b925846040516104b991815260200190565b60405180910390a350505050565b6001600160a01b0383166104f25780600260008282546104e79190610751565b909155506105649050565b6001600160a01b038316600090815260208190526040902054818110156105455760405163391434e360e21b81526001600160a01b0385166004820152602481018290526044810183905260640161033f565b6001600160a01b03841660009081526020819052604090209082900390555b6001600160a01b0382166105805760028054829003905561059f565b6001600160a01b03821660009081526020819052604090208054820190555b816001600160a01b0316836001600160a01b03167fddf252ad1be2c89b69c2b068fc378daa952ba7f163c4a11628f55a4df523b3ef836040516105e491815260200190565b60405180910390a3505050565b60006020808352835180602085015260005b8181101561061f57858101830151858201604001528201610603565b506000604082860101526040601f19601f8301168501019250505092915050565b80356001600160a01b038116811461065757600080fd5b919050565b6000806040838503121561066f57600080fd5b61067883610640565b946020939093013593505050565b60008060006060848603121561069b57600080fd5b6106a484610640565b92506106b260208501610640565b9150604084013590509250925092565b6000602082840312156106d457600080fd5b6106dd82610640565b9392505050565b600080604083850312156106f757600080fd5b61070083610640565b915061070e60208401610640565b90509250929050565b600181811c9082168061072b57607f821691505b60208210810361074b57634e487b7160e01b600052602260045260246000fd5b50919050565b8082018082111561027257634e487b7160e01b600052601160045260246000fdfea2646970667358221220af5f2a6e9f80f2170a7c76130be452e294e7458ed2b55478c6c58771594fd8f764736f6c63430008180033000000000000000000000000000000000000000000000000000000000000006000000000000000000000000000000000000000000000000000000000000000a0000000000000000000000000000000000000000000000000000000000000000600000000000000000000000000000000000000000000000000000000000000094d6f636b2055534443000000000000000000000000000000000000000000000000000000000000000000000000000000000000000000000000000000000000045553444300000000000000000000000000000000000000000000000000000000",
        "nonce": "0x19",
        "chainId": "0x66eee"
      },
      "additionalContracts": [],
      "isFixedGasLimit": false
    },
    {
      "hash": "0x2f491dfa92c403a7cef02626cb8ba3f6d0684c012bf45c55328ca783fe451202",
      "transactionType": "CREATE",
      "contractName": "MockERC20",
      "contractAddress": "0x34109fb1b9b31fa4f29a84c2e093496f3135a339",
      "function": null,
      "arguments": [
        "Mock USDT",
        "USDT",
        "6"
      ],
      "transaction": {
        "from": "0x9ea593f2cbac4671268a609bbbd7276aea7eb689",
        "gas": "0xab87e",
        "value": "0x0",
        "input": "0x60a06040523480156200001157600080fd5b5060405162000ad338038062000ad383398101604081905262000034916200012d565b8282600362000044838262000243565b50600462000053828262000243565b50505060ff16608052506200030f9050565b634e487b7160e01b600052604160045260246000fd5b600082601f8301126200008d57600080fd5b81516001600160401b0380821115620000aa57620000aa62000065565b604051601f8301601f19908116603f01168101908282118183101715620000d557620000d562000065565b8160405283815260209250866020858801011115620000f357600080fd5b600091505b83821015620001175785820183015181830184015290820190620000f8565b6000602085830101528094505050505092915050565b6000806000606084860312156200014357600080fd5b83516001600160401b03808211156200015b57600080fd5b62000169878388016200007b565b945060208601519150808211156200018057600080fd5b506200018f868287016200007b565b925050604084015160ff81168114620001a757600080fd5b809150509250925092565b600181811c90821680620001c757607f821691505b602082108103620001e857634e487b7160e01b600052602260045260246000fd5b50919050565b601f8211156200023e576000816000526020600020601f850160051c81016020861015620002195750805b601f850160051c820191505b818110156200023a5782815560010162000225565b5050505b505050565b81516001600160401b038111156200025f576200025f62000065565b6200027781620002708454620001b2565b84620001ee565b602080601f831160018114620002af5760008415620002965750858301515b600019600386901b1c1916600185901b1785556200023a565b600085815260208120601f198616915b82811015620002e057888601518255948401946001909101908401620002bf565b5085821015620002ff5787850151600019600388901b60f8161c191681555b5050505050600190811b01905550565b6080516107a86200032b600039600061011001526107a86000f3fe608060405234801561001057600080fd5b506004361061009e5760003560e01c806340c10f191161006657806340c10f191461013a57806370a082311461014f57806395d89b4114610178578063a9059cbb14610180578063dd62ed3e1461019357600080fd5b806306fdde03146100a3578063095ea7b3146100c157806318160ddd146100e457806323b872dd146100f6578063313ce56714610109575b600080fd5b6100ab6101cc565b6040516100b891906105f1565b60405180910390f35b6100d46100cf36600461065c565b61025e565b60405190151581526020016100b8565b6002545b6040519081526020016100b8565b6100d4610104366004610686565b610278565b60405160ff7f00000000000000000000000000000000000000000000000000000000000000001681526020016100b8565b61014d61014836600461065c565b61029c565b005b6100e861015d3660046106c2565b6001600160a01b031660009081526020819052604090205490565b6100ab6102aa565b6100d461018e36600461065c565b6102b9565b6100e86101a13660046106e4565b6001600160a01b03918216600090815260016020908152604080832093909416825291909152205490565b6060600380546101db90610717565b80601f016020809104026020016040519081016040528092919081815260200182805461020790610717565b80156102545780601f1061022957610100808354040283529160200191610254565b820191906000526020600020905b81548152906001019060200180831161023757829003601f168201915b5050505050905090565b60003361026c8185856102c7565b60019150505b92915050565b6000336102868582856102d9565b61029185858561035d565b506001949350505050565b6102a682826103bc565b5050565b6060600480546101db90610717565b60003361026c81858561035d565b6102d483838360016103f2565b505050565b6001600160a01b03838116600090815260016020908152604080832093861683529290522054600019811015610357578181101561034857604051637dc7a0d960e11b81526001600160a01b038416600482015260248101829052604481018390526064015b60405180910390fd5b610357848484840360006103f2565b50505050565b6001600160a01b03831661038757604051634b637e8f60e11b81526000600482015260240161033f565b6001600160a01b0382166103b15760405163ec442f0560e01b81526000600482015260240161033f565b6102d48383836104c7565b6001600160a01b0382166103e65760405163ec442f0560e01b81526000600482015260240161033f565b6102a6600083836104c7565b6001600160a01b03841661041c5760405163e602df0560e01b81526000600482015260240161033f565b6001600160a01b03831661044657604051634a1406b160e11b81526000600482015260240161033f565b6001600160a01b038085166000908152600160209081526040808320938716835292905220829055801561035757826001600160a01b0316846001600160a01b03167f8c5be1e5ebec7d5bd14f71427d1e84f3dd0314c0f7b2291e5b200ac8c7c3b925846040516104b991815260200190565b60405180910390a350505050565b6001600160a01b0383166104f25780600260008282546104e79190610751565b909155506105649050565b6001600160a01b038316600090815260208190526040902054818110156105455760405163391434e360e21b81526001600160a01b0385166004820152602481018290526044810183905260640161033f565b6001600160a01b03841660009081526020819052604090209082900390555b6001600160a01b0382166105805760028054829003905561059f565b6001600160a01b03821660009081526020819052604090208054820190555b816001600160a01b0316836001600160a01b03167fddf252ad1be2c89b69c2b068fc378daa952ba7f163c4a11628f55a4df523b3ef836040516105e491815260200190565b60405180910390a3505050565b60006020808352835180602085015260005b8181101561061f57858101830151858201604001528201610603565b506000604082860101526040601f19601f8301168501019250505092915050565b80356001600160a01b038116811461065757600080fd5b919050565b6000806040838503121561066f57600080fd5b61067883610640565b946020939093013593505050565b60008060006060848603121561069b57600080fd5b6106a484610640565b92506106b260208501610640565b9150604084013590509250925092565b6000602082840312156106d457600080fd5b6106dd82610640565b9392505050565b600080604083850312156106f757600080fd5b61070083610640565b915061070e60208401610640565b90509250929050565b600181811c9082168061072b57607f821691505b60208210810361074b57634e487b7160e01b600052602260045260246000fd5b50919050565b8082018082111561027257634e487b7160e01b600052601160045260246000fdfea2646970667358221220af5f2a6e9f80f2170a7c76130be452e294e7458ed2b55478c6c58771594fd8f764736f6c63430008180033000000000000000000000000000000000000000000000000000000000000006000000000000000000000000000000000000000000000000000000000000000a0000000000000000000000000000000000000000000000000000000000000000600000000000000000000000000000000000000000000000000000000000000094d6f636b2055534454000000000000000000000000000000000000000000000000000000000000000000000000000000000000000000000000000000000000045553445400000000000000000000000000000000000000000000000000000000",
        "nonce": "0x1a",
        "chainId": "0x66eee"
      },
      "additionalContracts": [],
      "isFixedGasLimit": false
    },
    {
      "hash": "0xdd19970c4fa2a41ab61c201215475747a9ff1e77ca0fd04d778297a13faa77dc",
      "transactionType": "CREATE",
      "contractName": "AccessRegistry",
      "contractAddress": "0x069587ff0e03adb000d4b629354fc1acd04355d0",
      "function": null,
      "arguments": [
        "0x9EA593F2cBac4671268a609bBbd7276AeA7EB689"
      ],
      "transaction": {
        "from": "0x9ea593f2cbac4671268a609bbbd7276aea7eb689",
        "gas": "0x14d393",
        "value": "0x0",
        "input": "0x608060405234801561001057600080fd5b506040516112a23803806112a283398101604081905261002f91610114565b6001600160a01b038116610056576040516381fc73b760e01b815260040160405180910390fd5b610061600082610068565b5050610144565b6000828152602081815260408083206001600160a01b038516845290915281205460ff1661010a576000838152602081815260408083206001600160a01b03861684529091529020805460ff191660011790556100c23390565b6001600160a01b0316826001600160a01b0316847f2f8788117e7eff1d82e926ec794901d17c78024a50270940304540a733656f0d60405160405180910390a450600161010e565b5060005b92915050565b60006020828403121561012657600080fd5b81516001600160a01b038116811461013d57600080fd5b9392505050565b61114f806101536000396000f3fe608060405234801561001057600080fd5b50600436106101375760003560e01c8063736e18b2116100b8578063b35cd05f1161007c578063b35cd05f146102c2578063d547741f146102d5578063dc40441e146102e8578063dccab29f1461030d578063f5b541a614610320578063fe575a871461034757600080fd5b8063736e18b214610261578063891edd501461027457806391d14854146102945780639855f937146102a7578063a217fddf146102ba57600080fd5b806326909c7d116100ff57806326909c7d146102005780632f2ff15d1461021357806336568abe14610226578063404ccd07146102395780634cbee3bd1461024e57600080fd5b806301ffc9a71461013c57806302d7fd921461016457806320d3990414610199578063248a9ca3146101c857806325b8824a146101eb575b600080fd5b61014f61014a366004610c83565b61036a565b60405190151581526020015b60405180910390f35b61018b7f811427a0fa4932aef534bba16bc34e9b7b2d7d2a79c475fca1765f6cc1faebea81565b60405190815260200161015b565b61014f6101a7366004610cd0565b6001600160a01b031660009081526002602052604090206005015460ff1690565b61018b6101d6366004610ceb565b60009081526020819052604090206001015490565b6101fe6101f9366004610cd0565b6103a1565b005b6101fe61020e366004610cd0565b61046b565b6101fe610221366004610d04565b6104d1565b6101fe610234366004610d04565b6104fc565b61018b6000805160206110fa83398151915281565b6101fe61025c366004610cd0565b610534565b6101fe61026f366004610d30565b61061f565b610287610282366004610cd0565b6107ad565b60405161015b9190610de8565b61014f6102a2366004610d04565b6108da565b6101fe6102b5366004610cd0565b610903565b61018b600081565b61014f6102d0366004610cd0565b610968565b6101fe6102e3366004610d04565b6109ae565b6102fb6102f6366004610cd0565b6109d3565b60405161015b96959493929190610e44565b6101fe61031b366004610d30565b610a93565b61018b7f97667070c54ef182b0f5858b034beac1b6f3089aa2d3188bb1e8929f4fa9b92981565b61014f610355366004610cd0565b60016020526000908152604090205460ff1681565b60006001600160e01b03198216637965db0b60e01b148061039b57506301ffc9a760e01b6001600160e01b03198316145b92915050565b6000805160206110fa8339815191526103b981610b40565b6001600160a01b03821660009081526002602052604090206005015460ff1615610467576001600160a01b0382166000908152600260205260408120600181018054919261040683610e82565b9091555050600181015460028201546003830154604080519384526020840192909252908201526001600160a01b038416907fb50c9bc46f6ff8ff24782c72cbab16635f48e9b8e1eb493bdd31b82091d0db169060600160405180910390a2505b5050565b6000805160206110fa83398151915261048381610b40565b6001600160a01b03821660009081526002602052604090206005015460ff1615610467576001600160a01b038216600090815260026020819052604082209081018054919261040683610e82565b6000828152602081905260409020600101546104ec81610b40565b6104f68383610b4d565b50505050565b6001600160a01b03811633146105255760405163334bd91960e11b815260040160405180910390fd5b61052f8282610bdf565b505050565b7f811427a0fa4932aef534bba16bc34e9b7b2d7d2a79c475fca1765f6cc1faebea61055e81610b40565b6001600160a01b038216610585576040516381fc73b760e01b815260040160405180910390fd5b6001600160a01b03821660009081526001602052604090205460ff16156105cf57604051631fa10c9960e31b81526001600160a01b03831660048201526024015b60405180910390fd5b6001600160a01b0382166000818152600160208190526040808320805460ff1916909217909155517f768591b545cc91f16ad069ee63ae48d0a5abc936e493e41676f8ecfd51a0d0fc9190a25050565b3360009081526001602052604090205460ff1615610652576040516317c702c560e01b81523360048201526024016105c6565b3360009081526002602052604090206005015460ff161561068857604051633f3d9ea560e21b81523360048201526024016105c6565b60008190036106aa576040516349d2afa360e01b815260040160405180910390fd5b6040518060c0016040528083838080601f01602080910402602001604051908101604052809392919081815260200183838082843760009201829052509385525050506020808301829052604080840183905260608401839052426080850152600160a09094019390935233825260029052208151819061072b9082610f49565b50602082015160018201556040808301516002830155606083015160038301556080830151600483015560a0909201516005909101805460ff19169115159190911790555133907f79cb6ff5e6b24d80e2196db35d9381da61a2d9dfc7a1f3bc2a37c3322ae85e94906107a19085908590611009565b60405180910390a25050565b6107e86040518060c0016040528060608152602001600081526020016000815260200160008152602001600081526020016000151581525090565b6001600160a01b03821660009081526002602052604090819020815160c0810190925280548290829061081a90610ebf565b80601f016020809104026020016040519081016040528092919081815260200182805461084690610ebf565b80156108935780601f1061086857610100808354040283529160200191610893565b820191906000526020600020905b81548152906001019060200180831161087657829003601f168201915b50505091835250506001820154602082015260028201546040820152600382015460608201526004820154608082015260059091015460ff16151560a09091015292915050565b6000918252602082815260408084206001600160a01b0393909316845291905290205460ff1690565b6000805160206110fa83398151915261091b81610b40565b6001600160a01b03821660009081526002602052604090206005015460ff1615610467576001600160a01b0382166000908152600260205260408120600381018054919261040683610e82565b6001600160a01b03811660009081526002602052604081206005015460ff16801561039b5750506001600160a01b031660009081526001602052604090205460ff161590565b6000828152602081905260409020600101546109c981610b40565b6104f68383610bdf565b6002602052600090815260409020805481906109ee90610ebf565b80601f0160208091040260200160405190810160405280929190818152602001828054610a1a90610ebf565b8015610a675780601f10610a3c57610100808354040283529160200191610a67565b820191906000526020600020905b815481529060010190602001808311610a4a57829003601f168201915b505050600184015460028501546003860154600487015460059097015495969295919450925060ff1686565b3360009081526002602052604090206005015460ff16610ac857604051630617ba9160e21b81523360048201526024016105c6565b6000819003610aea576040516349d2afa360e01b815260040160405180910390fd5b336000908152600260205260409020610b04828483611038565b50336001600160a01b03167f6a89fb1598a8601c766879d13fdb5eaa8198e8f4121276dd368705115f72e4aa83836040516107a1929190611009565b610b4a8133610c4a565b50565b6000610b5983836108da565b610bd7576000838152602081815260408083206001600160a01b03861684529091529020805460ff19166001179055610b8f3390565b6001600160a01b0316826001600160a01b0316847f2f8788117e7eff1d82e926ec794901d17c78024a50270940304540a733656f0d60405160405180910390a450600161039b565b50600061039b565b6000610beb83836108da565b15610bd7576000838152602081815260408083206001600160a01b0386168085529252808320805460ff1916905551339286917ff6391f5c32d9c69d2a47ea670b442974b53935d1edc7fd64eb21e047a839171b9190a450600161039b565b610c5482826108da565b6104675760405163e2517d3f60e01b81526001600160a01b0382166004820152602481018390526044016105c6565b600060208284031215610c9557600080fd5b81356001600160e01b031981168114610cad57600080fd5b9392505050565b80356001600160a01b0381168114610ccb57600080fd5b919050565b600060208284031215610ce257600080fd5b610cad82610cb4565b600060208284031215610cfd57600080fd5b5035919050565b60008060408385031215610d1757600080fd5b82359150610d2760208401610cb4565b90509250929050565b60008060208385031215610d4357600080fd5b823567ffffffffffffffff80821115610d5b57600080fd5b818501915085601f830112610d6f57600080fd5b813581811115610d7e57600080fd5b866020828501011115610d9057600080fd5b60209290920196919550909350505050565b6000815180845260005b81811015610dc857602081850181015186830182015201610dac565b506000602082860101526020601f19601f83011685010191505092915050565b602081526000825160c06020840152610e0460e0840182610da2565b9050602084015160408401526040840151606084015260608401516080840152608084015160a084015260a0840151151560c08401528091505092915050565b60c081526000610e5760c0830189610da2565b602083019790975250604081019490945260608401929092526080830152151560a090910152919050565b600060018201610ea257634e487b7160e01b600052601160045260246000fd5b5060010190565b634e487b7160e01b600052604160045260246000fd5b600181811c90821680610ed357607f821691505b602082108103610ef357634e487b7160e01b600052602260045260246000fd5b50919050565b601f82111561052f576000816000526020600020601f850160051c81016020861015610f225750805b601f850160051c820191505b81811015610f4157828155600101610f2e565b505050505050565b815167ffffffffffffffff811115610f6357610f63610ea9565b610f7781610f718454610ebf565b84610ef9565b602080601f831160018114610fac5760008415610f945750858301515b600019600386901b1c1916600185901b178555610f41565b600085815260208120601f198616915b82811015610fdb57888601518255948401946001909101908401610fbc565b5085821015610ff95787850151600019600388901b60f8161c191681555b5050505050600190811b01905550565b60208152816020820152818360408301376000818301604090810191909152601f909201601f19160101919050565b67ffffffffffffffff83111561105057611050610ea9565b6110648361105e8354610ebf565b83610ef9565b6000601f84116001811461109857600085156110805750838201355b600019600387901b1c1916600186901b1783556110f2565b600083815260209020601f19861690835b828110156110c957868501358255602094850194600190920191016110a9565b50868210156110e65760001960f88860031b161c19848701351681555b505060018560011b0183555b505050505056feb8179c2726c8d8961ef054875ab3f4c1c3d34e1cb429c3d5e0bc97958e4cab9da2646970667358221220a8e9d543e12035f68065a0fd510192adbac3ff46b4b923f6766d15725eacb78d64736f6c634300081800330000000000000000000000009ea593f2cbac4671268a609bbbd7276aea7eb689",
        "nonce": "0x1b",
        "chainId": "0x66eee"
      },
      "additionalContracts": [],
      "isFixedGasLimit": false
    },
    {
      "hash": "0x6cd281d476c95ed7611c95c2c390ec00febb44f71f6877f7a646ba0678f435a6",
      "transactionType": "CREATE",
      "contractName": "ProjectNFT",
      "contractAddress": "0xb7cb1413aa4b03106204239dc066ada57fc68dce",
      "function": null,
      "arguments": [
        "0x9EA593F2cBac4671268a609bBbd7276AeA7EB689",
        "0x069587ff0e03aDB000d4b629354Fc1Acd04355d0"
      ],
      "transaction": {
        "from": "0x9ea593f2cbac4671268a609bbbd7276aea7eb689",
        "gas": "0x288d02",
        "value": "0x0",
        "input": "0x60a06040523480156200001157600080fd5b50604051620025ec380380620025ec8339810160408190526200003491620001e0565b6040518060400160405280601281526020017114dd1bdb58551c9858d948141c9bda9958dd60721b81525060405180604001604052806004815260200163053544d560e41b81525081600090816200008d9190620002bf565b5060016200009c8282620002bf565b5050506001600160a01b038216620000c7576040516311f604a960e11b815260040160405180910390fd5b6001600160a01b038116620000ef576040516311f604a960e11b815260040160405180910390fd5b620000fc60008362000110565b506001600160a01b0316608052506200038b565b60008281526006602090815260408083206001600160a01b038516845290915281205460ff16620001b95760008381526006602090815260408083206001600160a01b03861684529091529020805460ff19166001179055620001703390565b6001600160a01b0316826001600160a01b0316847f2f8788117e7eff1d82e926ec794901d17c78024a50270940304540a733656f0d60405160405180910390a4506001620001bd565b5060005b92915050565b80516001600160a01b0381168114620001db57600080fd5b919050565b60008060408385031215620001f457600080fd5b620001ff83620001c3565b91506200020f60208401620001c3565b90509250929050565b634e487b7160e01b600052604160045260246000fd5b600181811c908216806200024357607f821691505b6020821081036200026457634e487b7160e01b600052602260045260246000fd5b50919050565b601f821115620002ba576000816000526020600020601f850160051c81016020861015620002955750805b601f850160051c820191505b81811015620002b657828155600101620002a1565b5050505b505050565b81516001600160401b03811115620002db57620002db62000218565b620002f381620002ec84546200022e565b846200026a565b602080601f8311600181146200032b5760008415620003125750858301515b600019600386901b1c1916600185901b178555620002b6565b600085815260208120601f198616915b828110156200035c578886015182559484019460019091019084016200033b565b50858210156200037b5787850151600019600388901b60f8161c191681555b5050505050600190811b01905550565b608051612230620003bc6000396000818161040101528181610817015281816108be0152610c3b01526122306000f3fe608060405234801561001057600080fd5b50600436106101cf5760003560e01c80636352211e11610104578063a22cb465116100a2578063e6f29b0511610071578063e6f29b05146103fc578063e985e9c514610423578063ed1ca91a14610436578063f0f3f2c81461044957600080fd5b8063a22cb465146103b0578063b88d4fde146103c3578063c87b56dd146103d6578063d547741f146103e957600080fd5b806386133338116100de578063861333381461037a57806391d148541461038d57806395d89b41146103a0578063a217fddf146103a857600080fd5b80636352211e1461034157806369b04f191461035457806370a082311461036757600080fd5b80632f2ff15d116101715780633a1b3d311161014b5780633a1b3d31146102eb578063404ccd07146102fe57806342842e0e146103255780635696b1891461033857600080fd5b80632f2ff15d146102bc57806336568abe146102cf57806336fbad26146102e257600080fd5b8063081812fc116101ad578063081812fc14610246578063095ea7b31461027157806323b872dd14610286578063248a9ca31461029957600080fd5b806301ffc9a7146101d457806302d7fd92146101fc57806306fdde0314610231575b600080fd5b6101e76101e2366004611a4b565b610469565b60405190151581526020015b60405180910390f35b6102237f811427a0fa4932aef534bba16bc34e9b7b2d7d2a79c475fca1765f6cc1faebea81565b6040519081526020016101f3565b61023961047a565b6040516101f39190611ab8565b610259610254366004611acb565b61050c565b6040516001600160a01b0390911681526020016101f3565b61028461027f366004611b00565b610535565b005b610284610294366004611b2a565b610544565b6102236102a7366004611acb565b60009081526006602052604090206001015490565b6102846102ca366004611b66565b6105d4565b6102846102dd366004611b66565b6105f9565b61022360075481565b6102846102f9366004611b92565b610631565b6102237fb8179c2726c8d8961ef054875ab3f4c1c3d34e1cb429c3d5e0bc97958e4cab9d81565b610284610333366004611b2a565b6106c6565b610223611d4c81565b61025961034f366004611acb565b6106e1565b610284610362366004611acb565b6106ec565b610223610375366004611bc6565b6107b7565b610223610388366004611c2a565b6107ff565b6101e761039b366004611b66565b610caf565b610239610cda565b610223600081565b6102846103be366004611cfa565b610ce9565b6102846103d1366004611d3c565b610cf4565b6102396103e4366004611acb565b610d0c565b6102846103f7366004611b66565b610da6565b6102597f000000000000000000000000000000000000000000000000000000000000000081565b6101e7610431366004611e18565b610dcb565b610284610444366004611acb565b610df9565b61045c610457366004611acb565b610ec6565b6040516101f39190611e7a565b6000610474826110c7565b92915050565b60606000805461048990611f75565b80601f01602080910402602001604051908101604052809291908181526020018280546104b590611f75565b80156105025780601f106104d757610100808354040283529160200191610502565b820191906000526020600020905b8154815290600101906020018083116104e557829003601f168201915b5050505050905090565b6000610517826110ec565b506000828152600460205260409020546001600160a01b0316610474565b610540828233611125565b5050565b6001600160a01b03821661057357604051633250574960e11b8152600060048201526024015b60405180910390fd5b6000610580838333611132565b9050836001600160a01b0316816001600160a01b0316146105ce576040516364283d7b60e01b81526001600160a01b038086166004830152602482018490528216604482015260640161056a565b50505050565b6000828152600660205260409020600101546105ef8161122b565b6105ce8383611238565b6001600160a01b03811633146106225760405163334bd91960e11b815260040160405180910390fd5b61062c82826112cc565b505050565b7fb8179c2726c8d8961ef054875ab3f4c1c3d34e1cb429c3d5e0bc97958e4cab9d61065b8161122b565b8161066584611339565b600b01805461ff00191661010083600881111561068457610684611e42565b0217905550827f8fb6fda973f304b2834c4147004045448416c05b253872373ac5b19f4a5b7a5d836040516106b99190611faf565b60405180910390a2505050565b61062c83838360405180602001604052806000815250610cf4565b60006104748261137c565b7f811427a0fa4932aef534bba16bc34e9b7b2d7d2a79c475fca1765f6cc1faebea6107168161122b565b600061072183611339565b90506000600b820154610100900460ff16600881111561074357610743611e42565b14610776578281600b0160019054906101000a900460ff16604051630dbe4e3160e11b815260040161056a929190611fbd565b600b8101805461ff00191661080017905560405183907fcdcfe8bd58f12ac7a585895f7045b6322a1ec7e7179377dc3bfa8434ed22e72490600090a2505050565b60006001600160a01b0382166107e3576040516322718ad960e21b81526000600482015260240161056a565b506001600160a01b031660009081526003602052604090205490565b604051630834e64160e21b81523360048201526000907f00000000000000000000000000000000000000000000000000000000000000006001600160a01b0316906320d3990490602401602060405180830381865afa158015610866573d6000803e3d6000fd5b505050506040513d601f19601f8201168201806040525081019061088a9190611fd1565b6108a9576040516367e804b360e11b815233600482015260240161056a565b60405163fe575a8760e01b81523360048201527f00000000000000000000000000000000000000000000000000000000000000006001600160a01b03169063fe575a8790602401602060405180830381865afa15801561090d573d6000803e3d6000fd5b505050506040513d601f19601f820116820180604052508101906109319190611fd1565b15610951576040516316a39ebd60e31b815233600482015260240161056a565b88158061095c575087155b1561097a57604051632513348d60e01b815260040160405180910390fd5b8360000361099b57604051632513348d60e01b815260040160405180910390fd5b610e108510156109be5760405163012f1ac360e21b815260040160405180910390fd5b6007600081546109cd90612004565b9182905550905060006127106109e5611d4c8b61201d565b6109ef9190612034565b9050604051806101a00160405280336001600160a01b031681526020018e6001600160a01b031681526020018d8d8080601f016020809104026020016040519081016040528093929190818152602001838380828437600092019190915250505090825250602081018c9052604081018b905260608101839052608081018a905260a0810189905260c001610a848842612056565b815260200186815260200185858080601f016020809104026020016040519081016040528093929190818152602001838380828437600092018290525093855250505060208201819052604090910152600083815260086020908152604091829020835181546001600160a01b03199081166001600160a01b0392831617835592850151600183018054909416911617909155908201516002820190610b2a90826120b1565b50606082015160038201556080820151600482015560a0820151600582015560c0820151600682015560e0820151600782015561010082015160088201556101208201516009820155610140820151600a820190610b8890826120b1565b50610160820151600b8201805491151560ff198316811782556101808501519261ff001990911661ffff1990911617610100836008811115610bcc57610bcc611e42565b0217905550905050610bde3383611387565b604080518b8152602081018390526001600160a01b038f1691339185917f10845ceb65e3c7739ad74f73b23a88e958137c3e9f90eddd610b0e8f59b24a51910160405180910390a46040516312dc412560e11b81523360048201527f00000000000000000000000000000000000000000000000000000000000000006001600160a01b0316906325b8824a90602401600060405180830381600087803b158015610c8757600080fd5b505af1158015610c9b573d6000803e3d6000fd5b50505050509b9a5050505050505050505050565b60009182526006602090815260408084206001600160a01b0393909316845291905290205460ff1690565b60606001805461048990611f75565b6105403383836113ec565b610cff848484610544565b6105ce338585858561148b565b6060610d17826110ec565b506000610d5460408051808201909152601e81527f68747470733a2f2f6170692e73746f6d6174726164652e696f2f6e66742f0000602082015290565b90506000815111610d745760405180602001604052806000815250610d9f565b80610d7e846115b6565b604051602001610d8f929190612171565b6040516020818303038152906040525b9392505050565b600082815260066020526040902060010154610dc18161122b565b6105ce83836112cc565b6001600160a01b03918216600090815260056020908152604080832093909416825291909152205460ff1690565b7f811427a0fa4932aef534bba16bc34e9b7b2d7d2a79c475fca1765f6cc1faebea610e238161122b565b6000610e2e83611339565b90506000600b820154610100900460ff166008811115610e5057610e50611e42565b14610e83578281600b0160019054906101000a900460ff16604051630dbe4e3160e11b815260040161056a929190611fbd565b600b8101805461ffff1916610101179055604051339084907fa8993bbe79af1071dc039c1144feccfba01680aa0fdd10a4e92f1a12533e895c90600090a3505050565b610ece6119a9565b610ed782611649565b60008281526008602090815260409182902082516101a08101845281546001600160a01b039081168252600183015416928101929092526002810180549293919291840191610f2590611f75565b80601f0160208091040260200160405190810160405280929190818152602001828054610f5190611f75565b8015610f9e5780601f10610f7357610100808354040283529160200191610f9e565b820191906000526020600020905b815481529060010190602001808311610f8157829003601f168201915b5050505050815260200160038201548152602001600482015481526020016005820154815260200160068201548152602001600782015481526020016008820154815260200160098201548152602001600a82018054610ffd90611f75565b80601f016020809104026020016040519081016040528092919081815260200182805461102990611f75565b80156110765780601f1061104b57610100808354040283529160200191611076565b820191906000526020600020905b81548152906001019060200180831161105957829003601f168201915b5050509183525050600b82015460ff808216151560208401526040909201916101009091041660088111156110ad576110ad611e42565b60088111156110be576110be611e42565b90525092915050565b60006001600160e01b03198216637965db0b60e01b1480610474575061047482611678565b6000818152600260205260408120546001600160a01b03168061047457604051637e27328960e01b81526004810184905260240161056a565b61062c83838360016116c8565b6000828152600260205260408120546001600160a01b039081169083161561115f5761115f8184866117ce565b6001600160a01b0381161561119d5761117c6000856000806116c8565b6001600160a01b038116600090815260036020526040902080546000190190555b6001600160a01b038516156111cc576001600160a01b0385166000908152600360205260409020805460010190555b60008481526002602052604080822080546001600160a01b0319166001600160a01b0389811691821790925591518793918516917fddf252ad1be2c89b69c2b068fc378daa952ba7f163c4a11628f55a4df523b3ef91a4949350505050565b6112358133611832565b50565b60006112448383610caf565b6112c45760008381526006602090815260408083206001600160a01b03861684529091529020805460ff1916600117905561127c3390565b6001600160a01b0316826001600160a01b0316847f2f8788117e7eff1d82e926ec794901d17c78024a50270940304540a733656f0d60405160405180910390a4506001610474565b506000610474565b60006112d88383610caf565b156112c45760008381526006602090815260408083206001600160a01b0386168085529252808320805460ff1916905551339286917ff6391f5c32d9c69d2a47ea670b442974b53935d1edc7fd64eb21e047a839171b9190a4506001610474565b6000811580611349575060075482115b1561136a57604051636dd15c7f60e01b81526004810183905260240161056a565b50600090815260086020526040902090565b6000610474826110ec565b6001600160a01b0382166113b157604051633250574960e11b81526000600482015260240161056a565b60006113bf83836000611132565b90506001600160a01b0381161561062c576040516339e3563760e11b81526000600482015260240161056a565b6001600160a01b03821661141e57604051630b61174360e31b81526001600160a01b038316600482015260240161056a565b6001600160a01b03838116600081815260056020908152604080832094871680845294825291829020805460ff191686151590811790915591519182527f17307eab39ab6107e8899845ad3d59bd9653f200f220920489ca2b5937696c31910160405180910390a3505050565b6001600160a01b0383163b156115af57604051630a85bd0160e11b81526001600160a01b0384169063150b7a02906114cd9088908890879087906004016121a0565b6020604051808303816000875af1925050508015611508575060408051601f3d908101601f19168201909252611505918101906121dd565b60015b611571573d808015611536576040519150601f19603f3d011682016040523d82523d6000602084013e61153b565b606091505b50805160000361156957604051633250574960e11b81526001600160a01b038516600482015260240161056a565b805181602001fd5b6001600160e01b03198116630a85bd0160e11b146115ad57604051633250574960e11b81526001600160a01b038516600482015260240161056a565b505b5050505050565b606060006115c38361186b565b600101905060008167ffffffffffffffff8111156115e3576115e3611d26565b6040519080825280601f01601f19166020018201604052801561160d576020820181803683370190505b5090508181016020015b600019016f181899199a1a9b1b9c1cb0b131b232b360811b600a86061a8153600a850494508461161757509392505050565b801580611657575060075481115b1561123557604051636dd15c7f60e01b81526004810182905260240161056a565b60006001600160e01b031982166380ac58cd60e01b14806116a957506001600160e01b03198216635b5e139f60e01b145b8061047457506301ffc9a760e01b6001600160e01b0319831614610474565b80806116dc57506001600160a01b03821615155b1561179e5760006116ec846110ec565b90506001600160a01b038316158015906117185750826001600160a01b0316816001600160a01b031614155b801561172b57506117298184610dcb565b155b156117545760405163a9fbf51f60e01b81526001600160a01b038416600482015260240161056a565b811561179c5783856001600160a01b0316826001600160a01b03167f8c5be1e5ebec7d5bd14f71427d1e84f3dd0314c0f7b2291e5b200ac8c7c3b92560405160405180910390a45b505b5050600090815260046020526040902080546001600160a01b0319166001600160a01b0392909216919091179055565b6117d9838383611943565b61062c576001600160a01b03831661180757604051637e27328960e01b81526004810182905260240161056a565b60405163177e802f60e01b81526001600160a01b03831660048201526024810182905260440161056a565b61183c8282610caf565b6105405760405163e2517d3f60e01b81526001600160a01b03821660048201526024810183905260440161056a565b60008072184f03e93ff9f4daa797ed6e38ed64bf6a1f0160401b83106118aa5772184f03e93ff9f4daa797ed6e38ed64bf6a1f0160401b830492506040015b6d04ee2d6d415b85acef810000000083106118d6576d04ee2d6d415b85acef8100000000830492506020015b662386f26fc1000083106118f457662386f26fc10000830492506010015b6305f5e100831061190c576305f5e100830492506008015b612710831061192057612710830492506004015b60648310611932576064830492506002015b600a83106104745760010192915050565b60006001600160a01b038316158015906119a15750826001600160a01b0316846001600160a01b0316148061197d575061197d8484610dcb565b806119a157506000828152600460205260409020546001600160a01b038481169116145b949350505050565b604051806101a0016040528060006001600160a01b0316815260200160006001600160a01b0316815260200160608152602001600081526020016000815260200160008152602001600081526020016000815260200160008152602001600081526020016060815260200160001515815260200160006008811115611a3057611a30611e42565b905290565b6001600160e01b03198116811461123557600080fd5b600060208284031215611a5d57600080fd5b8135610d9f81611a35565b60005b83811015611a83578181015183820152602001611a6b565b50506000910152565b60008151808452611aa4816020860160208601611a68565b601f01601f19169290920160200192915050565b602081526000610d9f6020830184611a8c565b600060208284031215611add57600080fd5b5035919050565b80356001600160a01b0381168114611afb57600080fd5b919050565b60008060408385031215611b1357600080fd5b611b1c83611ae4565b946020939093013593505050565b600080600060608486031215611b3f57600080fd5b611b4884611ae4565b9250611b5660208501611ae4565b9150604084013590509250925092565b60008060408385031215611b7957600080fd5b82359150611b8960208401611ae4565b90509250929050565b60008060408385031215611ba557600080fd5b82359150602083013560098110611bbb57600080fd5b809150509250929050565b600060208284031215611bd857600080fd5b610d9f82611ae4565b60008083601f840112611bf357600080fd5b50813567ffffffffffffffff811115611c0b57600080fd5b602083019150836020828501011115611c2357600080fd5b9250929050565b60008060008060008060008060008060006101208c8e031215611c4c57600080fd5b611c558c611ae4565b9a5067ffffffffffffffff8060208e01351115611c7157600080fd5b611c818e60208f01358f01611be1565b909b50995060408d0135985060608d0135975060808d0135965060a08d0135955060c08d0135945060e08d013593506101008d0135811015611cc257600080fd5b50611cd48d6101008e01358e01611be1565b81935080925050509295989b509295989b9093969950565b801515811461123557600080fd5b60008060408385031215611d0d57600080fd5b611d1683611ae4565b91506020830135611bbb81611cec565b634e487b7160e01b600052604160045260246000fd5b60008060008060808587031215611d5257600080fd5b611d5b85611ae4565b9350611d6960208601611ae4565b925060408501359150606085013567ffffffffffffffff80821115611d8d57600080fd5b818701915087601f830112611da157600080fd5b813581811115611db357611db3611d26565b604051601f8201601f19908116603f01168101908382118183101715611ddb57611ddb611d26565b816040528281528a6020848701011115611df457600080fd5b82602086016020830137600060208483010152809550505050505092959194509250565b60008060408385031215611e2b57600080fd5b611e3483611ae4565b9150611b8960208401611ae4565b634e487b7160e01b600052602160045260246000fd5b60098110611e7657634e487b7160e01b600052602160045260246000fd5b9052565b60208152611e946020820183516001600160a01b03169052565b60006020830151611eb060408401826001600160a01b03169052565b5060408301516101a0806060850152611ecd6101c0850183611a8c565b915060608501516080850152608085015160a085015260a085015160c085015260c085015160e085015260e0850151610100818187015280870151915050610120818187015280870151915050610140818187015280870151915050610160601f198685030181870152611f418483611a8c565b935080870151915050610180611f5a8187018315159052565b8601519050611f6b85830182611e58565b5090949350505050565b600181811c90821680611f8957607f821691505b602082108103611fa957634e487b7160e01b600052602260045260246000fd5b50919050565b602081016104748284611e58565b82815260408101610d9f6020830184611e58565b600060208284031215611fe357600080fd5b8151610d9f81611cec565b634e487b7160e01b600052601160045260246000fd5b60006001820161201657612016611fee565b5060010190565b808202811582820484141761047457610474611fee565b60008261205157634e487b7160e01b600052601260045260246000fd5b500490565b8082018082111561047457610474611fee565b601f82111561062c576000816000526020600020601f850160051c810160208610156120925750805b601f850160051c820191505b818110156115ad5782815560010161209e565b815167ffffffffffffffff8111156120cb576120cb611d26565b6120df816120d98454611f75565b84612069565b602080601f83116001811461211457600084156120fc5750858301515b600019600386901b1c1916600185901b1785556115ad565b600085815260208120601f198616915b8281101561214357888601518255948401946001909101908401612124565b50858210156121615787850151600019600388901b60f8161c191681555b5050505050600190811b01905550565b60008351612183818460208801611a68565b835190830190612197818360208801611a68565b01949350505050565b6001600160a01b03858116825284166020820152604081018390526080606082018190526000906121d390830184611a8c565b9695505050505050565b6000602082840312156121ef57600080fd5b8151610d9f81611a3556fea2646970667358221220177569d72a2130cb92888dd4571d1d8bea8bc3baae1723fd840bf09f9d78c87464736f6c634300081800330000000000000000000000009ea593f2cbac4671268a609bbbd7276aea7eb689000000000000000000000000069587ff0e03adb000d4b629354fc1acd04355d0",
        "nonce": "0x1c",
        "chainId": "0x66eee"
      },
      "additionalContracts": [],
      "isFixedGasLimit": false
    },
    {
      "hash": "0x5ce8f7b14a44662f9045b0ff39f18f6ac98acc6478b2b9c0a774c1bfaada3910",
      "transactionType": "CREATE",
      "contractName": "Treasury",
      "contractAddress": "0x639c7f18e91fb20505c242be9e1413171a674654",
      "function": null,
      "arguments": [
        "0x9EA593F2cBac4671268a609bBbd7276AeA7EB689",
        "0x9EA593F2cBac4671268a609bBbd7276AeA7EB689"
      ],
      "transaction": {
        "from": "0x9ea593f2cbac4671268a609bbbd7276aea7eb689",
        "gas": "0xe718c",
        "value": "0x0",
        "input": "0x608060405234801561001057600080fd5b50604051610c8e380380610c8e83398101604081905261002f916101a5565b600180556001600160a01b03821661005a5760405163c7bd9f1560e01b815260040160405180910390fd5b6001600160a01b0381166100815760405163c7bd9f1560e01b815260040160405180910390fd5b61008c6000836100dd565b50600380546001600160a01b0319166001600160a01b0383169081179091556040516000907ff84f6b525c89a18c80bbbc0c62a7eb5390956d6b8432ab067b49963a98f8c38f908290a350506101d8565b6000828152602081815260408083206001600160a01b038516845290915281205460ff1661017f576000838152602081815260408083206001600160a01b03861684529091529020805460ff191660011790556101373390565b6001600160a01b0316826001600160a01b0316847f2f8788117e7eff1d82e926ec794901d17c78024a50270940304540a733656f0d60405160405180910390a4506001610183565b5060005b92915050565b80516001600160a01b03811681146101a057600080fd5b919050565b600080604083850312156101b857600080fd5b6101c183610189565b91506101cf60208401610189565b90509250929050565b610aa7806101e76000396000f3fe608060405234801561001057600080fd5b50600436106100ea5760003560e01c80638831e9cf1161008c578063cd88af6e11610066578063cd88af6e14610217578063d547741f1461022a578063eb65fe231461023d578063fa2af9da1461025057600080fd5b80638831e9cf146101e957806391d14854146101fc578063a217fddf1461020f57600080fd5b8063248a9ca3116100c8578063248a9ca3146101775780632f2ff15d1461019a57806336568abe146101af578063404ccd07146101c257600080fd5b806301ffc9a7146100ef57806308e8e34d1461011757806320df435914610150575b600080fd5b6101026100fd366004610942565b61027b565b60405190151581526020015b60405180910390f35b61014261012536600461098f565b600260209081526000928352604080842090915290825290205481565b60405190815260200161010e565b6101427fbf233dd2aafeb4d50879c4aa5c81e96d92f6e6945c906a58f9f2d1c1631b4b2681565b6101426101853660046109bb565b60009081526020819052604090206001015490565b6101ad6101a836600461098f565b6102b2565b005b6101ad6101bd36600461098f565b6102dd565b6101427fb8179c2726c8d8961ef054875ab3f4c1c3d34e1cb429c3d5e0bc97958e4cab9d81565b6101ad6101f73660046109d4565b610315565b61010261020a36600461098f565b61039a565b610142600081565b6101ad6102253660046109ef565b6103c3565b6101ad61023836600461098f565b6104fe565b6101ad61024b3660046109ef565b610523565b600354610263906001600160a01b031681565b6040516001600160a01b03909116815260200161010e565b60006001600160e01b03198216637965db0b60e01b14806102ac57506301ffc9a760e01b6001600160e01b03198316145b92915050565b6000828152602081905260409020600101546102cd816106c8565b6102d783836106d5565b50505050565b6001600160a01b03811633146103065760405163334bd91960e11b815260040160405180910390fd5b6103108282610767565b505050565b6000610320816106c8565b6001600160a01b0382166103475760405163c7bd9f1560e01b815260040160405180910390fd5b600380546001600160a01b038481166001600160a01b0319831681179093556040519116919082907ff84f6b525c89a18c80bbbc0c62a7eb5390956d6b8432ab067b49963a98f8c38f90600090a3505050565b6000918252602082815260408084206001600160a01b0393909316845291905290205460ff1690565b7fb8179c2726c8d8961ef054875ab3f4c1c3d34e1cb429c3d5e0bc97958e4cab9d6103ed816106c8565b6001600160a01b0384166104145760405163c7bd9f1560e01b815260040160405180910390fd5b6001600160a01b03821661043b5760405163c7bd9f1560e01b815260040160405180910390fd5b8260000361045c57604051631ed8e2fd60e21b815260040160405180910390fd5b60008581526002602090815260408083206001600160a01b03881684529091528120805485929061048e908490610a4b565b909155506104a990506001600160a01b0385168330866107d2565b816001600160a01b0316846001600160a01b0316867f984a71c9d95fd4794aeba33ae72edfec22053fde75488d63abef9dc69ee795af866040516104ef91815260200190565b60405180910390a45050505050565b600082815260208190526040902060010154610519816106c8565b6102d78383610767565b7fb8179c2726c8d8961ef054875ab3f4c1c3d34e1cb429c3d5e0bc97958e4cab9d61054d816106c8565b610555610839565b6001600160a01b03841661057c5760405163c7bd9f1560e01b815260040160405180910390fd5b6001600160a01b0382166105a35760405163c7bd9f1560e01b815260040160405180910390fd5b826000036105c457604051631ed8e2fd60e21b815260040160405180910390fd5b60008581526002602090815260408083206001600160a01b03881684529091529020548084111561062d5760405163e3c322af60e01b8152600481018790526001600160a01b038616602482015260448101859052606481018290526084015b60405180910390fd5b6106378482610a5e565b60008781526002602090815260408083206001600160a01b038a16808552925290912091909155610669908486610863565b826001600160a01b0316856001600160a01b0316877fbe9955ede01f89429605b39b8541dc3efb42abc6215925c50e35c676e9e06f88876040516106af91815260200190565b60405180910390a4506106c160018055565b5050505050565b6106d28133610894565b50565b60006106e1838361039a565b61075f576000838152602081815260408083206001600160a01b03861684529091529020805460ff191660011790556107173390565b6001600160a01b0316826001600160a01b0316847f2f8788117e7eff1d82e926ec794901d17c78024a50270940304540a733656f0d60405160405180910390a45060016102ac565b5060006102ac565b6000610773838361039a565b1561075f576000838152602081815260408083206001600160a01b0386168085529252808320805460ff1916905551339286917ff6391f5c32d9c69d2a47ea670b442974b53935d1edc7fd64eb21e047a839171b9190a45060016102ac565b6040516001600160a01b0384811660248301528381166044830152606482018390526102d79186918216906323b872dd906084015b604051602081830303815290604052915060e01b6020820180516001600160e01b0383818316178352505050506108d1565b60026001540361085c57604051633ee5aeb560e01b815260040160405180910390fd5b6002600155565b6040516001600160a01b0383811660248301526044820183905261031091859182169063a9059cbb90606401610807565b61089e828261039a565b6108cd5760405163e2517d3f60e01b81526001600160a01b038216600482015260248101839052604401610624565b5050565b600080602060008451602086016000885af1806108f4576040513d6000823e3d81fd5b50506000513d9150811561090c578060011415610919565b6001600160a01b0384163b155b156102d757604051635274afe760e01b81526001600160a01b0385166004820152602401610624565b60006020828403121561095457600080fd5b81356001600160e01b03198116811461096c57600080fd5b9392505050565b80356001600160a01b038116811461098a57600080fd5b919050565b600080604083850312156109a257600080fd5b823591506109b260208401610973565b90509250929050565b6000602082840312156109cd57600080fd5b5035919050565b6000602082840312156109e657600080fd5b61096c82610973565b60008060008060808587031215610a0557600080fd5b84359350610a1560208601610973565b925060408501359150610a2a60608601610973565b905092959194509250565b634e487b7160e01b600052601160045260246000fd5b808201808211156102ac576102ac610a35565b818103818111156102ac576102ac610a3556fea26469706673582212203c42679d411346d0bdab52debf2a30bc7b752cc1aa840979b9cb952601f4490564736f6c634300081800330000000000000000000000009ea593f2cbac4671268a609bbbd7276aea7eb6890000000000000000000000009ea593f2cbac4671268a609bbbd7276aea7eb689",
        "nonce": "0x1d",
        "chainId": "0x66eee"
      },
      "additionalContracts": [],
      "isFixedGasLimit": false
    },
    {
      "hash": "0x6bf4624b4e903d0e16a0b4af9478ccf1e88f29c28e335d0a885f1a2549df6e64",
      "transactionType": "CREATE",
      "contractName": "LendingPool",
      "contractAddress": "0x3cb843daaf350debc10bef3baa8b5bf5ee191c72",
      "function": null,
      "arguments": [
        "0x9EA593F2cBac4671268a609bBbd7276AeA7EB689",
        "0xb7Cb1413AA4B03106204239Dc066aDa57Fc68dcE",
        "0x639c7f18E91fB20505c242BE9E1413171a674654",
        "0x069587ff0e03aDB000d4b629354Fc1Acd04355d0",
        "0x9EA593F2cBac4671268a609bBbd7276AeA7EB689"
      ],
      "transaction": {
        "from": "0x9ea593f2cbac4671268a609bbbd7276aea7eb689",
        "gas": "0x32d319",
        "value": "0x0",
        "input": "0x60806040523480156200001157600080fd5b5060405162002d0938038062002d09833981016040819052620000349162000238565b600180556001600160a01b038516620000605760405163bce473f560e01b815260040160405180910390fd5b6001600160a01b038416620000885760405163bce473f560e01b815260040160405180910390fd5b6001600160a01b038316620000b05760405163bce473f560e01b815260040160405180910390fd5b6001600160a01b038216620000d85760405163bce473f560e01b815260040160405180910390fd5b6001600160a01b038116620001005760405163bce473f560e01b815260040160405180910390fd5b6200010d6000866200016c565b50600280546001600160a01b0395861661010002610100600160a81b0319909116179055600380549385166001600160a01b031994851617905560048054928516928416929092179091556005805491909316911617905550620002a8565b6000828152602081815260408083206001600160a01b038516845290915281205460ff1662000211576000838152602081815260408083206001600160a01b03861684529091529020805460ff19166001179055620001c83390565b6001600160a01b0316826001600160a01b0316847f2f8788117e7eff1d82e926ec794901d17c78024a50270940304540a733656f0d60405160405180910390a450600162000215565b5060005b92915050565b80516001600160a01b03811681146200023357600080fd5b919050565b600080600080600060a086880312156200025157600080fd5b6200025c866200021b565b94506200026c602087016200021b565b93506200027c604087016200021b565b92506200028c606087016200021b565b91506200029c608087016200021b565b90509295509295909350565b612a5180620002b86000396000f3fe608060405234801561001057600080fd5b50600436106101f05760003560e01c806382dc4a051161010f578063cc212a48116100a2578063f0f3f2c811610071578063f0f3f2c814610489578063f5b541a6146104a9578063f949c88e146104be578063fa2af9da146104d657600080fd5b8063cc212a481461043d578063d547741f14610450578063d87aa64314610463578063e6f29b051461047657600080fd5b8063a217fddf116100de578063a217fddf14610405578063ab473f481461040d578063c1a287e214610420578063c997dbca1461042a57600080fd5b806382dc4a05146103b45780638456cb59146103d75780638831e9cf146103df57806391d14854146103f257600080fd5b806343d6f88b116101875780636439de0b116101565780636439de0b1461035b5780636ce12c351461036e57806370bbfa261461038e57806373216450146103a157600080fd5b806343d6f88b146103095780635696b1891461031c5780635c975abb1461032557806361d027b31461033057600080fd5b806336fbad26116101c357806336fbad26146102765780633b345a871461027e5780633f4ba83a146102e157806341d9d6a4146102e957600080fd5b806301ffc9a7146101f5578063248a9ca31461021d5780632f2ff15d1461024e57806336568abe14610263575b600080fd5b610208610203366004612289565b6104e9565b60405190151581526020015b60405180910390f35b61024061022b3660046122ba565b60009081526020819052604090206001015490565b604051908152602001610214565b61026161025c3660046122e8565b610520565b005b6102616102713660046122e8565b61054b565b610240610583565b61029161028c3660046122ba565b610601565b6040516102149190600060c0820190508251825260208301516020830152604083015160408301526060830151606083015260808301511515608083015260a0830151151560a083015292915050565b6102616106a2565b6102fc6102f73660046122ba565b6106b8565b6040516102149190612318565b6102616103173660046122ba565b61075c565b610240611d4c81565b60025460ff16610208565b600354610343906001600160a01b031681565b6040516001600160a01b039091168152602001610214565b61026161036936600461238f565b610922565b61038161037c3660046122e8565b610cd1565b60405161021491906123b1565b61026161039c3660046122ba565b610dc9565b6102616103af3660046122ba565b611021565b6102086103c23660046123e7565b600a6020526000908152604090205460ff1681565b6102616111cd565b6102616103ed3660046123e7565b6111ed565b6102086104003660046122e8565b61126a565b610240600081565b61026161041b3660046122ba565b611293565b61024062093a8081565b610261610438366004612412565b6113d3565b61026161044b3660046122ba565b611465565b61026161045e3660046122e8565b611654565b61026161047136600461238f565b611679565b600454610343906001600160a01b031681565b61049c6104973660046122ba565b6119e4565b60405161021491906124c8565b6102406000805160206129fc83398151915281565b6002546103439061010090046001600160a01b031681565b600554610343906001600160a01b031681565b60006001600160e01b03198216637965db0b60e01b148061051a57506301ffc9a760e01b6001600160e01b03198316145b92915050565b60008281526020819052604090206001015461053b81611b8b565b6105458383611b95565b50505050565b6001600160a01b03811633146105745760405163334bd91960e11b815260040160405180910390fd5b61057e8282611c27565b505050565b6000600260019054906101000a90046001600160a01b03166001600160a01b03166336fbad266040518163ffffffff1660e01b8152600401602060405180830381865afa1580156105d8573d6000803e3d6000fd5b505050506040513d601f19601f820116820180604052508101906105fc91906125ec565b905090565b61063e6040518060c00160405280600081526020016000815260200160008152602001600081526020016000151581526020016000151581525090565b50600090815260096020908152604091829020825160c081018452815481526001820154928101929092526002810154928201929092526003820154606082015260049091015460ff8082161515608084015261010090910416151560a082015290565b60006106ad81611b8b565b6106b5611c92565b50565b60606106c382611ce4565b600082815260076020908152604080832080548251818502810185019093528083529193909284015b82821015610751576000848152602090819020604080516080810182526003860290920180546001600160a01b0381168452600160a01b900460ff161515838501526001808201549284019290925260020154606083015290835290920191016106ec565b505050509050919050565b610764611d87565b600061076f82611db1565b905061077a82611ed1565b6005816101800151600881111561079357610793612490565b146107c25761018081015160405163e6a4d6b160e01b81526107b9918491600401612605565b60405180910390fd5b6000828152600960205260409020600481015460ff166107f85760405163568090d760e01b8152600481018490526024016107b9565b80600201546000036108205760405163f890aa8960e01b8152600481018490526024016107b9565b6004810154610100900460ff161561084e57604051632acfd76760e21b8152600481018490526024016107b9565b60028101546004808301805461ff001916610100179055600354602085015160405163eb65fe2360e01b81526001600160a01b039092169263eb65fe239261089e9289929091879133910161263d565b600060405180830381600087803b1580156108b857600080fd5b505af11580156108cc573d6000803e3d6000fd5b50506040518381523392508691507f4027e6bdd92c1f92f3aeebaaf6b5b09061c496545a98bc4cf05b8bfcd55e49959060200160405180910390a361091684846000015184611f73565b5050506106b560018055565b6000805160206129fc83398151915261093a81611b8b565b610942611d87565b8160000361096357604051630e64664160e31b815260040160405180910390fd5b600061096e84611db1565b90506004816101800151600881111561098957610989612490565b146109af5761018081015160405163e6a4d6b160e01b81526107b9918691600401612664565b60008481526006602052604081205460c083015160608401519192916109d591906126b4565b6109df90836126cb565b905060008360e0015184606001516109f791906126b4565b90506000610a0582846126cb565b90506000806000838a10610a2a57859250849150610a23848b6126de565b9050610a53565b858a10610a4957859250610a3e838b6126de565b915060009050610a53565b5088915060009050805b60008b8152600660205260409081902060029081018c9055549051633a1b3d3160e01b81526101009091046001600160a01b031690633a1b3d3190610a9f908e906005906004016126f1565b600060405180830381600087803b158015610ab957600080fd5b505af1158015610acd573d6000803e3d6000fd5b50505060008c815260096020526040812085815560018082018690556002820185905560048201805460ff191690911790559150829003610b1a5760048101805461ff0019166101001790555b8b7f2f993d17854d66ef056b6ef819c1737cb46ec800945db4708d45078d04315b2c8c604051610b4c91815260200190565b60405180910390a260408051858152602081018590529081018390528c907f749b2ac8562325522ef7e1cba0d73b4a39482ab91e980ceb669fb9913a6f93fb9060600160405180910390a2600360009054906101000a90046001600160a01b03166001600160a01b031663cd88af6e8d8b602001518e336040518563ffffffff1660e01b8152600401610be2949392919061263d565b600060405180830381600087803b158015610bfc57600080fd5b505af1158015610c10573d6000803e3d6000fd5b505050506000831115610cb057600360009054906101000a90046001600160a01b03166001600160a01b031663eb65fe238d8b6020015186600560009054906101000a90046001600160a01b03166040518563ffffffff1660e01b8152600401610c7d949392919061263d565b600060405180830381600087803b158015610c9757600080fd5b505af1158015610cab573d6000803e3d6000fd5b505050505b610cbf8c8a6000015183611f73565b50505050505050505061057e60018055565b604080516080810182526000808252602080830182905282840182905260608301829052858252600881528382206001600160a01b03861683529052918220549091819003610d455760405163446ae6cf60e01b8152600481018590526001600160a01b03841660248201526044016107b9565b6000848152600760205260409020610d5e6001836126de565b81548110610d6e57610d6e612705565b60009182526020918290206040805160808101825260039390930290910180546001600160a01b0381168452600160a01b900460ff161515938301939093526001830154908201526002909101546060820152949350505050565b610dd1611d87565b6000610ddc82611db1565b905060058161018001516008811115610df757610df7612490565b14610e1d5761018081015160405163e6a4d6b160e01b81526107b9918491600401612605565b6000828152600960205260409020600481015460ff16610e535760405163568090d760e01b8152600481018490526024016107b9565b600083815260086020908152604080832033845290915281205490819003610e975760405163446ae6cf60e01b8152600481018590523360248201526044016107b9565b6000848152600760205260408120610eb06001846126de565b81548110610ec057610ec0612705565b600091825260209091206003909102018054909150600160a01b900460ff1615610f065760405163bdb2bee960e01b8152600481018690523360248201526044016107b9565b60008581526006602052604081205460018301548554610f2691906126b4565b610f30919061271b565b825460ff60a01b1916600160a01b1783556003850180549192506000610f558361273d565b90915550508015610fcd57600354602086015160405163eb65fe2360e01b81526001600160a01b039092169163eb65fe2391610f9a918a91908690339060040161263d565b600060405180830381600087803b158015610fb457600080fd5b505af1158015610fc8573d6000803e3d6000fd5b505050505b604051818152339087907f79d958b8da0734cba9f6b26dd6d4fd1b7d477b0df323472f172d906d8ed240219060200160405180910390a361101386866000015186611f73565b50505050506106b560018055565b6000805160206129fc83398151915261103981611b8b565b600061104483611db1565b90506004816101800151600881111561105f5761105f612490565b146110855761018081015160405163e6a4d6b160e01b81526107b9918591600401612664565b6000838152600660205260408120600101546110a59062093a80906126cb565b90508042116110d157604051636bdd234d60e11b815260048101859052602481018290526044016107b9565b600254604051633a1b3d3160e01b81526101009091046001600160a01b031690633a1b3d31906111089087906006906004016126f1565b600060405180830381600087803b15801561112257600080fd5b505af1158015611136573d6000803e3d6000fd5b50506040518692507f078e7947db4cc6eb4f735e5c8c3d7f226038b73127671c30419fc6570c51ec799150600090a2600480548351604051639855f93760e01b81526001600160a01b03918216938101939093521690639855f93790602401600060405180830381600087803b1580156111af57600080fd5b505af11580156111c3573d6000803e3d6000fd5b5050505050505050565b6000805160206129fc8339815191526111e581611b8b565b6106b561209c565b60006111f881611b8b565b6001600160a01b03821661121f5760405163bce473f560e01b815260040160405180910390fd5b600580546001600160a01b0319166001600160a01b0384169081179091556040517f0c7dd120b8e93acfeb4b1c7e9b4a2a9e092f618597b362feb978583eeb4906e490600090a25050565b6000918252602082815260408084206001600160a01b0393909316845291905290205460ff1690565b600061129e82611db1565b90506112a982611ed1565b600181610180015160088111156112c2576112c2612490565b146112e85761018081015160405163e6a4d6b160e01b81526107b9918491600401612756565b60008281526006602052604081205490036113195760405163b9d0a4b560e01b8152600481018390526024016107b9565b600254604051633a1b3d3160e01b81526101009091046001600160a01b031690633a1b3d31906113509085906003906004016126f1565b600060405180830381600087803b15801561136a57600080fd5b505af115801561137e573d6000803e3d6000fd5b5050506000838152600660205260409081902054905133925084917ff6641c35b4367ba0211bcf4d619e421e12c8466f3fd43189ee927dda8c50d1f4916113c791815260200190565b60405180910390a35050565b60006113de81611b8b565b6001600160a01b0383166114055760405163bce473f560e01b815260040160405180910390fd5b6001600160a01b0383166000818152600a6020908152604091829020805460ff191686151590811790915591519182527f41e60d181306b4838cb2b18f318e3a9ba536d93ccdb1ec613c048faa097c18dd910160405180910390a2505050565b6000805160206129fc83398151915261147d81611b8b565b611485611d87565b600061149083611db1565b9050600281610180015160088111156114ab576114ab612490565b141580156114d05750600381610180015160088111156114cd576114cd612490565b14155b156114f65761018081015160405163e6a4d6b160e01b81526107b991859160040161278b565b6000838152600660205260409020805461012083015161151690426126cb565b6001830155600254604051633a1b3d3160e01b81526101009091046001600160a01b031690633a1b3d319061155190889060049081016126f1565b600060405180830381600087803b15801561156b57600080fd5b505af115801561157f573d6000803e3d6000fd5b5050505082600001516001600160a01b0316857f0ee83620b7aab7d22ea6be3695560b2b3c205a2271fe9db69335b59995366db58385600101546040516115d0929190918252602082015260400190565b60405180910390a36003546020840151845160405163eb65fe2360e01b81526001600160a01b039093169263eb65fe2392611612928a9287919060040161263d565b600060405180830381600087803b15801561162c57600080fd5b505af1158015611640573d6000803e3d6000fd5b5050505050505061165060018055565b5050565b60008281526020819052604090206001015461166f81611b8b565b6105458383611c27565b611681611d87565b6116896120d9565b806000036116aa57604051630e64664160e31b815260040160405180910390fd5b60006116b583611db1565b9050600181610180015160088111156116d0576116d0612490565b146116f65761018081015160405163e6a4d6b160e01b81526107b9918591600401612756565b6020808201516001600160a01b03166000908152600a909152604090205460ff1661174457602081015160405162f0f1e360e61b81526001600160a01b0390911660048201526024016107b9565b806101000151421061177a576101008101516040516317eecd2f60e21b81526107b9918591600401918252602082015260400190565b6000838152600860209081526040808320338452909152902054156117bb57604051630c92e12f60e21b8152600481018490523360248201526044016107b9565b6000838152600660205260408120805460a08401519192916117dd91906126de565b90508084111561180a5760405163e748fdd360e01b815260048101859052602481018290526044016107b9565b8382600001600082825461181e91906126cb565b909155505060008581526007602090815260408083208151608081018352338082528185018681528285018b81524260608501908152855460018082018855878b52898b2096516003909202909601805494511515600160a01b026001600160a81b03199095166001600160a01b0390921691909117939093178355905193820193909355915160029092019190915589855290546008845282852082865284529382902093909355845481518881529283015287917f271dec505c61c970bdd791a963b7162d814edf6292f40c4beef2af1e48eea1e8910160405180910390a360a08301518254036119aa5760028054604051633a1b3d3160e01b81526101009091046001600160a01b031691633a1b3d31916119409189916004016126f1565b600060405180830381600087803b15801561195a57600080fd5b505af115801561196e573d6000803e3d6000fd5b505083546040519081528792507fd705bcb576083465c6c0df050df01f8de1ff0ce063824a350a69601ccf68f7f8915060200160405180910390a25b60035460208401516040516366c457b760e11b81526001600160a01b039092169163cd88af6e91611612918991908990339060040161263d565b6119ec61215b565b6119f582611ce4565b600254604051631e1e7e5960e31b81526004810184905260009161010090046001600160a01b03169063f0f3f2c890602401600060405180830381865afa158015611a44573d6000803e3d6000fd5b505050506040513d6000823e601f3d908101601f19168201604052611a6c91908101906128b4565b90506000600660008581526020019081526020016000206040518060600160405290816000820154815260200160018201548152602001600282015481525050905060405180610200016040528083600001516001600160a01b0316815260200183602001516001600160a01b031681526020018360400151815260200183606001518152602001836080015181526020018360a001518152602001826000015181526020018360c0015181526020018360e001518152602001836101000151815260200183610120015181526020018260200151815260200182604001518152602001836101600151151581526020018361018001516008811115611b7457611b74612490565b815260200183610140015181525092505050919050565b6106b581336120ff565b6000611ba1838361126a565b611c1f576000838152602081815260408083206001600160a01b03861684529091529020805460ff19166001179055611bd73390565b6001600160a01b0316826001600160a01b0316847f2f8788117e7eff1d82e926ec794901d17c78024a50270940304540a733656f0d60405160405180910390a450600161051a565b50600061051a565b6000611c33838361126a565b15611c1f576000838152602081815260408083206001600160a01b0386168085529252808320805460ff1916905551339286917ff6391f5c32d9c69d2a47ea670b442974b53935d1edc7fd64eb21e047a839171b9190a450600161051a565b611c9a612138565b6002805460ff191690557f5db9ee0a495bf2e6ff9c91a7834c1ba4fdd244a5e8aa4e537bd38aeae4b073aa335b6040516001600160a01b03909116815260200160405180910390a1565b801580611d665750600260019054906101000a90046001600160a01b03166001600160a01b03166336fbad266040518163ffffffff1660e01b8152600401602060405180830381865afa158015611d3f573d6000803e3d6000fd5b505050506040513d601f19601f82011682018060405250810190611d6391906125ec565b81115b156106b55760405163312b090760e01b8152600481018290526024016107b9565b600260015403611daa57604051633ee5aeb560e01b815260040160405180910390fd5b6002600155565b611db96121fd565b811580611e3b5750600260019054906101000a90046001600160a01b03166001600160a01b03166336fbad266040518163ffffffff1660e01b8152600401602060405180830381865afa158015611e14573d6000803e3d6000fd5b505050506040513d601f19601f82011682018060405250810190611e3891906125ec565b82115b15611e5c5760405163312b090760e01b8152600481018390526024016107b9565b600254604051631e1e7e5960e31b8152600481018490526101009091046001600160a01b03169063f0f3f2c890602401600060405180830381865afa158015611ea9573d6000803e3d6000fd5b505050506040513d6000823e601f3d908101601f1916820160405261051a91908101906128b4565b6002546040516331a9108f60e11b815260048101839052339161010090046001600160a01b031690636352211e90602401602060405180830381865afa158015611f1f573d6000803e3d6000fd5b505050506040513d601f19601f82011682018060405250810190611f4391906129de565b6001600160a01b0316146106b557604051633816672560e21b8152600481018290523360248201526044016107b9565b6004810154610100900460ff168015611f9d57506000838152600760205260409020546003820154145b1561057e57600254604051633a1b3d3160e01b81526101009091046001600160a01b031690633a1b3d3190611fd99086906007906004016126f1565b600060405180830381600087803b158015611ff357600080fd5b505af1158015612007573d6000803e3d6000fd5b50506040518592507f60d8df137e489b6216738e436244ca4700bd6d0c8371d3c8d9c80b54538111b99150600090a2600480546040516326909c7d60e01b81526001600160a01b03858116938201939093529116906326909c7d90602401600060405180830381600087803b15801561207f57600080fd5b505af1158015612093573d6000803e3d6000fd5b50505050505050565b6120a46120d9565b6002805460ff191660011790557f62e78cea01bee320cd4e420270b5ea74000d11b0c9f74754ebdbfc544b05a258611cc73390565b60025460ff16156120fd5760405163d93c066560e01b815260040160405180910390fd5b565b612109828261126a565b6116505760405163e2517d3f60e01b81526001600160a01b0382166004820152602481018390526044016107b9565b60025460ff166120fd57604051638dfc202b60e01b815260040160405180910390fd5b60405180610200016040528060006001600160a01b0316815260200160006001600160a01b031681526020016060815260200160008152602001600081526020016000815260200160008152602001600081526020016000815260200160008152602001600081526020016000815260200160008152602001600015158152602001600060088111156121f0576121f0612490565b8152602001606081525090565b604051806101a0016040528060006001600160a01b0316815260200160006001600160a01b031681526020016060815260200160008152602001600081526020016000815260200160008152602001600081526020016000815260200160008152602001606081526020016000151581526020016000600881111561228457612284612490565b905290565b60006020828403121561229b57600080fd5b81356001600160e01b0319811681146122b357600080fd5b9392505050565b6000602082840312156122cc57600080fd5b5035919050565b6001600160a01b03811681146106b557600080fd5b600080604083850312156122fb57600080fd5b82359150602083013561230d816122d3565b809150509250929050565b6020808252825182820181905260009190848201906040850190845b818110156123835761237083855180516001600160a01b0316825260208082015115159083015260408082015190830152606090810151910152565b9284019260809290920191600101612334565b50909695505050505050565b600080604083850312156123a257600080fd5b50508035926020909101359150565b81516001600160a01b0316815260208083015115159082015260408083015190820152606080830151908201526080810161051a565b6000602082840312156123f957600080fd5b81356122b3816122d3565b80151581146106b557600080fd5b6000806040838503121561242557600080fd5b8235612430816122d3565b9150602083013561230d81612404565b60005b8381101561245b578181015183820152602001612443565b50506000910152565b6000815180845261247c816020860160208601612440565b601f01601f19169290920160200192915050565b634e487b7160e01b600052602160045260246000fd5b600981106124c457634e487b7160e01b600052602160045260246000fd5b9052565b602081526124e26020820183516001600160a01b03169052565b600060208301516124fe60408401826001600160a01b03169052565b50604083015161020080606085015261251b610220850183612464565b915060608501516080850152608085015160a085015260a085015160c085015260c085015160e085015260e08501516101008181870152808701519150506101208181870152808701519150506101408181870152808701519150506101608181870152808701519150506101808181870152808701519150506101a08181870152808701519150506101c06125b48187018315159052565b86015190506101e06125c8868201836124a6565b860151858403601f19018387015290506125e28382612464565b9695505050505050565b6000602082840312156125fe57600080fd5b5051919050565b82815261261560208201836124a6565b6060604082018190526007908201526614d1551513115160ca1b608082015260a00192915050565b9384526001600160a01b039283166020850152604084019190915216606082015260800190565b82815261267460208201836124a6565b60606040820181905260099082015268111254d0955494d15160ba1b608082015260a00192915050565b634e487b7160e01b600052601160045260246000fd5b808202811582820484141761051a5761051a61269e565b8082018082111561051a5761051a61269e565b8181038181111561051a5761051a61269e565b828152604081016122b360208301846124a6565b634e487b7160e01b600052603260045260246000fd5b60008261273857634e487b7160e01b600052601260045260246000fd5b500490565b60006001820161274f5761274f61269e565b5060010190565b82815261276660208201836124a6565b6060604082018190526004908201526327a822a760e11b608082015260a00192915050565b82815261279b60208201836124a6565b6060604082018190526010908201526f119553911151081bdc8810d313d4d15160821b608082015260a00192915050565b634e487b7160e01b600052604160045260246000fd5b6040516101a0810167ffffffffffffffff81118282101715612806576128066127cc565b60405290565b8051612817816122d3565b919050565b600082601f83011261282d57600080fd5b815167ffffffffffffffff80821115612848576128486127cc565b604051601f8301601f19908116603f01168101908282118183101715612870576128706127cc565b8160405283815286602085880101111561288957600080fd5b6125e2846020830160208901612440565b805161281781612404565b80516009811061281757600080fd5b6000602082840312156128c657600080fd5b815167ffffffffffffffff808211156128de57600080fd5b908301906101a082860312156128f357600080fd5b6128fb6127e2565b6129048361280c565b81526129126020840161280c565b602082015260408301518281111561292957600080fd5b6129358782860161281c565b604083015250606083015160608201526080830151608082015260a083015160a082015260c083015160c082015260e083015160e0820152610100808401518183015250610120808401518183015250610140808401518381111561299957600080fd5b6129a58882870161281c565b82840152505061016091506129bb82840161289a565b8282015261018091506129cf8284016128a5565b91810191909152949350505050565b6000602082840312156129f057600080fd5b81516122b3816122d356fe97667070c54ef182b0f5858b034beac1b6f3089aa2d3188bb1e8929f4fa9b929a26469706673582212201976e0fad8124e56b97027dfd541c4950130a3b2222f6a85530527cad8fb770664736f6c634300081800330000000000000000000000009ea593f2cbac4671268a609bbbd7276aea7eb689000000000000000000000000b7cb1413aa4b03106204239dc066ada57fc68dce000000000000000000000000639c7f18e91fb20505c242be9e1413171a674654000000000000000000000000069587ff0e03adb000d4b629354fc1acd04355d00000000000000000000000009ea593f2cbac4671268a609bbbd7276aea7eb689",
        "nonce": "0x1e",
        "chainId": "0x66eee"
      },
      "additionalContracts": [],
      "isFixedGasLimit": false
    },
    {
      "hash": "0xb2d90bf3885e37826be89879f01e9a4178d5f0c77bf674eac2bd516484ee9e4f",
      "transactionType": "CALL",
      "contractName": "AccessRegistry",
      "contractAddress": "0x069587ff0e03adb000d4b629354fc1acd04355d0",
      "function": "grantRole(bytes32,address)",
      "arguments": [
        "0x811427a0fa4932aef534bba16bc34e9b7b2d7d2a79c475fca1765f6cc1faebea",
        "0x9EA593F2cBac4671268a609bBbd7276AeA7EB689"
      ],
      "transaction": {
        "from": "0x9ea593f2cbac4671268a609bbbd7276aea7eb689",
        "to": "0x069587ff0e03adb000d4b629354fc1acd04355d0",
        "gas": "0x7047",
        "value": "0x0",
        "input": "0x2f2ff15d811427a0fa4932aef534bba16bc34e9b7b2d7d2a79c475fca1765f6cc1faebea0000000000000000000000009ea593f2cbac4671268a609bbbd7276aea7eb689",
        "nonce": "0x1f",
        "chainId": "0x66eee"
      },
      "additionalContracts": [],
      "isFixedGasLimit": false
    },
    {
      "hash": "0x128872f901cd26752ccdcaf0dffebec41f2ee9a490a45f5042312478941f59d1",
      "transactionType": "CALL",
      "contractName": "AccessRegistry",
      "contractAddress": "0x069587ff0e03adb000d4b629354fc1acd04355d0",
      "function": "grantRole(bytes32,address)",
      "arguments": [
        "0xb8179c2726c8d8961ef054875ab3f4c1c3d34e1cb429c3d5e0bc97958e4cab9d",
        "0x3cb843daaf350Debc10Bef3bAa8B5bF5EE191C72"
      ],
      "transaction": {
        "from": "0x9ea593f2cbac4671268a609bbbd7276aea7eb689",
        "to": "0x069587ff0e03adb000d4b629354fc1acd04355d0",
        "gas": "0x7047",
        "value": "0x0",
        "input": "0x2f2ff15db8179c2726c8d8961ef054875ab3f4c1c3d34e1cb429c3d5e0bc97958e4cab9d0000000000000000000000003cb843daaf350debc10bef3baa8b5bf5ee191c72",
        "nonce": "0x20",
        "chainId": "0x66eee"
      },
      "additionalContracts": [],
      "isFixedGasLimit": false
    },
    {
      "hash": "0xb1bf377dd146b9dfb010335f343f9f99e9f2d8b8f6ab4b4ece5ee5cd7320310a",
      "transactionType": "CALL",
      "contractName": "AccessRegistry",
      "contractAddress": "0x069587ff0e03adb000d4b629354fc1acd04355d0",
      "function": "grantRole(bytes32,address)",
      "arguments": [
        "0xb8179c2726c8d8961ef054875ab3f4c1c3d34e1cb429c3d5e0bc97958e4cab9d",
        "0xb7Cb1413AA4B03106204239Dc066aDa57Fc68dcE"
      ],
      "transaction": {
        "from": "0x9ea593f2cbac4671268a609bbbd7276aea7eb689",
        "to": "0x069587ff0e03adb000d4b629354fc1acd04355d0",
        "gas": "0x7047",
        "value": "0x0",
        "input": "0x2f2ff15db8179c2726c8d8961ef054875ab3f4c1c3d34e1cb429c3d5e0bc97958e4cab9d000000000000000000000000b7cb1413aa4b03106204239dc066ada57fc68dce",
        "nonce": "0x21",
        "chainId": "0x66eee"
      },
      "additionalContracts": [],
      "isFixedGasLimit": false
    },
    {
      "hash": "0x104681c30d1f0163516b49a60fb4c7ffcebebf79bb9963bfc98a46b1799564bf",
      "transactionType": "CALL",
      "contractName": "ProjectNFT",
      "contractAddress": "0xb7cb1413aa4b03106204239dc066ada57fc68dce",
      "function": "grantRole(bytes32,address)",
      "arguments": [
        "0x811427a0fa4932aef534bba16bc34e9b7b2d7d2a79c475fca1765f6cc1faebea",
        "0x9EA593F2cBac4671268a609bBbd7276AeA7EB689"
      ],
      "transaction": {
        "from": "0x9ea593f2cbac4671268a609bbbd7276aea7eb689",
        "to": "0xb7cb1413aa4b03106204239dc066ada57fc68dce",
        "gas": "0x7047",
        "value": "0x0",
        "input": "0x2f2ff15d811427a0fa4932aef534bba16bc34e9b7b2d7d2a79c475fca1765f6cc1faebea0000000000000000000000009ea593f2cbac4671268a609bbbd7276aea7eb689",
        "nonce": "0x22",
        "chainId": "0x66eee"
      },
      "additionalContracts": [],
      "isFixedGasLimit": false
    },
    {
      "hash": "0xbd8d1e533a0bf4b27d8561840cd8686177d97ba1d36723c2974e1ca8d5cab24f",
      "transactionType": "CALL",
      "contractName": "ProjectNFT",
      "contractAddress": "0xb7cb1413aa4b03106204239dc066ada57fc68dce",
      "function": "grantRole(bytes32,address)",
      "arguments": [
        "0xb8179c2726c8d8961ef054875ab3f4c1c3d34e1cb429c3d5e0bc97958e4cab9d",
        "0x3cb843daaf350Debc10Bef3bAa8B5bF5EE191C72"
      ],
      "transaction": {
        "from": "0x9ea593f2cbac4671268a609bbbd7276aea7eb689",
        "to": "0xb7cb1413aa4b03106204239dc066ada57fc68dce",
        "gas": "0x7047",
        "value": "0x0",
        "input": "0x2f2ff15db8179c2726c8d8961ef054875ab3f4c1c3d34e1cb429c3d5e0bc97958e4cab9d0000000000000000000000003cb843daaf350debc10bef3baa8b5bf5ee191c72",
        "nonce": "0x23",
        "chainId": "0x66eee"
      },
      "additionalContracts": [],
      "isFixedGasLimit": false
    },
    {
      "hash": "0x8b3c01d388e9d4bca68b7b375d3843f75bb68c48562188ec5c790bc32fd67e2d",
      "transactionType": "CALL",
      "contractName": "Treasury",
      "contractAddress": "0x639c7f18e91fb20505c242be9e1413171a674654",
      "function": "grantRole(bytes32,address)",
      "arguments": [
        "0xb8179c2726c8d8961ef054875ab3f4c1c3d34e1cb429c3d5e0bc97958e4cab9d",
        "0x3cb843daaf350Debc10Bef3bAa8B5bF5EE191C72"
      ],
      "transaction": {
        "from": "0x9ea593f2cbac4671268a609bbbd7276aea7eb689",
        "to": "0x639c7f18e91fb20505c242be9e1413171a674654",
        "gas": "0x7047",
        "value": "0x0",
        "input": "0x2f2ff15db8179c2726c8d8961ef054875ab3f4c1c3d34e1cb429c3d5e0bc97958e4cab9d0000000000000000000000003cb843daaf350debc10bef3baa8b5bf5ee191c72",
        "nonce": "0x24",
        "chainId": "0x66eee"
      },
      "additionalContracts": [],
      "isFixedGasLimit": false
    },
    {
      "hash": "0x21aeb4172c654f252c4d53c73519b0c0e1e555dc3c4ce4eac14915b339584c5c",
      "transactionType": "CALL",
      "contractName": "LendingPool",
      "contractAddress": "0x3cb843daaf350debc10bef3baa8b5bf5ee191c72",
      "function": "grantRole(bytes32,address)",
      "arguments": [
        "0x97667070c54ef182b0f5858b034beac1b6f3089aa2d3188bb1e8929f4fa9b929",
        "0x9EA593F2cBac4671268a609bBbd7276AeA7EB689"
      ],
      "transaction": {
        "from": "0x9ea593f2cbac4671268a609bbbd7276aea7eb689",
        "to": "0x3cb843daaf350debc10bef3baa8b5bf5ee191c72",
        "gas": "0x7047",
        "value": "0x0",
        "input": "0x2f2ff15d97667070c54ef182b0f5858b034beac1b6f3089aa2d3188bb1e8929f4fa9b9290000000000000000000000009ea593f2cbac4671268a609bbbd7276aea7eb689",
        "nonce": "0x25",
        "chainId": "0x66eee"
      },
      "additionalContracts": [],
      "isFixedGasLimit": false
    },
    {
      "hash": "0x9a3de165f2a3b55488af50603bdf5dbbc5906afdc9757fb6630866e44a6b880c",
      "transactionType": "CALL",
      "contractName": "LendingPool",
      "contractAddress": "0x3cb843daaf350debc10bef3baa8b5bf5ee191c72",
      "function": "setAcceptedToken(address,bool)",
      "arguments": [
        "0x878798c42a931d4B335173C7f233a9279db4D8CD",
        "true"
      ],
      "transaction": {
        "from": "0x9ea593f2cbac4671268a609bbbd7276aea7eb689",
        "to": "0x3cb843daaf350debc10bef3baa8b5bf5ee191c72",
        "gas": "0x6e63",
        "value": "0x0",
        "input": "0xc997dbca000000000000000000000000878798c42a931d4b335173c7f233a9279db4d8cd0000000000000000000000000000000000000000000000000000000000000001",
        "nonce": "0x26",
        "chainId": "0x66eee"
      },
      "additionalContracts": [],
      "isFixedGasLimit": false
    },
    {
      "hash": "0x45a6c869fe0152a3d012e67451f10acade1278c3bae87e0c70a81e11d23dbfad",
      "transactionType": "CALL",
      "contractName": "LendingPool",
      "contractAddress": "0x3cb843daaf350debc10bef3baa8b5bf5ee191c72",
      "function": "setAcceptedToken(address,bool)",
      "arguments": [
        "0x34109fb1B9b31FA4F29a84C2E093496f3135a339",
        "true"
      ],
      "transaction": {
        "from": "0x9ea593f2cbac4671268a609bbbd7276aea7eb689",
        "to": "0x3cb843daaf350debc10bef3baa8b5bf5ee191c72",
        "gas": "0x6e63",
        "value": "0x0",
        "input": "0xc997dbca00000000000000000000000034109fb1b9b31fa4f29a84c2e093496f3135a3390000000000000000000000000000000000000000000000000000000000000001",
        "nonce": "0x27",
        "chainId": "0x66eee"
      },
      "additionalContracts": [],
      "isFixedGasLimit": false
    },
    {
      "hash": "0x7ab25fdbe00f8065c86ccea57d59b739082cc6e71812466bb107799fc3e443e3",
      "transactionType": "CREATE",
      "contractName": "SwapFacilitator",
      "contractAddress": "0x7151bc551abb29a5fff0f0ffcb7ed3b95f1faf34",
      "function": null,
      "arguments": [
        "0xc873fEcbd354f5A56E00E710B90EF4201db2448d",
        "0x82aF49447D8a07e3bd95BD0d56f35241523fBab1",
        "0x878798c42a931d4B335173C7f233a9279db4D8CD",
        "0x34109fb1B9b31FA4F29a84C2E093496f3135a339"
      ],
      "transaction": {
        "from": "0x9ea593f2cbac4671268a609bbbd7276aea7eb689",
        "gas": "0x1b1809",
        "value": "0x0",
        "input": "0x6101006040523480156200001257600080fd5b506040516200195f3803806200195f83398101604081905262000035916200019c565b33806200005c57604051631e4fbdf760e01b81526000600482015260240160405180910390fd5b62000067816200012f565b50600180556001600160a01b0384166200009457604051630a1dd23760e41b815260040160405180910390fd5b6001600160a01b038316620000bc57604051630a1dd23760e41b815260040160405180910390fd5b6001600160a01b038216620000e457604051630a1dd23760e41b815260040160405180910390fd5b6001600160a01b0381166200010c57604051630a1dd23760e41b815260040160405180910390fd5b6001600160a01b0393841660805291831660a052821660c0521660e052620001f9565b600080546001600160a01b038381166001600160a01b0319831681178455604051919092169283917f8be0079c531659141344cd1fd0a4f28419497f9722a3daafe3b4186f6b6457e09190a35050565b80516001600160a01b03811681146200019757600080fd5b919050565b60008060008060808587031215620001b357600080fd5b620001be856200017f565b9350620001ce602086016200017f565b9250620001de604086016200017f565b9150620001ee606086016200017f565b905092959194509250565b60805160a05160c05160e0516116a0620002bf6000396000818161024601526102c801526000818161017201526103060152600081816101e4015281816106150152818161065201528181610707015281816107f701528181610a7601528181610ae901528181610ea701528181610ee401528181610f8f01526110b101526000818161010c015281816103f901528181610432015281816104dc0152818161077b01528181610851015281816108e601528181610b7701526111dc01526116a06000f3fe6080604052600436106100c65760003560e01c80639bc777001161007f578063c54e44eb11610059578063c54e44eb14610234578063c6bfca8a14610268578063f22deb7b14610288578063f2fde38b1461029b57600080fd5b80639bc77700146101b2578063ad5c4648146101d2578063c515ee231461020657600080fd5b806304b6c9b0146100d25780631ca87946146100e75780633b58e038146100fa578063715018a61461014b57806389a30271146101605780638da5cb5b1461019457600080fd5b366100cd57005b600080fd5b6100e56100e036600461135d565b6102bb565b005b6100e56100f536600461135d565b6102f9565b34801561010657600080fd5b5061012e7f000000000000000000000000000000000000000000000000000000000000000081565b6040516001600160a01b0390911681526020015b60405180910390f35b34801561015757600080fd5b506100e561032b565b34801561016c57600080fd5b5061012e7f000000000000000000000000000000000000000000000000000000000000000081565b3480156101a057600080fd5b506000546001600160a01b031661012e565b3480156101be57600080fd5b506100e56101cd366004611392565b61033f565b3480156101de57600080fd5b5061012e7f000000000000000000000000000000000000000000000000000000000000000081565b34801561021257600080fd5b506102266102213660046113d4565b610599565b604051908152602001610142565b34801561024057600080fd5b5061012e7f000000000000000000000000000000000000000000000000000000000000000081565b34801561027457600080fd5b506100e5610283366004611410565b6106b5565b6100e5610296366004611443565b6109a3565b3480156102a757600080fd5b506100e56102b636600461146d565b6109c2565b6102c3610a02565b6102ed7f000000000000000000000000000000000000000000000000000000000000000082610a2c565b6102f660018055565b50565b610301610a02565b6102ed7f000000000000000000000000000000000000000000000000000000000000000082610a2c565b610333610c8a565b61033d6000610cb7565b565b610347610a02565b6001600160a01b038416158061036457506001600160a01b038316155b1561038257604051630a1dd23760e41b815260040160405180910390fd5b816000036103a357604051631c2e7ccd60e11b815260040160405180910390fd5b826001600160a01b0316846001600160a01b0316036103d55760405163f7347adf60e01b815260040160405180910390fd5b6103ea6001600160a01b038516333085610d07565b61041e6001600160a01b0385167f000000000000000000000000000000000000000000000000000000000000000084610d6e565b600061042b858585610dfe565b50905060007f00000000000000000000000000000000000000000000000000000000000000006001600160a01b03166338ed173985858533426040518663ffffffff1660e01b81526004016104849594939291906114cd565b6000604051808303816000875af11580156104a3573d6000803e3d6000fd5b505050506040513d6000823e601f3d908101601f191682016040526104cb919081019061151f565b90506105026001600160a01b0387167f00000000000000000000000000000000000000000000000000000000000000006000610d6e565b336001600160a01b0316856001600160a01b0316876001600160a01b03167f268a93038deccaf0b954c94b2c84d566a2176cb264383b94f7f3843c63c198f787856001875161055191906115dd565b81518110610561576105616115fe565b6020026020010151604051610580929190918252602082015260400190565b60405180910390a4505061059360018055565b50505050565b60008115806105b95750826001600160a01b0316846001600160a01b0316145b156105c6575060006106ae565b6001600160a01b03841615806105e357506001600160a01b038316155b156105f0575060006106ae565b600080610600868686600061104f565b9150915081156106135791506106ae9050565b7f00000000000000000000000000000000000000000000000000000000000000006001600160a01b0316866001600160a01b03161415801561068757507f00000000000000000000000000000000000000000000000000000000000000006001600160a01b0316856001600160a01b031614155b156106a757600061069b878787600161104f565b94506106ae9350505050565b6000925050505b9392505050565b6106bd610a02565b6001600160a01b0383166106e457604051630a1dd23760e41b815260040160405180910390fd5b8160000361070557604051631c2e7ccd60e11b815260040160405180910390fd5b7f00000000000000000000000000000000000000000000000000000000000000006001600160a01b0316836001600160a01b0316036107575760405163f7347adf60e01b815260040160405180910390fd5b61076c6001600160a01b038416333085610d07565b6107a06001600160a01b0384167f000000000000000000000000000000000000000000000000000000000000000084610d6e565b60408051600280825260608201835260009260208301908036833701905050905083816000815181106107d5576107d56115fe565b60200260200101906001600160a01b031690816001600160a01b0316815250507f000000000000000000000000000000000000000000000000000000000000000081600181518110610829576108296115fe565b6001600160a01b0392831660209182029290920101526040516318cbafe560e01b81526000917f000000000000000000000000000000000000000000000000000000000000000016906318cbafe59061088e90879087908790339042906004016114cd565b6000604051808303816000875af11580156108ad573d6000803e3d6000fd5b505050506040513d6000823e601f3d908101601f191682016040526108d5919081019061151f565b905061090c6001600160a01b0386167f00000000000000000000000000000000000000000000000000000000000000006000610d6e565b336001600160a01b031660006001600160a01b0316866001600160a01b03167f268a93038deccaf0b954c94b2c84d566a2176cb264383b94f7f3843c63c198f787856001875161095c91906115dd565b8151811061096c5761096c6115fe565b602002602001015160405161098b929190918252602082015260400190565b60405180910390a4505061099e60018055565b505050565b6109ab610a02565b6109b58282610a2c565b6109be60018055565b5050565b6109ca610c8a565b6001600160a01b0381166109f957604051631e4fbdf760e01b8152600060048201526024015b60405180910390fd5b6102f681610cb7565b600260015403610a2557604051633ee5aeb560e01b815260040160405180910390fd5b6002600155565b34600003610a4d57604051631b5dd78f60e21b815260040160405180910390fd5b6001600160a01b038216610a7457604051630a1dd23760e41b815260040160405180910390fd5b7f00000000000000000000000000000000000000000000000000000000000000006001600160a01b0316826001600160a01b031603610ac65760405163f7347adf60e01b815260040160405180910390fd5b6040805160028082526060820183526000926020830190803683370190505090507f000000000000000000000000000000000000000000000000000000000000000081600081518110610b1b57610b1b6115fe565b60200260200101906001600160a01b031690816001600160a01b0316815250508281600181518110610b4f57610b4f6115fe565b6001600160a01b039283166020918202929092010152604051637ff36ab560e01b81526000917f00000000000000000000000000000000000000000000000000000000000000001690637ff36ab5903490610bb4908790879033904290600401611614565b60006040518083038185885af1158015610bd2573d6000803e3d6000fd5b50505050506040513d6000823e601f3d908101601f19168201604052610bfb919081019061151f565b9050336001600160a01b0316846001600160a01b031660006001600160a01b03167f268a93038deccaf0b954c94b2c84d566a2176cb264383b94f7f3843c63c198f7348560018751610c4d91906115dd565b81518110610c5d57610c5d6115fe565b6020026020010151604051610c7c929190918252602082015260400190565b60405180910390a450505050565b6000546001600160a01b0316331461033d5760405163118cdaa760e01b81523360048201526024016109f0565b600080546001600160a01b038381166001600160a01b0319831681178455604051919092169283917f8be0079c531659141344cd1fd0a4f28419497f9722a3daafe3b4186f6b6457e09190a35050565b6040516001600160a01b0384811660248301528381166044830152606482018390526105939186918216906323b872dd906084015b604051602081830303815290604052915060e01b6020820180516001600160e01b03838183161783525050505061129b565b604080516001600160a01b038416602482015260448082018490528251808303909101815260649091019091526020810180516001600160e01b031663095ea7b360e01b179052610dbf848261130c565b610593576040516001600160a01b03848116602483015260006044830152610df491869182169063095ea7b390606401610d3c565b610593848261129b565b60606000806000610e12878787600061104f565b915091508115610ea55760408051600280825260608201835290916020830190803683370190505093508684600081518110610e5057610e506115fe565b60200260200101906001600160a01b031690816001600160a01b0316815250508584600181518110610e8457610e846115fe565b6001600160a01b039092166020928302919091019091015291506110479050565b7f00000000000000000000000000000000000000000000000000000000000000006001600160a01b0316876001600160a01b031614158015610f1957507f00000000000000000000000000000000000000000000000000000000000000006001600160a01b0316866001600160a01b031614155b1561101b57600080610f2e898989600161104f565b915091508115611018576040805160038082526080820190925290602082016060803683370190505095508886600081518110610f6d57610f6d6115fe565b60200260200101906001600160a01b031690816001600160a01b0316815250507f000000000000000000000000000000000000000000000000000000000000000086600181518110610fc157610fc16115fe565b60200260200101906001600160a01b031690816001600160a01b0316815250508786600281518110610ff557610ff56115fe565b6001600160a01b0390921660209283029190910190910152935061104792505050565b50505b604051633677ac7960e11b81526001600160a01b038089166004830152871660248201526044016109f0565b935093915050565b6000806060831561113c57604080516003808252608082019092529060208201606080368337019050509050868160008151811061108f5761108f6115fe565b60200260200101906001600160a01b031690816001600160a01b0316815250507f0000000000000000000000000000000000000000000000000000000000000000816001815181106110e3576110e36115fe565b60200260200101906001600160a01b031690816001600160a01b0316815250508581600281518110611117576111176115fe565b60200260200101906001600160a01b031690816001600160a01b0316815250506111c5565b60408051600280825260608201835290916020830190803683370190505090508681600081518110611170576111706115fe565b60200260200101906001600160a01b031690816001600160a01b03168152505085816001815181106111a4576111a46115fe565b60200260200101906001600160a01b031690816001600160a01b0316815250505b60405163d06ca61f60e01b81526001600160a01b037f0000000000000000000000000000000000000000000000000000000000000000169063d06ca61f906112139088908590600401611649565b600060405180830381865afa92505050801561125157506040513d6000823e601f3d908101601f1916820160405261124e919081019061151f565b60015b611262576000925060009150611291565b60019350806001825161127591906115dd565b81518110611285576112856115fe565b60200260200101519250505b5094509492505050565b600080602060008451602086016000885af1806112be576040513d6000823e3d81fd5b50506000513d915081156112d65780600114156112e3565b6001600160a01b0384163b155b1561059357604051635274afe760e01b81526001600160a01b03851660048201526024016109f0565b6000806000806020600086516020880160008a5af192503d91506000519050828015611351575081156113425780600114611351565b6000866001600160a01b03163b115b93505050505b92915050565b60006020828403121561136f57600080fd5b5035919050565b80356001600160a01b038116811461138d57600080fd5b919050565b600080600080608085870312156113a857600080fd5b6113b185611376565b93506113bf60208601611376565b93969395505050506040820135916060013590565b6000806000606084860312156113e957600080fd5b6113f284611376565b925061140060208501611376565b9150604084013590509250925092565b60008060006060848603121561142557600080fd5b61142e84611376565b95602085013595506040909401359392505050565b6000806040838503121561145657600080fd5b61145f83611376565b946020939093013593505050565b60006020828403121561147f57600080fd5b6106ae82611376565b60008151808452602080850194506020840160005b838110156114c25781516001600160a01b03168752958201959082019060010161149d565b509495945050505050565b85815284602082015260a0604082015260006114ec60a0830186611488565b6001600160a01b0394909416606083015250608001529392505050565b634e487b7160e01b600052604160045260246000fd5b6000602080838503121561153257600080fd5b825167ffffffffffffffff8082111561154a57600080fd5b818501915085601f83011261155e57600080fd5b81518181111561157057611570611509565b8060051b604051601f19603f8301168101818110858211171561159557611595611509565b6040529182528482019250838101850191888311156115b357600080fd5b938501935b828510156115d1578451845293850193928501926115b8565b98975050505050505050565b8181038181111561135757634e487b7160e01b600052601160045260246000fd5b634e487b7160e01b600052603260045260246000fd5b84815260806020820152600061162d6080830186611488565b6001600160a01b03949094166040830152506060015292915050565b8281526040602082015260006116626040830184611488565b94935050505056fea26469706673582212202c224be586512ad1b20d150ae537ce3139e421867fd812eb9779e88e5d0d32dd64736f6c63430008180033000000000000000000000000c873fecbd354f5a56e00e710b90ef4201db2448d00000000000000000000000082af49447d8a07e3bd95bd0d56f35241523fbab1000000000000000000000000878798c42a931d4b335173c7f233a9279db4d8cd00000000000000000000000034109fb1b9b31fa4f29a84c2e093496f3135a339",
        "nonce": "0x28",
        "chainId": "0x66eee"
      },
      "additionalContracts": [],
      "isFixedGasLimit": false
    },
    {
      "hash": "0xeab2626e187919275b8d47b85071d1f5b68e58e974e03cb9ecaf9d3d198810eb",
      "transactionType": "CALL",
      "contractName": "MockERC20",
      "contractAddress": "0x878798c42a931d4b335173c7f233a9279db4d8cd",
      "function": "mint(address,uint256)",
      "arguments": [
        "0x9EA593F2cBac4671268a609bBbd7276AeA7EB689",
        "10000000000000"
      ],
      "transaction": {
        "from": "0x9ea593f2cbac4671268a609bbbd7276aea7eb689",
        "to": "0x878798c42a931d4b335173c7f233a9279db4d8cd",
        "gas": "0x6ea1",
        "value": "0x0",
        "input": "0x40c10f190000000000000000000000009ea593f2cbac4671268a609bbbd7276aea7eb689000000000000000000000000000000000000000000000000000009184e72a000",
        "nonce": "0x29",
        "chainId": "0x66eee"
      },
      "additionalContracts": [],
      "isFixedGasLimit": false
    },
    {
      "hash": "0xbec7fef3331bd8d3e9063533566204e0ccbb89ba9aec42c306377f6330cae5d7",
      "transactionType": "CALL",
      "contractName": "MockERC20",
      "contractAddress": "0x34109fb1b9b31fa4f29a84c2e093496f3135a339",
      "function": "mint(address,uint256)",
      "arguments": [
        "0x9EA593F2cBac4671268a609bBbd7276AeA7EB689",
        "10000000000000"
      ],
      "transaction": {
        "from": "0x9ea593f2cbac4671268a609bbbd7276aea7eb689",
        "to": "0x34109fb1b9b31fa4f29a84c2e093496f3135a339",
        "gas": "0x6ea1",
        "value": "0x0",
        "input": "0x40c10f190000000000000000000000009ea593f2cbac4671268a609bbbd7276aea7eb689000000000000000000000000000000000000000000000000000009184e72a000",
        "nonce": "0x2a",
        "chainId": "0x66eee"
      },
      "additionalContracts": [],
      "isFixedGasLimit": false
    },
    {
      "hash": "0x920a89948b4423176877bceaa0720bb65cff8a386d0701e0bdf63a3000c48c1b",
      "transactionType": "CALL",
      "contractName": "AccessRegistry",
      "contractAddress": "0x069587ff0e03adb000d4b629354fc1acd04355d0",
      "function": "registerCollector(string)",
      "arguments": [
        "ipfs://stomatrace/deployer-profile"
      ],
      "transaction": {
        "from": "0x9ea593f2cbac4671268a609bbbd7276aea7eb689",
        "to": "0x069587ff0e03adb000d4b629354fc1acd04355d0",
        "gas": "0x7174",
        "value": "0x0",
        "input": "0x736e18b200000000000000000000000000000000000000000000000000000000000000200000000000000000000000000000000000000000000000000000000000000022697066733a2f2f73746f6d6174726163652f6465706c6f7965722d70726f66696c65000000000000000000000000000000000000000000000000000000000000",
        "nonce": "0x2b",
        "chainId": "0x66eee"
      },
      "additionalContracts": [],
      "isFixedGasLimit": false
    },
    {
      "hash": "0x5a8027fae40a377b3304ec744f3deba686daf6170551c12a7a067d36ee48e60b",
      "transactionType": "CALL",
      "contractName": "MockERC20",
      "contractAddress": "0x878798c42a931d4b335173c7f233a9279db4d8cd",
      "function": "approve(address,uint256)",
      "arguments": [
        "0x639c7f18E91fB20505c242BE9E1413171a674654",
        "115792089237316195423570985008687907853269984665640564039457584007913129639935"
      ],
      "transaction": {
        "from": "0x9ea593f2cbac4671268a609bbbd7276aea7eb689",
        "to": "0x878798c42a931d4b335173c7f233a9279db4d8cd",
        "gas": "0x7047",
        "value": "0x0",
        "input": "0x095ea7b3000000000000000000000000639c7f18e91fb20505c242be9e1413171a674654ffffffffffffffffffffffffffffffffffffffffffffffffffffffffffffffff",
        "nonce": "0x2c",
        "chainId": "0x66eee"
      },
      "additionalContracts": [],
      "isFixedGasLimit": false
    },
    {
      "hash": "0x2b3b83ff63192cd0f76750f25dd8432ce17bcfa62489b9fe384fd9c8fc5eced3",
      "transactionType": "CALL",
      "contractName": "MockERC20",
      "contractAddress": "0x34109fb1b9b31fa4f29a84c2e093496f3135a339",
      "function": "approve(address,uint256)",
      "arguments": [
        "0x639c7f18E91fB20505c242BE9E1413171a674654",
        "115792089237316195423570985008687907853269984665640564039457584007913129639935"
      ],
      "transaction": {
        "from": "0x9ea593f2cbac4671268a609bbbd7276aea7eb689",
        "to": "0x34109fb1b9b31fa4f29a84c2e093496f3135a339",
        "gas": "0x7047",
        "value": "0x0",
        "input": "0x095ea7b3000000000000000000000000639c7f18e91fb20505c242be9e1413171a674654ffffffffffffffffffffffffffffffffffffffffffffffffffffffffffffffff",
        "nonce": "0x2d",
        "chainId": "0x66eee"
      },
      "additionalContracts": [],
      "isFixedGasLimit": false
    },
    {
      "hash": "0xde5c4b875e4c506dfbc9d253e59059cd6561aacbd706bebdc551c9e8fc39bada",
      "transactionType": "CALL",
      "contractName": "ProjectNFT",
      "contractAddress": "0xb7cb1413aa4b03106204239dc066ada57fc68dce",
      "function": "mintProject(address,string,uint256,uint256,uint256,uint256,uint256,uint256,string)",
      "arguments": [
        "0x878798c42a931d4B335173C7f233a9279db4D8CD",
        "Beras",
        "10000",
        "100000000",
        "50",
        "150",
        "259200",
        "2592000",
        "ipfs://stomatrace/sample-project-beras"
      ],
      "transaction": {
        "from": "0x9ea593f2cbac4671268a609bbbd7276aea7eb689",
        "to": "0xb7cb1413aa4b03106204239dc066ada57fc68dce",
        "gas": "0x7ab7",
        "value": "0x0",
        "input": "0x86133338000000000000000000000000878798c42a931d4b335173c7f233a9279db4d8cd000000000000000000000000000000000000000000000000000000000000012000000000000000000000000000000000000000000000000000000000000027100000000000000000000000000000000000000000000000000000000005f5e10000000000000000000000000000000000000000000000000000000000000000320000000000000000000000000000000000000000000000000000000000000096000000000000000000000000000000000000000000000000000000000003f4800000000000000000000000000000000000000000000000000000000000278d000000000000000000000000000000000000000000000000000000000000000160000000000000000000000000000000000000000000000000000000000000000542657261730000000000000000000000000000000000000000000000000000000000000000000000000000000000000000000000000000000000000000000026697066733a2f2f73746f6d6174726163652f73616d706c652d70726f6a6563742d62657261730000000000000000000000000000000000000000000000000000",
        "nonce": "0x2e",
        "chainId": "0x66eee"
      },
      "additionalContracts": [],
      "isFixedGasLimit": false
    },
    {
      "hash": "0x9f5834c0ccd5cac05c807a25925369398216a13e2e6e6e6f34f86368d44633fc",
      "transactionType": "CALL",
      "contractName": "ProjectNFT",
      "contractAddress": "0xb7cb1413aa4b03106204239dc066ada57fc68dce",
      "function": "verifyProject(uint256)",
      "arguments": [
        "1"
      ],
      "transaction": {
        "from": "0x9ea593f2cbac4671268a609bbbd7276aea7eb689",
        "to": "0xb7cb1413aa4b03106204239dc066ada57fc68dce",
        "gas": "0x6c85",
        "value": "0x0",
        "input": "0xed1ca91a0000000000000000000000000000000000000000000000000000000000000001",
        "nonce": "0x2f",
        "chainId": "0x66eee"
      },
      "additionalContracts": [],
      "isFixedGasLimit": false
    },
    {
      "hash": "0x1c48406c1276e0e8d7714250ec9f0fefaa4e1e975ae2f7c68766023e42281f88",
      "transactionType": "CALL",
      "contractName": "ProjectNFT",
      "contractAddress": "0xb7cb1413aa4b03106204239dc066ada57fc68dce",
      "function": "mintProject(address,string,uint256,uint256,uint256,uint256,uint256,uint256,string)",
      "arguments": [
        "0x34109fb1B9b31FA4F29a84C2E093496f3135a339",
        "Kopi Robusta",
        "5000",
        "200000000",
        "100",
        "300",
        "259200",
        "2592000",
        "ipfs://stomatrace/sample-project-kopi"
      ],
      "transaction": {
        "from": "0x9ea593f2cbac4671268a609bbbd7276aea7eb689",
        "to": "0xb7cb1413aa4b03106204239dc066ada57fc68dce",
        "gas": "0x7b25",
        "value": "0x0",
        "input": "0x8613333800000000000000000000000034109fb1b9b31fa4f29a84c2e093496f3135a33900000000000000000000000000000000000000000000000000000000000001200000000000000000000000000000000000000000000000000000000000001388000000000000000000000000000000000000000000000000000000000bebc2000000000000000000000000000000000000000000000000000000000000000064000000000000000000000000000000000000000000000000000000000000012c000000000000000000000000000000000000000000000000000000000003f4800000000000000000000000000000000000000000000000000000000000278d000000000000000000000000000000000000000000000000000000000000000160000000000000000000000000000000000000000000000000000000000000000c4b6f706920526f627573746100000000000000000000000000000000000000000000000000000000000000000000000000000000000000000000000000000025697066733a2f2f73746f6d6174726163652f73616d706c652d70726f6a6563742d6b6f7069000000000000000000000000000000000000000000000000000000",
        "nonce": "0x30",
        "chainId": "0x66eee"
      },
      "additionalContracts": [],
      "isFixedGasLimit": false
    },
    {
      "hash": "0x110443c616f34c87152c6594b495ca96544159f6bf39c18f2482c3f1630ded35",
      "transactionType": "CALL",
      "contractName": "ProjectNFT",
      "contractAddress": "0xb7cb1413aa4b03106204239dc066ada57fc68dce",
      "function": "verifyProject(uint256)",
      "arguments": [
        "2"
      ],
      "transaction": {
        "from": "0x9ea593f2cbac4671268a609bbbd7276aea7eb689",
        "to": "0xb7cb1413aa4b03106204239dc066ada57fc68dce",
        "gas": "0x6c85",
        "value": "0x0",
        "input": "0xed1ca91a0000000000000000000000000000000000000000000000000000000000000002",
        "nonce": "0x31",
        "chainId": "0x66eee"
      },
      "additionalContracts": [],
      "isFixedGasLimit": false
    }
  ],
  "receipts": [
    {
      "status": "0x1",
      "cumulativeGasUsed": "0x82a00",
      "logs": [],
      "logsBloom": "0x00000000000000000000000000000000000000000000000000000000000000000000000000000000000000000000000000000000000000000000000000000000000000000000000000000000000000000000000000000000000000000000000000000000000000000000000000000000000000000000000000000000000000000000000000000000000000000000000000000000000000000000000000000000000000000000000000000000000000000000000000000000000000000000000000000000000000000000000000000000000000000000000000000000000000000000000000000000000000000000000000000000000000000000000000000000",
      "type": "0x2",
      "transactionHash": "0x02feb658739dcf907c70030ac2230c5ecf407e8d3cde5dd8dde667b4bcd0bcdf",
      "transactionIndex": "0x1",
      "blockHash": "0xe9e14459754278ee652cd0dfc054928a50a09b19ce14f9f4ae41a6595343ce74",
      "blockNumber": "0xeeb0fca",
      "gasUsed": "0x82a00",
      "effectiveGasPrice": "0x1313ca0",
      "from": "0x9ea593f2cbac4671268a609bbbd7276aea7eb689",
      "to": null,
      "contractAddress": "0x878798c42a931d4b335173c7f233a9279db4d8cd",
      "gasUsedForL1": "0x0",
      "l1BlockNumber": "0x9f78ec",
      "timeboosted": false
    },
    {
      "status": "0x1",
      "cumulativeGasUsed": "0x82a00",
      "logs": [],
      "logsBloom": "0x00000000000000000000000000000000000000000000000000000000000000000000000000000000000000000000000000000000000000000000000000000000000000000000000000000000000000000000000000000000000000000000000000000000000000000000000000000000000000000000000000000000000000000000000000000000000000000000000000000000000000000000000000000000000000000000000000000000000000000000000000000000000000000000000000000000000000000000000000000000000000000000000000000000000000000000000000000000000000000000000000000000000000000000000000000000",
      "type": "0x2",
      "transactionHash": "0x2f491dfa92c403a7cef02626cb8ba3f6d0684c012bf45c55328ca783fe451202",
      "transactionIndex": "0x1",
      "blockHash": "0xa47d3c92e24f4c55c9cb837e12af581ca13dbe7d88b90f9aacde93cbee44503c",
      "blockNumber": "0xeeb0fcf",
      "gasUsed": "0x82a00",
      "effectiveGasPrice": "0x1312d00",
      "from": "0x9ea593f2cbac4671268a609bbbd7276aea7eb689",
      "to": null,
      "contractAddress": "0x34109fb1b9b31fa4f29a84c2e093496f3135a339",
      "gasUsedForL1": "0x0",
      "l1BlockNumber": "0x9f78ee",
      "timeboosted": false
    },
    {
      "status": "0x1",
      "cumulativeGasUsed": "0xfe065",
      "logs": [
        {
          "address": "0x069587ff0e03adb000d4b629354fc1acd04355d0",
          "topics": [
            "0x2f8788117e7eff1d82e926ec794901d17c78024a50270940304540a733656f0d",
            "0x0000000000000000000000000000000000000000000000000000000000000000",
            "0x0000000000000000000000009ea593f2cbac4671268a609bbbd7276aea7eb689",
            "0x0000000000000000000000009ea593f2cbac4671268a609bbbd7276aea7eb689"
          ],
          "data": "0x",
          "blockHash": "0x40abd57e45548434759d8440dcf9e05494b0342572755ab57fa4764f4b4d00f7",
          "blockNumber": "0xeeb0fd5",
          "blockTimestamp": "0x69b697ff",
          "transactionHash": "0xdd19970c4fa2a41ab61c201215475747a9ff1e77ca0fd04d778297a13faa77dc",
          "transactionIndex": "0x1",
          "logIndex": "0x0",
          "removed": false
        }
      ],
      "logsBloom": "0x020000040000000000000000000000000000000000000000000040000000000000000000000000000000000000000000000000000000000000000000000000000000000000000000000000000000000000000000000000000000000000000000000000000200000000000000000008000000000000000000000000000000000000000000000000000000000000000000000000000000000000000010000000002000000000000000000000000000000000000000000000000010000000000000000000000000000000000000000000000000000000000009000000000000a0000000000000000000000000000000000000000000000000000000000000000000",
      "type": "0x2",
      "transactionHash": "0xdd19970c4fa2a41ab61c201215475747a9ff1e77ca0fd04d778297a13faa77dc",
      "transactionIndex": "0x1",
      "blockHash": "0x40abd57e45548434759d8440dcf9e05494b0342572755ab57fa4764f4b4d00f7",
      "blockNumber": "0xeeb0fd5",
      "gasUsed": "0xfe065",
      "effectiveGasPrice": "0x1316b80",
      "from": "0x9ea593f2cbac4671268a609bbbd7276aea7eb689",
      "to": null,
      "contractAddress": "0x069587ff0e03adb000d4b629354fc1acd04355d0",
      "gasUsedForL1": "0x0",
      "l1BlockNumber": "0x9f78ee",
      "timeboosted": false
    },
    {
      "status": "0x1",
      "cumulativeGasUsed": "0x1eedfd",
      "logs": [
        {
          "address": "0xb7cb1413aa4b03106204239dc066ada57fc68dce",
          "topics": [
            "0x2f8788117e7eff1d82e926ec794901d17c78024a50270940304540a733656f0d",
            "0x0000000000000000000000000000000000000000000000000000000000000000",
            "0x0000000000000000000000009ea593f2cbac4671268a609bbbd7276aea7eb689",
            "0x0000000000000000000000009ea593f2cbac4671268a609bbbd7276aea7eb689"
          ],
          "data": "0x",
          "blockHash": "0x11353c840f49e5829b7042d4ace6ba0d29fcb8310b5e9b644b73bde5df6aeb32",
          "blockNumber": "0xeeb0fe3",
          "blockTimestamp": "0x69b69803",
          "transactionHash": "0x6cd281d476c95ed7611c95c2c390ec00febb44f71f6877f7a646ba0678f435a6",
          "transactionIndex": "0x1",
          "logIndex": "0x0",
          "removed": false
        }
      ],
      "logsBloom": "0x000000040000000200000000000000000000000000000000000000000000000000000000000000000000000000000000000000000000000000000000000000000000000000000000000000000000000000000000000000000000000000000000000000000200000000000000000008000000000000000000000000000000000000000000000000000000000000000000000000000000000000000010000008002000000000000000000000000000000000000000000000000010000000000000000000000000000000000000000000000000000000000001000000000000a0000000000000000000000000000010000000000000000000000000000000000000",
      "type": "0x2",
      "transactionHash": "0x6cd281d476c95ed7611c95c2c390ec00febb44f71f6877f7a646ba0678f435a6",
      "transactionIndex": "0x1",
      "blockHash": "0x11353c840f49e5829b7042d4ace6ba0d29fcb8310b5e9b644b73bde5df6aeb32",
      "blockNumber": "0xeeb0fe3",
      "gasUsed": "0x1eedfd",
      "effectiveGasPrice": "0x1312d00",
      "from": "0x9ea593f2cbac4671268a609bbbd7276aea7eb689",
      "to": null,
      "contractAddress": "0xb7cb1413aa4b03106204239dc066ada57fc68dce",
      "gasUsedForL1": "0x0",
      "l1BlockNumber": "0x9f78ee",
      "timeboosted": false
    },
    {
      "status": "0x1",
      "cumulativeGasUsed": "0xb015a",
      "logs": [
        {
          "address": "0x639c7f18e91fb20505c242be9e1413171a674654",
          "topics": [
            "0x2f8788117e7eff1d82e926ec794901d17c78024a50270940304540a733656f0d",
            "0x0000000000000000000000000000000000000000000000000000000000000000",
            "0x0000000000000000000000009ea593f2cbac4671268a609bbbd7276aea7eb689",
            "0x0000000000000000000000009ea593f2cbac4671268a609bbbd7276aea7eb689"
          ],
          "data": "0x",
          "blockHash": "0x1e5d257d8d15d1d8d9bbcd4ad8e8124029903d68337df269bbbbb69e8e891e41",
          "blockNumber": "0xeeb0feb",
          "blockTimestamp": "0x69b69806",
          "transactionHash": "0x5ce8f7b14a44662f9045b0ff39f18f6ac98acc6478b2b9c0a774c1bfaada3910",
          "transactionIndex": "0x1",
          "logIndex": "0x0",
          "removed": false
        },
        {
          "address": "0x639c7f18e91fb20505c242be9e1413171a674654",
          "topics": [
            "0xf84f6b525c89a18c80bbbc0c62a7eb5390956d6b8432ab067b49963a98f8c38f",
            "0x0000000000000000000000000000000000000000000000000000000000000000",
            "0x0000000000000000000000009ea593f2cbac4671268a609bbbd7276aea7eb689"
          ],
          "data": "0x",
          "blockHash": "0x1e5d257d8d15d1d8d9bbcd4ad8e8124029903d68337df269bbbbb69e8e891e41",
          "blockNumber": "0xeeb0feb",
          "blockTimestamp": "0x69b69806",
          "transactionHash": "0x5ce8f7b14a44662f9045b0ff39f18f6ac98acc6478b2b9c0a774c1bfaada3910",
          "transactionIndex": "0x1",
          "logIndex": "0x1",
          "removed": false
        }
      ],
      "logsBloom": "0x000000040000000000000000000000000000000000000000000000000000000000000000000000000000000200000000000000000000000000000000000000000000000000000000000000000000000000020000000000000000000000000000000000000200000000000000000008000000000000000000000000000000000000000000000000000000000000000000000000000000000000000010000001002001000000000000000000000000000000002000000000000010000000000000000000000000000000000000000000000000000000000001000000000000a0000000000000000000000000000000000000000000000000000000000000000000",
      "type": "0x2",
      "transactionHash": "0x5ce8f7b14a44662f9045b0ff39f18f6ac98acc6478b2b9c0a774c1bfaada3910",
      "transactionIndex": "0x1",
      "blockHash": "0x1e5d257d8d15d1d8d9bbcd4ad8e8124029903d68337df269bbbbb69e8e891e41",
      "blockNumber": "0xeeb0feb",
      "gasUsed": "0xb015a",
      "effectiveGasPrice": "0x1312d00",
      "from": "0x9ea593f2cbac4671268a609bbbd7276aea7eb689",
      "to": null,
      "contractAddress": "0x639c7f18e91fb20505c242be9e1413171a674654",
      "gasUsedForL1": "0x0",
      "l1BlockNumber": "0x9f78ee",
      "timeboosted": false
    },
    {
      "status": "0x1",
      "cumulativeGasUsed": "0x26c535",
      "logs": [
        {
          "address": "0x3cb843daaf350debc10bef3baa8b5bf5ee191c72",
          "topics": [
            "0x2f8788117e7eff1d82e926ec794901d17c78024a50270940304540a733656f0d",
            "0x0000000000000000000000000000000000000000000000000000000000000000",
            "0x0000000000000000000000009ea593f2cbac4671268a609bbbd7276aea7eb689",
            "0x0000000000000000000000009ea593f2cbac4671268a609bbbd7276aea7eb689"
          ],
          "data": "0x",
          "blockHash": "0x37b9d55f2e1331adbc61b0dd33fe7860be3997abe8e80f614a82c0106da520ae",
          "blockNumber": "0xeeb0ff8",
          "blockTimestamp": "0x69b6980a",
          "transactionHash": "0x6bf4624b4e903d0e16a0b4af9478ccf1e88f29c28e335d0a885f1a2549df6e64",
          "transactionIndex": "0x1",
          "logIndex": "0x0",
          "removed": false
        }
      ],
      "logsBloom": "0x000000040000000000000000000000000000000000000000000000000000000000000000000000000000000000000000000000000000000000000000000040000000000000000000000000000000000000000000000000000000000000000000000000004200000000000000000008000000000000000000000000000000000000000000000000000000000000000000000000000000000000000010000000002000000000000000000000000000000000000000000000000010000000000000000000000000000000000000000000000000000000000001000000000000a0000000000000000000000000000000000000000000004000000000000000000000",
      "type": "0x2",
      "transactionHash": "0x6bf4624b4e903d0e16a0b4af9478ccf1e88f29c28e335d0a885f1a2549df6e64",
      "transactionIndex": "0x1",
      "blockHash": "0x37b9d55f2e1331adbc61b0dd33fe7860be3997abe8e80f614a82c0106da520ae",
      "blockNumber": "0xeeb0ff8",
      "gasUsed": "0x26c535",
      "effectiveGasPrice": "0x1316b80",
      "from": "0x9ea593f2cbac4671268a609bbbd7276aea7eb689",
      "to": null,
      "contractAddress": "0x3cb843daaf350debc10bef3baa8b5bf5ee191c72",
      "gasUsedForL1": "0x0",
      "l1BlockNumber": "0x9f78ee",
      "timeboosted": false
    },
    {
      "status": "0x1",
      "cumulativeGasUsed": "0x263a9",
      "logs": [
        {
          "address": "0x069587ff0e03adb000d4b629354fc1acd04355d0",
          "topics": [
            "0x2f8788117e7eff1d82e926ec794901d17c78024a50270940304540a733656f0d",
            "0x811427a0fa4932aef534bba16bc34e9b7b2d7d2a79c475fca1765f6cc1faebea",
            "0x0000000000000000000000009ea593f2cbac4671268a609bbbd7276aea7eb689",
            "0x0000000000000000000000009ea593f2cbac4671268a609bbbd7276aea7eb689"
          ],
          "data": "0x",
          "blockHash": "0x4eabbcfba590d7655aec4abf4bf6f9517cc544fea2e7ef580ee5117dab8e6b8c",
          "blockNumber": "0xeeb1004",
          "blockTimestamp": "0x69b6980d",
          "transactionHash": "0xb2d90bf3885e37826be89879f01e9a4178d5f0c77bf674eac2bd516484ee9e4f",
          "transactionIndex": "0x2",
          "logIndex": "0x3",
          "removed": false
        }
      ],
      "logsBloom": "0x02000004000000000000000000000000000000000000000000004000000000000000000000000000000000000000000000000000000000000000000200000000000000000000000000000000000000000000000000000000000000000000000000000000000000000000000004000000000000000000000000000000000000000000000000000000000000000000000000000000000000000000001000000000200000000000000000000000000000000000000000000000001000000000000000000000000000000000000000000000000000000000000900000000000080010000000000000000000000000000000000000000000000000000000000000000",
      "type": "0x2",
      "transactionHash": "0xb2d90bf3885e37826be89879f01e9a4178d5f0c77bf674eac2bd516484ee9e4f",
      "transactionIndex": "0x2",
      "blockHash": "0x4eabbcfba590d7655aec4abf4bf6f9517cc544fea2e7ef580ee5117dab8e6b8c",
      "blockNumber": "0xeeb1004",
      "gasUsed": "0xc924",
      "effectiveGasPrice": "0x1312d00",
      "from": "0x9ea593f2cbac4671268a609bbbd7276aea7eb689",
      "to": "0x069587ff0e03adb000d4b629354fc1acd04355d0",
      "contractAddress": null,
      "gasUsedForL1": "0x0",
      "l1BlockNumber": "0x9f78ee",
      "timeboosted": false
    },
    {
      "status": "0x1",
      "cumulativeGasUsed": "0xc924",
      "logs": [
        {
          "address": "0x069587ff0e03adb000d4b629354fc1acd04355d0",
          "topics": [
            "0x2f8788117e7eff1d82e926ec794901d17c78024a50270940304540a733656f0d",
            "0xb8179c2726c8d8961ef054875ab3f4c1c3d34e1cb429c3d5e0bc97958e4cab9d",
            "0x0000000000000000000000003cb843daaf350debc10bef3baa8b5bf5ee191c72",
            "0x0000000000000000000000009ea593f2cbac4671268a609bbbd7276aea7eb689"
          ],
          "data": "0x",
          "blockHash": "0xdcf8ab91d4d83d233d7fea6ae562d4643092e4b1fa73aef5e87ae2fd08ad01eb",
          "blockNumber": "0xeeb1010",
          "blockTimestamp": "0x69b69810",
          "transactionHash": "0x128872f901cd26752ccdcaf0dffebec41f2ee9a490a45f5042312478941f59d1",
          "transactionIndex": "0x1",
          "logIndex": "0x0",
          "removed": false
        }
      ],
      "logsBloom": "0x02000004000000000000000000000000000000000000000000004000000000000000000000000000000000000000000000100000000000000000000000000000000000000000000000000000000000000000000000000000004000000000000000000000000000000000000000000000000000004000000000000000000000000000000000000000000000000000800000000000000000000000001000000000200000000000000000000000000000000000000000000000001000000000000000000000000000000000000000000000000000000000000900000000000080000000000000000000000000000000000010000000000000000000000000000000",
      "type": "0x2",
      "transactionHash": "0x128872f901cd26752ccdcaf0dffebec41f2ee9a490a45f5042312478941f59d1",
      "transactionIndex": "0x1",
      "blockHash": "0xdcf8ab91d4d83d233d7fea6ae562d4643092e4b1fa73aef5e87ae2fd08ad01eb",
      "blockNumber": "0xeeb1010",
      "gasUsed": "0xc924",
      "effectiveGasPrice": "0x1312d00",
      "from": "0x9ea593f2cbac4671268a609bbbd7276aea7eb689",
      "to": "0x069587ff0e03adb000d4b629354fc1acd04355d0",
      "contractAddress": null,
      "gasUsedForL1": "0x0",
      "l1BlockNumber": "0x9f78ee",
      "timeboosted": false
    },
    {
      "status": "0x1",
      "cumulativeGasUsed": "0xc924",
      "logs": [
        {
          "address": "0x069587ff0e03adb000d4b629354fc1acd04355d0",
          "topics": [
            "0x2f8788117e7eff1d82e926ec794901d17c78024a50270940304540a733656f0d",
            "0xb8179c2726c8d8961ef054875ab3f4c1c3d34e1cb429c3d5e0bc97958e4cab9d",
            "0x000000000000000000000000b7cb1413aa4b03106204239dc066ada57fc68dce",
            "0x0000000000000000000000009ea593f2cbac4671268a609bbbd7276aea7eb689"
          ],
          "data": "0x",
          "blockHash": "0x35642d226a2abfe1681d3d9aa1545b1a3e4c484f2f96b10320bd71f4ef2e0044",
          "blockNumber": "0xeeb101f",
          "blockTimestamp": "0x69b69814",
          "transactionHash": "0xb1bf377dd146b9dfb010335f343f9f99e9f2d8b8f6ab4b4ece5ee5cd7320310a",
          "transactionIndex": "0x1",
          "logIndex": "0x0",
          "removed": false
        }
      ],
      "logsBloom": "0x02000004000000000000000000000000000000000000000000004000000000000000000000000000000000000000000000100000000000000000000000000000000000000000000000000000000000100000000000000000004000000000000800000000000000000000000000000000000000000000000000000000000000000000000000000000000000000000000000000000000000000000001000000000200000000000000000000000000000000000000000000000001000000000000000000000000000000000000000000000000000000000000900000020000080000000000000000000000000000000000010000000000000000000000000000000",
      "type": "0x2",
      "transactionHash": "0xb1bf377dd146b9dfb010335f343f9f99e9f2d8b8f6ab4b4ece5ee5cd7320310a",
      "transactionIndex": "0x1",
      "blockHash": "0x35642d226a2abfe1681d3d9aa1545b1a3e4c484f2f96b10320bd71f4ef2e0044",
      "blockNumber": "0xeeb101f",
      "gasUsed": "0xc924",
      "effectiveGasPrice": "0x1316b80",
      "from": "0x9ea593f2cbac4671268a609bbbd7276aea7eb689",
      "to": "0x069587ff0e03adb000d4b629354fc1acd04355d0",
      "contractAddress": null,
      "gasUsedForL1": "0x0",
      "l1BlockNumber": "0x9f78ee",
      "timeboosted": false
    },
    {
      "status": "0x1",
      "cumulativeGasUsed": "0xc92b",
      "logs": [
        {
          "address": "0xb7cb1413aa4b03106204239dc066ada57fc68dce",
          "topics": [
            "0x2f8788117e7eff1d82e926ec794901d17c78024a50270940304540a733656f0d",
            "0x811427a0fa4932aef534bba16bc34e9b7b2d7d2a79c475fca1765f6cc1faebea",
            "0x0000000000000000000000009ea593f2cbac4671268a609bbbd7276aea7eb689",
            "0x0000000000000000000000009ea593f2cbac4671268a609bbbd7276aea7eb689"
          ],
          "data": "0x",
          "blockHash": "0x7753559531818b1f7c9a2d209cfcd28b10a7049eec19bfa521552565e6f12daa",
          "blockNumber": "0xeeb102b",
          "blockTimestamp": "0x69b69817",
          "transactionHash": "0x104681c30d1f0163516b49a60fb4c7ffcebebf79bb9963bfc98a46b1799564bf",
          "transactionIndex": "0x1",
          "logIndex": "0x0",
          "removed": false
        }
      ],
      "logsBloom": "0x00000004000000020000000000000000000000000000000000000000000000000000000000000000000000000000000000000000000000000000000200000000000000000000000000000000000000000000000000000000000000000000000000000000000000000000000004000000000000000000000000000000000000000000000000000000000000000000000000000000000000000000001000000800200000000000000000000000000000000000000000000000001000000000000000000000000000000000000000000000000000000000000100000000000080010000000000000000000000000010000000000000000000000000000000000000",
      "type": "0x2",
      "transactionHash": "0x104681c30d1f0163516b49a60fb4c7ffcebebf79bb9963bfc98a46b1799564bf",
      "transactionIndex": "0x1",
      "blockHash": "0x7753559531818b1f7c9a2d209cfcd28b10a7049eec19bfa521552565e6f12daa",
      "blockNumber": "0xeeb102b",
      "gasUsed": "0xc92b",
      "effectiveGasPrice": "0x13134d0",
      "from": "0x9ea593f2cbac4671268a609bbbd7276aea7eb689",
      "to": "0xb7cb1413aa4b03106204239dc066ada57fc68dce",
      "contractAddress": null,
      "gasUsedForL1": "0x0",
      "l1BlockNumber": "0x9f78ee",
      "timeboosted": false
    },
    {
      "status": "0x1",
      "cumulativeGasUsed": "0xc92b",
      "logs": [
        {
          "address": "0xb7cb1413aa4b03106204239dc066ada57fc68dce",
          "topics": [
            "0x2f8788117e7eff1d82e926ec794901d17c78024a50270940304540a733656f0d",
            "0xb8179c2726c8d8961ef054875ab3f4c1c3d34e1cb429c3d5e0bc97958e4cab9d",
            "0x0000000000000000000000003cb843daaf350debc10bef3baa8b5bf5ee191c72",
            "0x0000000000000000000000009ea593f2cbac4671268a609bbbd7276aea7eb689"
          ],
          "data": "0x",
          "blockHash": "0x2e47d52838a2f621c42309fb2876d318537933cceef41da58b8354e325e4f371",
          "blockNumber": "0xeeb1030",
          "blockTimestamp": "0x69b6981a",
          "transactionHash": "0xbd8d1e533a0bf4b27d8561840cd8686177d97ba1d36723c2974e1ca8d5cab24f",
          "transactionIndex": "0x1",
          "logIndex": "0x0",
          "removed": false
        }
      ],
      "logsBloom": "0x00000004000000020000000000000000000000000000000000000000000000000000000000000000000000000000000000100000000000000000000000000000000000000000000000000000000000000000000000000000004000000000000000000000000000000000000000000000000000004000000000000000000000000000000000000000000000000000800000000000000000000000001000000800200000000000000000000000000000000000000000000000001000000000000000000000000000000000000000000000000000000000000100000000000080000000000000000000000000000010000010000000000000000000000000000000",
      "type": "0x2",
      "transactionHash": "0xbd8d1e533a0bf4b27d8561840cd8686177d97ba1d36723c2974e1ca8d5cab24f",
      "transactionIndex": "0x1",
      "blockHash": "0x2e47d52838a2f621c42309fb2876d318537933cceef41da58b8354e325e4f371",
      "blockNumber": "0xeeb1030",
      "gasUsed": "0xc92b",
      "effectiveGasPrice": "0x1312d00",
      "from": "0x9ea593f2cbac4671268a609bbbd7276aea7eb689",
      "to": "0xb7cb1413aa4b03106204239dc066ada57fc68dce",
      "contractAddress": null,
      "gasUsedForL1": "0x0",
      "l1BlockNumber": "0x9f78ee",
      "timeboosted": false
    },
    {
      "status": "0x1",
      "cumulativeGasUsed": "0xc924",
      "logs": [
        {
          "address": "0x639c7f18e91fb20505c242be9e1413171a674654",
          "topics": [
            "0x2f8788117e7eff1d82e926ec794901d17c78024a50270940304540a733656f0d",
            "0xb8179c2726c8d8961ef054875ab3f4c1c3d34e1cb429c3d5e0bc97958e4cab9d",
            "0x0000000000000000000000003cb843daaf350debc10bef3baa8b5bf5ee191c72",
            "0x0000000000000000000000009ea593f2cbac4671268a609bbbd7276aea7eb689"
          ],
          "data": "0x",
          "blockHash": "0x68969c5cdf1c1d5f7282f790d385824897393f9a284144b6fe100208b73049a1",
          "blockNumber": "0xeeb103b",
          "blockTimestamp": "0x69b6981e",
          "transactionHash": "0x8b3c01d388e9d4bca68b7b375d3843f75bb68c48562188ec5c790bc32fd67e2d",
          "transactionIndex": "0x1",
          "logIndex": "0x0",
          "removed": false
        }
      ],
      "logsBloom": "0x00000004000000000000000000000000000000000000000000000000000000000000000000000000000000020000000000100000000000000000000000000000000000000000000000000000000000000000000000000000004000000000000000000000000000000000000000000000000000004000000000000000000000000000000000000000000000000000800000000000000000000000001000000000200000000000000000000000000000000000200000000000001000000000000000000000000000000000000000000000000000000000000100000000000080000000000000000000000000000000000010000000000000000000000000000000",
      "type": "0x2",
      "transactionHash": "0x8b3c01d388e9d4bca68b7b375d3843f75bb68c48562188ec5c790bc32fd67e2d",
      "transactionIndex": "0x1",
      "blockHash": "0x68969c5cdf1c1d5f7282f790d385824897393f9a284144b6fe100208b73049a1",
      "blockNumber": "0xeeb103b",
      "gasUsed": "0xc924",
      "effectiveGasPrice": "0x1312d00",
      "from": "0x9ea593f2cbac4671268a609bbbd7276aea7eb689",
      "to": "0x639c7f18e91fb20505c242be9e1413171a674654",
      "contractAddress": null,
      "gasUsedForL1": "0x0",
      "l1BlockNumber": "0x9f78ee",
      "timeboosted": false
    },
    {
      "status": "0x1",
      "cumulativeGasUsed": "0x11b59",
      "logs": [
        {
          "address": "0x3cb843daaf350debc10bef3baa8b5bf5ee191c72",
          "topics": [
            "0x2f8788117e7eff1d82e926ec794901d17c78024a50270940304540a733656f0d",
            "0x97667070c54ef182b0f5858b034beac1b6f3089aa2d3188bb1e8929f4fa9b929",
            "0x0000000000000000000000009ea593f2cbac4671268a609bbbd7276aea7eb689",
            "0x0000000000000000000000009ea593f2cbac4671268a609bbbd7276aea7eb689"
          ],
          "data": "0x",
          "blockHash": "0x1978212daf746b20e218ac3281ed69687f5a3f82c503d151ea558d14f6b64572",
          "blockNumber": "0xeeb1048",
          "blockTimestamp": "0x69b69821",
          "transactionHash": "0x21aeb4172c654f252c4d53c73519b0c0e1e555dc3c4ce4eac14915b339584c5c",
          "transactionIndex": "0x2",
          "logIndex": "0x0",
          "removed": false
        }
      ],
      "logsBloom": "0x00000004000000000000000000000000000000000000000000000000000000000200000000000000000000000000000000000000000000000000000000004000000000000000000000000000000000000002000000000000000000000000000000000000400000000000000000000000000000000000000000000000000000000000000000000000000000000000000000000000000000000000001000000000200000000000000000000000000000000000000000008000001000000000000000000000000000000000000000000000000000000000000100000000000080000000000000000000000000000000000000000000004000000000000000000000",
      "type": "0x2",
      "transactionHash": "0x21aeb4172c654f252c4d53c73519b0c0e1e555dc3c4ce4eac14915b339584c5c",
      "transactionIndex": "0x2",
      "blockHash": "0x1978212daf746b20e218ac3281ed69687f5a3f82c503d151ea558d14f6b64572",
      "blockNumber": "0xeeb1048",
      "gasUsed": "0xc951",
      "effectiveGasPrice": "0x1314470",
      "from": "0x9ea593f2cbac4671268a609bbbd7276aea7eb689",
      "to": "0x3cb843daaf350debc10bef3baa8b5bf5ee191c72",
      "contractAddress": null,
      "gasUsedForL1": "0x0",
      "l1BlockNumber": "0x9f78ee",
      "timeboosted": false
    },
    {
      "status": "0x1",
      "cumulativeGasUsed": "0xbc1c",
      "logs": [
        {
          "address": "0x3cb843daaf350debc10bef3baa8b5bf5ee191c72",
          "topics": [
            "0x41e60d181306b4838cb2b18f318e3a9ba536d93ccdb1ec613c048faa097c18dd",
            "0x000000000000000000000000878798c42a931d4b335173c7f233a9279db4d8cd"
          ],
          "data": "0x0000000000000000000000000000000000000000000000000000000000000001",
          "blockHash": "0x5f39c756c198945d8ef5eee878f59cb3ee0138cca438bdee862472759dfb8090",
          "blockNumber": "0xeeb1055",
          "blockTimestamp": "0x69b69825",
          "transactionHash": "0x9a3de165f2a3b55488af50603bdf5dbbc5906afdc9757fb6630866e44a6b880c",
          "transactionIndex": "0x1",
          "logIndex": "0x0",
          "removed": false
        }
      ],
      "logsBloom": "0x00000000000000000000000000100000000000000000000000000020040000000000000000000000000000000000000000000020000000000000000000004000000000000000000020000000000000000000000000000000000000000000000000000000600000000000000000000000000000000000000000000000000000000000000000000000000000000000000000000000000000000000000000000000000000000000000000000000000000000000000000000000000000000000000000000000000000000000000000000000000000000000000000000000000000000000000000000000000000000000000000000000004000000000000000000000",
      "type": "0x2",
      "transactionHash": "0x9a3de165f2a3b55488af50603bdf5dbbc5906afdc9757fb6630866e44a6b880c",
      "transactionIndex": "0x1",
      "blockHash": "0x5f39c756c198945d8ef5eee878f59cb3ee0138cca438bdee862472759dfb8090",
      "blockNumber": "0xeeb1055",
      "gasUsed": "0xbc1c",
      "effectiveGasPrice": "0x131a230",
      "from": "0x9ea593f2cbac4671268a609bbbd7276aea7eb689",
      "to": "0x3cb843daaf350debc10bef3baa8b5bf5ee191c72",
      "contractAddress": null,
      "gasUsedForL1": "0x0",
      "l1BlockNumber": "0x9f78ee",
      "timeboosted": false
    },
    {
      "status": "0x1",
      "cumulativeGasUsed": "0xbc1c",
      "logs": [
        {
          "address": "0x3cb843daaf350debc10bef3baa8b5bf5ee191c72",
          "topics": [
            "0x41e60d181306b4838cb2b18f318e3a9ba536d93ccdb1ec613c048faa097c18dd",
            "0x00000000000000000000000034109fb1b9b31fa4f29a84c2e093496f3135a339"
          ],
          "data": "0x0000000000000000000000000000000000000000000000000000000000000001",
          "blockHash": "0x2f262f3ee47bdd56162e281b6ed7afe8bab0daa90badc7979acfe088adfdc3cd",
          "blockNumber": "0xeeb105b",
          "blockTimestamp": "0x69b69826",
          "transactionHash": "0x45a6c869fe0152a3d012e67451f10acade1278c3bae87e0c70a81e11d23dbfad",
          "transactionIndex": "0x1",
          "logIndex": "0x0",
          "removed": false
        }
      ],
      "logsBloom": "0x00000000000000000000000000100000000001000000000000000000040000000000000000000000000000000000000000000000000000000000000000004000000000000000000020000000000000000000000000000000000000000000000000000000400000000000000000000000000000000000000008000000000000000000000000000000000000000000000000000000000000000000000000000000000000000000000000000000000000000000000000000000000000000000000000000000000000000000000000000000000000000000000000000000004000000000000000000000000000000000000000000000004000000000000000000000",
      "type": "0x2",
      "transactionHash": "0x45a6c869fe0152a3d012e67451f10acade1278c3bae87e0c70a81e11d23dbfad",
      "transactionIndex": "0x1",
      "blockHash": "0x2f262f3ee47bdd56162e281b6ed7afe8bab0daa90badc7979acfe088adfdc3cd",
      "blockNumber": "0xeeb105b",
      "gasUsed": "0xbc1c",
      "effectiveGasPrice": "0x1312d00",
      "from": "0x9ea593f2cbac4671268a609bbbd7276aea7eb689",
      "to": "0x3cb843daaf350debc10bef3baa8b5bf5ee191c72",
      "contractAddress": null,
      "gasUsedForL1": "0x0",
      "l1BlockNumber": "0x9f78ee",
      "timeboosted": false
    },
    {
      "status": "0x1",
      "cumulativeGasUsed": "0x14a8e1",
      "logs": [
        {
          "address": "0x7151bc551abb29a5fff0f0ffcb7ed3b95f1faf34",
          "topics": [
            "0x8be0079c531659141344cd1fd0a4f28419497f9722a3daafe3b4186f6b6457e0",
            "0x0000000000000000000000000000000000000000000000000000000000000000",
            "0x0000000000000000000000009ea593f2cbac4671268a609bbbd7276aea7eb689"
          ],
          "data": "0x",
          "blockHash": "0xc11a09812c45bfa9d40a9192abd4dbf5e961a204059bb02269666d5af4ce1add",
          "blockNumber": "0xeeb1061",
          "blockTimestamp": "0x69b69828",
          "transactionHash": "0x7ab25fdbe00f8065c86ccea57d59b739082cc6e71812466bb107799fc3e443e3",
          "transactionIndex": "0x1",
          "logIndex": "0x0",
          "removed": false
        }
      ],
      "logsBloom": "0x000000000000000000000000000000000000000000000000008004000000000000000000000000000000000000000000000000000000000000000000000000000000000000000000000000000000000000010000000000000000000000000000000000000200000000000000800008000000000000000000000000000000004000000000000000000000000000000000000000000000000000000010000000002000000000000000000000000000000000000000000000000000000000000000000000000000000000000000000000000000000000000000000000000000a0000000000000000000000000000000000800000000000000000000000000000000",
      "type": "0x2",
      "transactionHash": "0x7ab25fdbe00f8065c86ccea57d59b739082cc6e71812466bb107799fc3e443e3",
      "transactionIndex": "0x1",
      "blockHash": "0xc11a09812c45bfa9d40a9192abd4dbf5e961a204059bb02269666d5af4ce1add",
      "blockNumber": "0xeeb1061",
      "gasUsed": "0x14a8e1",
      "effectiveGasPrice": "0x1312d00",
      "from": "0x9ea593f2cbac4671268a609bbbd7276aea7eb689",
      "to": null,
      "contractAddress": "0x7151bc551abb29a5fff0f0ffcb7ed3b95f1faf34",
      "gasUsedForL1": "0x0",
      "l1BlockNumber": "0x9f78ee",
      "timeboosted": false
    },
    {
      "status": "0x1",
      "cumulativeGasUsed": "0x10b39",
      "logs": [
        {
          "address": "0x878798c42a931d4b335173c7f233a9279db4d8cd",
          "topics": [
            "0xddf252ad1be2c89b69c2b068fc378daa952ba7f163c4a11628f55a4df523b3ef",
            "0x0000000000000000000000000000000000000000000000000000000000000000",
            "0x0000000000000000000000009ea593f2cbac4671268a609bbbd7276aea7eb689"
          ],
          "data": "0x000000000000000000000000000000000000000000000000000009184e72a000",
          "blockHash": "0xe9173ec765af6ee59e5ce761d385f09e79bb4ba230c12e5dfb704793c9564405",
          "blockNumber": "0xeeb106e",
          "blockTimestamp": "0x69b6982b",
          "transactionHash": "0xeab2626e187919275b8d47b85071d1f5b68e58e974e03cb9ecaf9d3d198810eb",
          "transactionIndex": "0x1",
          "logIndex": "0x0",
          "removed": false
        }
      ],
      "logsBloom": "0x000000000000000000000000000000000000000000000000000000200000000000000000000000000000000000008000000000000000000000000000000000000000000000000000000000080000000000000000000000000004000000000000000000000200000000000000000008000000000000000000000000100000000000000000000000000000000000000000000000000000000000000010000000002000000000000000000000000000000000000000000000000000000000000000000000020000000000000000000000000000000000000000000000000000a0000000000000000000000000000000000000000000000000000000000000000000",
      "type": "0x2",
      "transactionHash": "0xeab2626e187919275b8d47b85071d1f5b68e58e974e03cb9ecaf9d3d198810eb",
      "transactionIndex": "0x1",
      "blockHash": "0xe9173ec765af6ee59e5ce761d385f09e79bb4ba230c12e5dfb704793c9564405",
      "blockNumber": "0xeeb106e",
      "gasUsed": "0x10b39",
      "effectiveGasPrice": "0x1312d00",
      "from": "0x9ea593f2cbac4671268a609bbbd7276aea7eb689",
      "to": "0x878798c42a931d4b335173c7f233a9279db4d8cd",
      "contractAddress": null,
      "gasUsedForL1": "0x0",
      "l1BlockNumber": "0x9f78ef",
      "timeboosted": false
    },
    {
      "status": "0x1",
      "cumulativeGasUsed": "0x10b39",
      "logs": [
        {
          "address": "0x34109fb1b9b31fa4f29a84c2e093496f3135a339",
          "topics": [
            "0xddf252ad1be2c89b69c2b068fc378daa952ba7f163c4a11628f55a4df523b3ef",
            "0x0000000000000000000000000000000000000000000000000000000000000000",
            "0x0000000000000000000000009ea593f2cbac4671268a609bbbd7276aea7eb689"
          ],
          "data": "0x000000000000000000000000000000000000000000000000000009184e72a000",
          "blockHash": "0xdf181cf555d22008e6e2902f51c62081c3a89a6e8ed23e091791c8dac2134db9",
          "blockNumber": "0xeeb1073",
          "blockTimestamp": "0x69b6982d",
          "transactionHash": "0xbec7fef3331bd8d3e9063533566204e0ccbb89ba9aec42c306377f6330cae5d7",
          "transactionIndex": "0x1",
          "logIndex": "0x0",
          "removed": false
        }
      ],
      "logsBloom": "0x000000000000000000000000000000000000000000000000000000000000000000000002000000000000000000000000000000000000000000000000000000000000000000000000000000080000000000000000000000000000020000000000000000000200000000000000000008000000000000000000000000100000000000000000000000000000000000000000000000000000000000000010000000002000000000000000000000000000000000000000000000000000000000000000020000020000000000000000000000000000000000000000000000000000a0000000000000000000000000000000000000000000000000000000000000000000",
      "type": "0x2",
      "transactionHash": "0xbec7fef3331bd8d3e9063533566204e0ccbb89ba9aec42c306377f6330cae5d7",
      "transactionIndex": "0x1",
      "blockHash": "0xdf181cf555d22008e6e2902f51c62081c3a89a6e8ed23e091791c8dac2134db9",
      "blockNumber": "0xeeb1073",
      "gasUsed": "0x10b39",
      "effectiveGasPrice": "0x13134d0",
      "from": "0x9ea593f2cbac4671268a609bbbd7276aea7eb689",
      "to": "0x34109fb1b9b31fa4f29a84c2e093496f3135a339",
      "contractAddress": null,
      "gasUsedForL1": "0x0",
      "l1BlockNumber": "0x9f78ef",
      "timeboosted": false
    },
    {
      "status": "0x1",
      "cumulativeGasUsed": "0x237fe",
      "logs": [
        {
          "address": "0x069587ff0e03adb000d4b629354fc1acd04355d0",
          "topics": [
            "0x79cb6ff5e6b24d80e2196db35d9381da61a2d9dfc7a1f3bc2a37c3322ae85e94",
            "0x0000000000000000000000009ea593f2cbac4671268a609bbbd7276aea7eb689"
          ],
          "data": "0x00000000000000000000000000000000000000000000000000000000000000200000000000000000000000000000000000000000000000000000000000000022697066733a2f2f73746f6d6174726163652f6465706c6f7965722d70726f66696c65000000000000000000000000000000000000000000000000000000000000",
          "blockHash": "0x7c695151d46df59ae0421064dd0875c5c6bad704ceaf1f958d78c1b365e408f6",
          "blockNumber": "0xeeb107a",
          "blockTimestamp": "0x69b6982e",
          "transactionHash": "0x920a89948b4423176877bceaa0720bb65cff8a386d0701e0bdf63a3000c48c1b",
          "transactionIndex": "0x1",
          "logIndex": "0x0",
          "removed": false
        }
      ],
      "logsBloom": "0x02000000000000000000000000000000000000000000000000004000000000000000000008000000000000000000000000000000000000000000000000000000000100000000000000000000000000000000000000000000000010000000000000000000000000000000000000000000000000000000000000000000000000000000000000000000000000000000000000000000000000000000001000000000200000000000000000000000000000000000000000000000000000000000000000000000000000000000000000000000000000000000000800000000000080000000000000000000000000000000000000000000000000000000000000000000",
      "type": "0x2",
      "transactionHash": "0x920a89948b4423176877bceaa0720bb65cff8a386d0701e0bdf63a3000c48c1b",
      "transactionIndex": "0x1",
      "blockHash": "0x7c695151d46df59ae0421064dd0875c5c6bad704ceaf1f958d78c1b365e408f6",
      "blockNumber": "0xeeb107a",
      "gasUsed": "0x237fe",
      "effectiveGasPrice": "0x1315410",
      "from": "0x9ea593f2cbac4671268a609bbbd7276aea7eb689",
      "to": "0x069587ff0e03adb000d4b629354fc1acd04355d0",
      "contractAddress": null,
      "gasUsedForL1": "0x0",
      "l1BlockNumber": "0x9f78ef",
      "timeboosted": false
    },
    {
      "status": "0x1",
      "cumulativeGasUsed": "0x17638",
      "logs": [
        {
          "address": "0x878798c42a931d4b335173c7f233a9279db4d8cd",
          "topics": [
            "0x8c5be1e5ebec7d5bd14f71427d1e84f3dd0314c0f7b2291e5b200ac8c7c3b925",
            "0x0000000000000000000000009ea593f2cbac4671268a609bbbd7276aea7eb689",
            "0x000000000000000000000000639c7f18e91fb20505c242be9e1413171a674654"
          ],
          "data": "0xffffffffffffffffffffffffffffffffffffffffffffffffffffffffffffffff",
          "blockHash": "0x781c5d903b8ecb4150df0847352cb3d3a258e629bc583ef0a28ef8d0c771b717",
          "blockNumber": "0xeeb1088",
          "blockTimestamp": "0x69b69832",
          "transactionHash": "0x5a8027fae40a377b3304ec744f3deba686daf6170551c12a7a067d36ee48e60b",
          "transactionIndex": "0x2",
          "logIndex": "0x1",
          "removed": false
        }
      ],
      "logsBloom": "0x00000000000000000000000000000000000000000000000000000020000000000000000000000000000000000000800000000000000000000000000000200000000000000000000000000000000000000000000000000000000400000000000000000000000000000000000000200000000000000000000000000000000000000000000000000000000000000000000000000000000000000000001000000000220000000000000000000000000000000000000000000000000000000000000000000000000000000000000000000000000000000000000000000000000080000030000000000000000000000000002000000000000000000000000000000000",
      "type": "0x2",
      "transactionHash": "0x5a8027fae40a377b3304ec744f3deba686daf6170551c12a7a067d36ee48e60b",
      "transactionIndex": "0x2",
      "blockHash": "0x781c5d903b8ecb4150df0847352cb3d3a258e629bc583ef0a28ef8d0c771b717",
      "blockNumber": "0xeeb1088",
      "gasUsed": "0xb65b",
      "effectiveGasPrice": "0x1312d00",
      "from": "0x9ea593f2cbac4671268a609bbbd7276aea7eb689",
      "to": "0x878798c42a931d4b335173c7f233a9279db4d8cd",
      "contractAddress": null,
      "gasUsedForL1": "0x0",
      "l1BlockNumber": "0x9f78ef",
      "timeboosted": false
    },
    {
      "status": "0x1",
      "cumulativeGasUsed": "0x2ea03",
      "logs": [
        {
          "address": "0x34109fb1b9b31fa4f29a84c2e093496f3135a339",
          "topics": [
            "0x8c5be1e5ebec7d5bd14f71427d1e84f3dd0314c0f7b2291e5b200ac8c7c3b925",
            "0x0000000000000000000000009ea593f2cbac4671268a609bbbd7276aea7eb689",
            "0x000000000000000000000000639c7f18e91fb20505c242be9e1413171a674654"
          ],
          "data": "0xffffffffffffffffffffffffffffffffffffffffffffffffffffffffffffffff",
          "blockHash": "0xbe53ffb5188b606bd995ada15ecde28de1f39b03b0d76eafb12365f41616c28d",
          "blockNumber": "0xeeb1095",
          "blockTimestamp": "0x69b69835",
          "transactionHash": "0x2b3b83ff63192cd0f76750f25dd8432ce17bcfa62489b9fe384fd9c8fc5eced3",
          "transactionIndex": "0x3",
          "logIndex": "0x4",
          "removed": false
        }
      ],
      "logsBloom": "0x00000000000000000000000000000000000000000000000000000000000000000000000200000000000000000000000000000000000000000000000000200000000000000000000000000000000000000000000000000000000002000000000000000000000000000000000000200000000000000000000000000000000000000000000000000000000000000000000000000000000000000000001000000000220000000000000000000000000000000000000000000000000000000000000002000000000000000000000000000000000000000000000000000000000080000030000000000000000000000000002000000000000000000000000000000000",
      "type": "0x2",
      "transactionHash": "0x2b3b83ff63192cd0f76750f25dd8432ce17bcfa62489b9fe384fd9c8fc5eced3",
      "transactionIndex": "0x3",
      "blockHash": "0xbe53ffb5188b606bd995ada15ecde28de1f39b03b0d76eafb12365f41616c28d",
      "blockNumber": "0xeeb1095",
      "gasUsed": "0xb65b",
      "effectiveGasPrice": "0x1315410",
      "from": "0x9ea593f2cbac4671268a609bbbd7276aea7eb689",
      "to": "0x34109fb1b9b31fa4f29a84c2e093496f3135a339",
      "contractAddress": null,
      "gasUsedForL1": "0x0",
      "l1BlockNumber": "0x9f78ef",
      "timeboosted": false
    },
    {
      "status": "0x1",
      "cumulativeGasUsed": "0x68c21",
      "logs": [
        {
          "address": "0xb7cb1413aa4b03106204239dc066ada57fc68dce",
          "topics": [
            "0xddf252ad1be2c89b69c2b068fc378daa952ba7f163c4a11628f55a4df523b3ef",
            "0x0000000000000000000000000000000000000000000000000000000000000000",
            "0x0000000000000000000000009ea593f2cbac4671268a609bbbd7276aea7eb689",
            "0x0000000000000000000000000000000000000000000000000000000000000001"
          ],
          "data": "0x",
          "blockHash": "0x8ce52a33cf39af69b06ca5ab5a0230fa8a4a7b4628dce3216ebe8bf0593718e8",
          "blockNumber": "0xeeb109f",
          "blockTimestamp": "0x69b69839",
          "transactionHash": "0xde5c4b875e4c506dfbc9d253e59059cd6561aacbd706bebdc551c9e8fc39bada",
          "transactionIndex": "0x1",
          "logIndex": "0x0",
          "removed": false
        },
        {
          "address": "0xb7cb1413aa4b03106204239dc066ada57fc68dce",
          "topics": [
            "0x10845ceb65e3c7739ad74f73b23a88e958137c3e9f90eddd610b0e8f59b24a51",
            "0x0000000000000000000000000000000000000000000000000000000000000001",
            "0x0000000000000000000000009ea593f2cbac4671268a609bbbd7276aea7eb689",
            "0x000000000000000000000000878798c42a931d4b335173c7f233a9279db4d8cd"
          ],
          "data": "0x000000000000000000000000000000000000000000000000000000000000271000000000000000000000000000000000000000000000000000000000047868c0",
          "blockHash": "0x8ce52a33cf39af69b06ca5ab5a0230fa8a4a7b4628dce3216ebe8bf0593718e8",
          "blockNumber": "0xeeb109f",
          "blockTimestamp": "0x69b69839",
          "transactionHash": "0xde5c4b875e4c506dfbc9d253e59059cd6561aacbd706bebdc551c9e8fc39bada",
          "transactionIndex": "0x1",
          "logIndex": "0x1",
          "removed": false
        },
        {
          "address": "0x069587ff0e03adb000d4b629354fc1acd04355d0",
          "topics": [
            "0xb50c9bc46f6ff8ff24782c72cbab16635f48e9b8e1eb493bdd31b82091d0db16",
            "0x0000000000000000000000009ea593f2cbac4671268a609bbbd7276aea7eb689"
          ],
          "data": "0x000000000000000000000000000000000000000000000000000000000000000100000000000000000000000000000000000000000000000000000000000000000000000000000000000000000000000000000000000000000000000000000000",
          "blockHash": "0x8ce52a33cf39af69b06ca5ab5a0230fa8a4a7b4628dce3216ebe8bf0593718e8",
          "blockNumber": "0xeeb109f",
          "blockTimestamp": "0x69b69839",
          "transactionHash": "0xde5c4b875e4c506dfbc9d253e59059cd6561aacbd706bebdc551c9e8fc39bada",
          "transactionIndex": "0x1",
          "logIndex": "0x2",
          "removed": false
        }
      ],
      "logsBloom": "0x020000000000000201000000000000000000000000000000000040200000000000000000000000000000000000000000000000200000000000000000000400000000000000000010000000080000000000008000000400000000000000000000000000002200000000000000000008000000000000000000000000100000000000000000000000000000008000000000000000000000000000000010000008002000000000000000000000000000000000000000000000000000000000000000000000020000000000000000000000000000000000000008000000000000e0000000000008000000000000000010000008000000000000000000000000000000",
      "type": "0x2",
      "transactionHash": "0xde5c4b875e4c506dfbc9d253e59059cd6561aacbd706bebdc551c9e8fc39bada",
      "transactionIndex": "0x1",
      "blockHash": "0x8ce52a33cf39af69b06ca5ab5a0230fa8a4a7b4628dce3216ebe8bf0593718e8",
      "blockNumber": "0xeeb109f",
      "gasUsed": "0x68c21",
      "effectiveGasPrice": "0x13163b0",
      "from": "0x9ea593f2cbac4671268a609bbbd7276aea7eb689",
      "to": "0xb7cb1413aa4b03106204239dc066ada57fc68dce",
      "contractAddress": null,
      "gasUsedForL1": "0x0",
      "l1BlockNumber": "0x9f78ef",
      "timeboosted": false
    },
    {
      "status": "0x1",
      "cumulativeGasUsed": "0xc34c",
      "logs": [
        {
          "address": "0xb7cb1413aa4b03106204239dc066ada57fc68dce",
          "topics": [
            "0xa8993bbe79af1071dc039c1144feccfba01680aa0fdd10a4e92f1a12533e895c",
            "0x0000000000000000000000000000000000000000000000000000000000000001",
            "0x0000000000000000000000009ea593f2cbac4671268a609bbbd7276aea7eb689"
          ],
          "data": "0x",
          "blockHash": "0xbc8b4ec85cfa69346ecf1eaa4e8c437cf717aefdf379f7f9d9aacc46584e58d7",
          "blockNumber": "0xeeb10a6",
          "blockTimestamp": "0x69b6983b",
          "transactionHash": "0x9f5834c0ccd5cac05c807a25925369398216a13e2e6e6e6f34f86368d44633fc",
          "transactionIndex": "0x1",
          "logIndex": "0x0",
          "removed": false
        }
      ],
      "logsBloom": "0x000000000000000200000000000000000000040000000000000000010000000000000000000000000000000000000000000000000000000000000000000400000000000000000000000000000000000000000000000400000000000000100000000000000000000000000000000000000000000000000000000000000000000000000000000000000000000000000000000000000000000000000010000008002000000000000000000000000000000000000000000000000000000000000000000000000000000000000000000000000000000000000000000000000000c0000000000000000000000000000010000000000000000000000000000000000000",
      "type": "0x2",
      "transactionHash": "0x9f5834c0ccd5cac05c807a25925369398216a13e2e6e6e6f34f86368d44633fc",
      "transactionIndex": "0x1",
      "blockHash": "0xbc8b4ec85cfa69346ecf1eaa4e8c437cf717aefdf379f7f9d9aacc46584e58d7",
      "blockNumber": "0xeeb10a6",
      "gasUsed": "0xc34c",
      "effectiveGasPrice": "0x1316b80",
      "from": "0x9ea593f2cbac4671268a609bbbd7276aea7eb689",
      "to": "0xb7cb1413aa4b03106204239dc066ada57fc68dce",
      "contractAddress": null,
      "gasUsedForL1": "0x0",
      "l1BlockNumber": "0x9f78f0",
      "timeboosted": false
    },
    {
      "status": "0x1",
      "cumulativeGasUsed": "0x5c411",
      "logs": [
        {
          "address": "0xb7cb1413aa4b03106204239dc066ada57fc68dce",
          "topics": [
            "0xddf252ad1be2c89b69c2b068fc378daa952ba7f163c4a11628f55a4df523b3ef",
            "0x0000000000000000000000000000000000000000000000000000000000000000",
            "0x0000000000000000000000009ea593f2cbac4671268a609bbbd7276aea7eb689",
            "0x0000000000000000000000000000000000000000000000000000000000000002"
          ],
          "data": "0x",
          "blockHash": "0x4f500f5aefdf4b89e9e199f9beb2e4cfe26905bd6b801307514053a6fc7e6793",
          "blockNumber": "0xeeb10b2",
          "blockTimestamp": "0x69b6983e",
          "transactionHash": "0x1c48406c1276e0e8d7714250ec9f0fefaa4e1e975ae2f7c68766023e42281f88",
          "transactionIndex": "0x1",
          "logIndex": "0x0",
          "removed": false
        },
        {
          "address": "0xb7cb1413aa4b03106204239dc066ada57fc68dce",
          "topics": [
            "0x10845ceb65e3c7739ad74f73b23a88e958137c3e9f90eddd610b0e8f59b24a51",
            "0x0000000000000000000000000000000000000000000000000000000000000002",
            "0x0000000000000000000000009ea593f2cbac4671268a609bbbd7276aea7eb689",
            "0x00000000000000000000000034109fb1b9b31fa4f29a84c2e093496f3135a339"
          ],
          "data": "0x00000000000000000000000000000000000000000000000000000000000013880000000000000000000000000000000000000000000000000000000008f0d180",
          "blockHash": "0x4f500f5aefdf4b89e9e199f9beb2e4cfe26905bd6b801307514053a6fc7e6793",
          "blockNumber": "0xeeb10b2",
          "blockTimestamp": "0x69b6983e",
          "transactionHash": "0x1c48406c1276e0e8d7714250ec9f0fefaa4e1e975ae2f7c68766023e42281f88",
          "transactionIndex": "0x1",
          "logIndex": "0x1",
          "removed": false
        },
        {
          "address": "0x069587ff0e03adb000d4b629354fc1acd04355d0",
          "topics": [
            "0xb50c9bc46f6ff8ff24782c72cbab16635f48e9b8e1eb493bdd31b82091d0db16",
            "0x0000000000000000000000009ea593f2cbac4671268a609bbbd7276aea7eb689"
          ],
          "data": "0x000000000000000000000000000000000000000000000000000000000000000200000000000000000000000000000000000000000000000000000000000000000000000000000000000000000000000000000000000000000000000000000000",
          "blockHash": "0x4f500f5aefdf4b89e9e199f9beb2e4cfe26905bd6b801307514053a6fc7e6793",
          "blockNumber": "0xeeb10b2",
          "blockTimestamp": "0x69b6983e",
          "transactionHash": "0x1c48406c1276e0e8d7714250ec9f0fefaa4e1e975ae2f7c68766023e42281f88",
          "transactionIndex": "0x1",
          "logIndex": "0x2",
          "removed": false
        }
      ],
      "logsBloom": "0x060000000000000201000000000000000000010000000000000040000000000000000000000000000000000000000000000000000000000000000000000000000000000000000010000000080000000000008000000000000000000000000000000000000200000000000000000008000000000000000000080000100000000000000000000000000000008000000000000000000000000000000010000008002000000000000000000001000000000000000000000000000000000000000000000000020000000000000000000000000000000000000008000000000040a0000000000008000000000000000010000008000000008000000000000000000000",
      "type": "0x2",
      "transactionHash": "0x1c48406c1276e0e8d7714250ec9f0fefaa4e1e975ae2f7c68766023e42281f88",
      "transactionIndex": "0x1",
      "blockHash": "0x4f500f5aefdf4b89e9e199f9beb2e4cfe26905bd6b801307514053a6fc7e6793",
      "blockNumber": "0xeeb10b2",
      "gasUsed": "0x5c411",
      "effectiveGasPrice": "0x1312d00",
      "from": "0x9ea593f2cbac4671268a609bbbd7276aea7eb689",
      "to": "0xb7cb1413aa4b03106204239dc066ada57fc68dce",
      "contractAddress": null,
      "gasUsedForL1": "0x0",
      "l1BlockNumber": "0x9f78f0",
      "timeboosted": false
    },
    {
      "status": "0x1",
      "cumulativeGasUsed": "0x25db9",
      "logs": [
        {
          "address": "0xb7cb1413aa4b03106204239dc066ada57fc68dce",
          "topics": [
            "0xa8993bbe79af1071dc039c1144feccfba01680aa0fdd10a4e92f1a12533e895c",
            "0x0000000000000000000000000000000000000000000000000000000000000002",
            "0x0000000000000000000000009ea593f2cbac4671268a609bbbd7276aea7eb689"
          ],
          "data": "0x",
          "blockHash": "0x973cbda350aadd36cb0e3a92dc587f6fc28a970a4dbe6a4cabf84bdd80eb8bd6",
          "blockNumber": "0xeeb10be",
          "blockTimestamp": "0x69b69841",
          "transactionHash": "0x110443c616f34c87152c6594b495ca96544159f6bf39c18f2482c3f1630ded35",
          "transactionIndex": "0x2",
          "logIndex": "0x3",
          "removed": false
        }
      ],
      "logsBloom": "0x04000000000000020000000000000000000004000000000000000001000000000000000000000000000000000000000000000000000000000000000000000000000000000000000000000000000000000000000000000000000000000010000000000000000000000000000000000000000000000000000000000000000000000000000000000000000000000000000000000000000000000000001000000800200000000000000000000100000000000000000000000000000000000000000000000000000000000000000000000000000000000000000000000000000080000000000000000000000000000010000000000000008000000000000000000000",
      "type": "0x2",
      "transactionHash": "0x110443c616f34c87152c6594b495ca96544159f6bf39c18f2482c3f1630ded35",
      "transactionIndex": "0x2",
      "blockHash": "0x973cbda350aadd36cb0e3a92dc587f6fc28a970a4dbe6a4cabf84bdd80eb8bd6",
      "blockNumber": "0xeeb10be",
      "gasUsed": "0xc34c",
      "effectiveGasPrice": "0x1313ca0",
      "from": "0x9ea593f2cbac4671268a609bbbd7276aea7eb689",
      "to": "0xb7cb1413aa4b03106204239dc066ada57fc68dce",
      "contractAddress": null,
      "gasUsedForL1": "0x0",
      "l1BlockNumber": "0x9f78f0",
      "timeboosted": false
    }
  ],
  "libraries": [],
  "pending": [],
  "returns": {},
  "timestamp": 1773574322706,
  "chain": 421614,
  "commit": null
}